{"contracts/WildlifeDAO.sol":{"WildlifeDAO":{"abi":[{"inputs":[{"internalType":"address","name":"_wldToken","type":"address"}],"stateMutability":"nonpayable","type":"constructor"},{"inputs":[{"internalType":"address","name":"owner","type":"address"}],"name":"OwnableInvalidOwner","type":"error"},{"inputs":[{"internalType":"address","name":"account","type":"address"}],"name":"OwnableUnauthorizedAccount","type":"error"},{"anonymous":false,"inputs":[{"indexed":true,"internalType":"address","name":"donor","type":"address"},{"indexed":false,"internalType":"uint256","name":"usdAmount","type":"uint256"},{"indexed":false,"internalType":"uint256","name":"wldMinted","type":"uint256"},{"indexed":false,"internalType":"uint256","name":"daoFeeAmount","type":"uint256"}],"name":"DonationReceived","type":"event"},{"anonymous":false,"inputs":[{"indexed":true,"internalType":"address","name":"previousOwner","type":"address"},{"indexed":true,"internalType":"address","name":"newOwner","type":"address"}],"name":"OwnershipTransferred","type":"event"},{"anonymous":false,"inputs":[{"indexed":true,"internalType":"uint256","name":"projectId","type":"uint256"},{"indexed":false,"internalType":"enum WildlifeDAO.ProjectStatus","name":"oldStatus","type":"uint8"},{"indexed":false,"internalType":"enum WildlifeDAO.ProjectStatus","name":"newStatus","type":"uint8"}],"name":"ProjectStatusChanged","type":"event"},{"anonymous":false,"inputs":[{"indexed":true,"internalType":"uint256","name":"projectId","type":"uint256"},{"indexed":true,"internalType":"address","name":"submitter","type":"address"},{"indexed":false,"internalType":"string","name":"title","type":"string"},{"indexed":false,"internalType":"uint256","name":"fundingRequired","type":"uint256"},{"indexed":false,"internalType":"enum WildlifeDAO.ProjectStatus","name":"status","type":"uint8"}],"name":"ProposalSubmitted","type":"event"},{"anonymous":false,"inputs":[{"indexed":true,"internalType":"uint256","name":"projectId","type":"uint256"},{"indexed":false,"internalType":"uint256","name":"currentTime","type":"uint256"},{"indexed":false,"internalType":"uint256","name":"submissionTime","type":"uint256"},{"indexed":false,"internalType":"uint256","name":"validationPeriod","type":"uint256"}],"name":"ValidationCheck","type":"event"},{"anonymous":false,"inputs":[{"indexed":true,"internalType":"uint256","name":"projectId","type":"uint256"},{"indexed":true,"internalType":"address","name":"voter","type":"address"},{"indexed":false,"internalType":"bool","name":"support","type":"bool"},{"indexed":false,"internalType":"uint256","name":"votingPower","type":"uint256"}],"name":"VoteCast","type":"event"},{"inputs":[],"name":"AUTO_VALIDATION_PERIOD","outputs":[{"internalType":"uint256","name":"","type":"uint256"}],"stateMutability":"view","type":"function"},{"inputs":[],"name":"DAO_FEE","outputs":[{"internalType":"uint256","name":"","type":"uint256"}],"stateMutability":"view","type":"function"},{"inputs":[],"name":"MAX_DONATION","outputs":[{"internalType":"uint256","name":"","type":"uint256"}],"stateMutability":"view","type":"function"},{"inputs":[],"name":"MIN_DONATION","outputs":[{"internalType":"uint256","name":"","type":"uint256"}],"stateMutability":"view","type":"function"},{"inputs":[],"name":"MIN_VOTE_POWER","outputs":[{"internalType":"uint256","name":"","type":"uint256"}],"stateMutability":"view","type":"function"},{"inputs":[],"name":"VOTE_COST","outputs":[{"internalType":"uint256","name":"","type":"uint256"}],"stateMutability":"view","type":"function"},{"inputs":[],"name":"VOTING_PERIOD","outputs":[{"internalType":"uint256","name":"","type":"uint256"}],"stateMutability":"view","type":"function"},{"inputs":[{"internalType":"address","name":"validator","type":"address"}],"name":"addValidator","outputs":[],"stateMutability":"nonpayable","type":"function"},{"inputs":[{"internalType":"uint256","name":"_usdAmount","type":"uint256"},{"internalType":"address","name":"_recipient","type":"address"}],"name":"donate","outputs":[],"stateMutability":"payable","type":"function"},{"inputs":[],"name":"exchangeRate","outputs":[{"internalType":"uint256","name":"","type":"uint256"}],"stateMutability":"view","type":"function"},{"inputs":[{"internalType":"uint256","name":"projectId","type":"uint256"}],"name":"getProjectStatus","outputs":[{"internalType":"enum WildlifeDAO.ProjectStatus","name":"status","type":"uint8"},{"internalType":"uint256","name":"submissionTime","type":"uint256"},{"internalType":"uint256","name":"votingStartTime","type":"uint256"},{"internalType":"uint256","name":"votingEndTime","type":"uint256"}],"stateMutability":"view","type":"function"},{"inputs":[{"internalType":"uint256","name":"projectId","type":"uint256"}],"name":"getProjectVotes","outputs":[{"internalType":"uint256","name":"forVotes","type":"uint256"},{"internalType":"uint256","name":"againstVotes","type":"uint256"},{"internalType":"uint256","name":"votingEndTime","type":"uint256"}],"stateMutability":"view","type":"function"},{"inputs":[],"name":"minValidationsRequired","outputs":[{"internalType":"uint256","name":"","type":"uint256"}],"stateMutability":"view","type":"function"},{"inputs":[],"name":"owner","outputs":[{"internalType":"address","name":"","type":"address"}],"stateMutability":"view","type":"function"},{"inputs":[],"name":"projectCount","outputs":[{"internalType":"uint256","name":"","type":"uint256"}],"stateMutability":"view","type":"function"},{"inputs":[{"internalType":"uint256","name":"","type":"uint256"}],"name":"projects","outputs":[{"internalType":"string","name":"title","type":"string"},{"internalType":"string","name":"description","type":"string"},{"internalType":"address","name":"proposer","type":"address"},{"internalType":"uint256","name":"fundingRequired","type":"uint256"},{"internalType":"uint256","name":"fundingReceived","type":"uint256"},{"internalType":"uint256","name":"validationCount","type":"uint256"},{"internalType":"enum WildlifeDAO.ProjectStatus","name":"status","type":"uint8"},{"internalType":"uint256","name":"submissionTime","type":"uint256"},{"internalType":"uint256","name":"forVotes","type":"uint256"},{"internalType":"uint256","name":"againstVotes","type":"uint256"},{"internalType":"uint256","name":"votingStartTime","type":"uint256"},{"internalType":"uint256","name":"votingEndTime","type":"uint256"},{"internalType":"bool","name":"executed","type":"bool"}],"stateMutability":"view","type":"function"},{"inputs":[{"internalType":"string","name":"","type":"string"}],"name":"proposalIdToProjectId","outputs":[{"internalType":"uint256","name":"","type":"uint256"}],"stateMutability":"view","type":"function"},{"inputs":[{"internalType":"address","name":"validator","type":"address"}],"name":"removeValidator","outputs":[],"stateMutability":"nonpayable","type":"function"},{"inputs":[],"name":"renounceOwnership","outputs":[],"stateMutability":"nonpayable","type":"function"},{"inputs":[{"internalType":"string","name":"proposalId","type":"string"},{"internalType":"string","name":"title","type":"string"},{"internalType":"string","name":"description","type":"string"},{"internalType":"uint256","name":"fundingRequired","type":"uint256"}],"name":"submitProject","outputs":[{"internalType":"uint256","name":"","type":"uint256"}],"stateMutability":"nonpayable","type":"function"},{"inputs":[],"name":"totalValueLocked","outputs":[{"internalType":"uint256","name":"","type":"uint256"}],"stateMutability":"view","type":"function"},{"inputs":[],"name":"totalWLD","outputs":[{"internalType":"uint256","name":"","type":"uint256"}],"stateMutability":"view","type":"function"},{"inputs":[{"internalType":"address","name":"newOwner","type":"address"}],"name":"transferOwnership","outputs":[],"stateMutability":"nonpayable","type":"function"},{"inputs":[{"internalType":"address","name":"","type":"address"}],"name":"validators","outputs":[{"internalType":"bool","name":"","type":"bool"}],"stateMutability":"view","type":"function"},{"inputs":[{"internalType":"uint256","name":"projectId","type":"uint256"},{"internalType":"bool","name":"support","type":"bool"}],"name":"voteOnProject","outputs":[],"stateMutability":"nonpayable","type":"function"},{"inputs":[],"name":"wldToken","outputs":[{"internalType":"contract WildlifeDAOToken","name":"","type":"address"}],"stateMutability":"view","type":"function"}],"evm":{"bytecode":{"linkReferences":{},"object":"60803461013357601f6116c338819003918201601f19168301916001600160401b038311848410176101385780849260209460405283398101031261013357516001600160a01b03908181169081900361013357331561011a57600090815460018060a01b03199033828216178455604051943391167f8be0079c531659141344cd1fd0a4f28419497f9722a3daafe3b4186f6b6457e08580a36001600455600260065581156100d857604093506001541617600155338152600560205220600160ff19825416179055604051611574908161014f8239f35b62461bcd60e51b845260206004850152601560248501527f496e76616c696420746f6b656e206164647265737300000000000000000000006044850152606484fd5b604051631e4fbdf760e01b815260006004820152602490fd5b600080fd5b634e487b7160e01b600052604160045260246000fdfe608080604052600436101561001357600080fd5b600090813560e01c9081630b5367ad146112ca57508063107046bd146111d35780631e484e70146111af5780632763b72a14610d0b57806336fbad2614610ced5780633ba0b9a914610ccf57806340a141ff14610c425780634339e612146107fd5780634857317e146107e05780634d238c8e1461074d5780635006e8541461072f578063715018a6146106d55780638004f9fa1461041f5780638da5cb5b146103f85780639675c0091461039e5780639acbbf22146103825780639be3783d14610359578063b1610d7e1461033b578063b7b5bfc1146102dd578063db45810e146102c1578063e9e6a349146102a4578063ec18154e14610286578063f2fde38b146101f6578063fa52c7d8146101b7578063fdfda408146101645763fe71b8ba1461013f57600080fd5b346101615780600319360112610161576020604051678ac7230489e800008152f35b80fd5b5034610161576020366003190112610161576040906004358152600760205220600b8101546101b3600e600c840154930154604051938493846040919493926060820195825260208201520152565b0390f35b50346101615760203660031901126101615760209060ff906040906001600160a01b036101e26114d9565b168152600584522054166040519015158152f35b5034610161576020366003190112610161576102106114d9565b6102186114ef565b6001600160a01b0390811690811561026d57600054826bffffffffffffffffffffffff60a01b821617600055167f8be0079c531659141344cd1fd0a4f28419497f9722a3daafe3b4186f6b6457e0600080a380f35b604051631e4fbdf760e01b815260048101849052602490fd5b50346101615780600319360112610161576020600254604051908152f35b503461016157806003193601126101615760206040516101f48152f35b5034610161578060031936011261016157602060405160018152f35b5034610161576020366003190112610161576004359067ffffffffffffffff821161016157602061032881610315366004870161147d565b8160405193828580945193849201611412565b8101600981520301902054604051908152f35b5034610161578060031936011261016157602060405162093a808152f35b50346101615780600319360112610161576001546040516001600160a01b039091168152602090f35b50346101615780600319360112610161576020604051603c8152f35b5034610161576020366003190112610161576040608091600435815260076020522060ff60068201541690600781015490600e600d820154910154916103e7604051809561145a565b602084015260408301526060820152f35b5034610161578060031936011261016157546040516001600160a01b039091168152602090f35b5060403660031901126101615760043560248035906001600160a01b038083168084036106d15760018510610698576103e8851161065f571561062757670de0b6b3a76400009283850293858504148515171561061457681b1ae4d6e2ef50000085028481046101f4148515171561060157612710900492838503908582116105ef575086906104b18760025461151b565b6002556104c08660035461151b565b600355836001541690813b156105eb576040516320e224bb60e21b8082526001600160a01b03959095166004820152602481019190915291908290604490829084905af180156105e0576105cb575b509085918361055a575b5050604080519485526020850193909352509082015233907f3168ca6b1e292883c0668008556fb887f7cce92bcd3c1c57c15a34dcdccd589290606090a280f35b81600154169183541690823b156105bc576040519081526001600160a01b03919091166004820152602481018490529082908290604490829084905af180156105c0576105a8575b80610519565b6105b190611320565b6105bc5783386105a2565b8380fd5b6040513d84823e3d90fd5b6105d89096919296611320565b94903861050f565b6040513d89823e3d90fd5b8280fd5b634e487b7160e01b8852601160045287fd5b634e487b7160e01b875260116004528387fd5b634e487b7160e01b865260116004528286fd5b60405162461bcd60e51b81526020600482015260118184015270125b9d985b1a59081c9958da5c1a595b9d607a1b6044820152606490fd5b60405162461bcd60e51b81526020600482015260128185015271446f6e6174696f6e20746f6f206c6172676560701b6044820152606490fd5b60405162461bcd60e51b81526020600482015260128185015271111bdb985d1a5bdb881d1bdbc81cdb585b1b60721b6044820152606490fd5b8580fd5b50346101615780600319360112610161576106ee6114ef565b80546001600160a01b03198116825581906001600160a01b03167f8be0079c531659141344cd1fd0a4f28419497f9722a3daafe3b4186f6b6457e08280a380f35b50346101615780600319360112610161576020600654604051908152f35b5034610161576020366003190112610161576107676114d9565b61076f6114ef565b6001600160a01b03168082526005602052604082205460ff166107a5578152600560205260408120805460ff1916600117905580f35b60405162461bcd60e51b815260206004820152601360248201527220b63932b0b23c9030903b30b634b230ba37b960691b6044820152606490fd5b503461016157806003193601126101615760206040516103e88152f35b5034610161576040366003190112610161576004356024803590811515808303610c3e57838552602092600784526040862060ff6006820154166005811015610c2b57600203610be757600e8101544211610bad57600a81019133885282865260ff604089205416610b79576001546040516370a0823160e01b8152336004820152906001600160a01b031687828881845afa918215610afb578a92610b4a575b5068056bc75e2d631000008210610b06579087600492604051938480926318160ddd60e01b82525afa918215610afb578a92610ac8575b5061271090818102918183041490151715610ab5578115610aa2570492604051906060820182811067ffffffffffffffff821117610a8f5788610967939261094b60408e600295825260018752848701938b8552828801958d8752338352522094511515859060ff801983541691151516179055565b51600184015551151591019060ff801983541691151516179055565b15610a7a57600b0161097a82825461151b565b90555b60405191825283820152837fcbdf6214089cba887ecbf35a0b6a734589959c9763342c756bb2a80ca2bc9f6e60403393a3828452600782526040842090600e82015442116109c9578480f35b600b820154600c83015490610bb86109e1838361151b565b10156109ee575b50508480f35b1115610a705760066004925b01937ff75c354d0772e6386c514de8e03be6b7fb27fe941335caa779ee1b9f34fe0c1e6040865495610a3d825191610a358360ff8b1661145a565b82018761145a565ba26005821015610a5e575060ff169060ff19161790553880808080806109e8565b634e487b7160e01b8552602160045284fd5b60066003926109fa565b600c01610a8882825461151b565b905561097d565b634e487b7160e01b8b526041600452878bfd5b634e487b7160e01b8a526012600452868afd5b634e487b7160e01b8a526011600452868afd5b9091508781813d8311610af4575b610ae0818361134a565b81010312610af0575190386108d5565b8980fd5b503d610ad6565b6040513d8c823e3d90fd5b60405162461bcd60e51b8152600481018990526019818901527f496e73756666696369656e7420766f74696e6720706f776572000000000000006044820152606490fd5b9091508781813d8311610b72575b610b62818361134a565b81010312610af05751903861089e565b503d610b58565b60405162461bcd60e51b815260048101879052600d818701526c105b1c9958591e481d9bdd1959609a1b6044820152606490fd5b60405162461bcd60e51b81526004810186905260138186015272159bdd1a5b99c81c195c9a5bd908195b991959606a1b6044820152606490fd5b60405162461bcd60e51b815260048101869052601b818601527f50726f6a656374206e6f7420696e20766f74696e6720706861736500000000006044820152606490fd5b634e487b7160e01b885260216004528488fd5b8480fd5b503461016157602036600319011261016157610c5c6114d9565b610c646114ef565b6001600160a01b03168082526005602052604082205460ff1615610c98578152600560205260408120805460ff1916905580f35b60405162461bcd60e51b815260206004820152600f60248201526e2737ba1030903b30b634b230ba37b960891b6044820152606490fd5b50346101615780600319360112610161576020600454604051908152f35b50346101615780600319360112610161576020600854604051908152f35b50346101615760803660031901126101615760043567ffffffffffffffff81116111ab57610d3d90369060040161147d565b60243567ffffffffffffffff81116105eb57610d5d90369060040161147d565b9160443567ffffffffffffffff81116111ab57610d7e90369060040161147d565b92825115611170576040516020818551610d9b8183858a01611412565b810160098152030190205461112b57600854926000198414611117576001840160085560018401835260076020526040832094825167ffffffffffffffff811161105557610de987546112e6565b601f81116110d6575b50806020601f8211600114611074578691611069575b508160011b916000199060031b1c19161786555b80519067ffffffffffffffff8211611055578190610e3d60018901546112e6565b601f8111611005575b50602090601f8311600114610f9b578692610f90575b50508160011b916000199060031b1c19161760018601555b6064359081600387015560028601336bffffffffffffffffffffffff60a01b82541617905560068601600260ff1982541617905542600787015542600d87015562093a804201804211610f7c57600e602097015585610edc6040519283815193849201611412565b81019060098252868160018801930301902055610f0460405192606084526060840190611435565b9085830152600260408301527f50094398b94bd032f2883f60fcf80bc2d2f633c5bcaf147bb1bc23cb6d48ee7033928060018701930390a36040519081526002838201527ff75c354d0772e6386c514de8e03be6b7fb27fe941335caa779ee1b9f34fe0c1e60406001840192a2600160405191018152f35b634e487b7160e01b85526011600452602485fd5b015190503880610e5c565b600189018752602087209250601f198416875b818110610fed5750908460019594939210610fd4575b505050811b016001860155610e74565b015160001960f88460031b161c19169055388080610fc4565b92936020600181928786015181550195019301610fae565b90915060018801865260208620601f840160051c81016020851061104e575b90849392915b601f830160051c82018110611040575050610e46565b88815585945060010161102a565b5080611024565b634e487b7160e01b85526041600452602485fd5b905084015138610e08565b888752602087209150601f198316875b8181106110be575090836001949392106110a5575b5050811b018655610e1c565b86015160001960f88460031b161c191690553880611099565b9192602060018192868b015181550194019201611084565b87865260208620601f830160051c810160208410611110575b601f830160051c82018110611105575050610df2565b8781556001016110ef565b50806110ef565b634e487b7160e01b83526011600452602483fd5b60405162461bcd60e51b815260206004820152601a60248201527f50726f706f73616c20494420616c7265616479206578697374730000000000006044820152606490fd5b60405162461bcd60e51b8152602060048201526013602482015272125b9d985b1a59081c1c9bdc1bdcd85b081251606a1b6044820152606490fd5b5080fd5b5034610161578060031936011261016157602060405168056bc75e2d631000008152f35b50346101615760203660031901126101615760043581526007602052604090206111fc8161136c565b6112086001830161136c565b91600160a01b600190036002820154169060038101549060048101546005820154600683015460ff166007840154600b85015491600c86015493600d87015495600e88015497600f015460ff16986040519c8d9c8d6101a0908181520161126e91611435565b8d810360208f015261127f91611435565b9a60408d015260608c015260808b015260a08a015260c089016112a19161145a565b60e088015261010087015261012086015261014085015261016084015215156101808301520390f35b9050346111ab57816003193601126111ab576020906003548152f35b90600182811c92168015611316575b602083101461130057565b634e487b7160e01b600052602260045260246000fd5b91607f16916112f5565b67ffffffffffffffff811161133457604052565b634e487b7160e01b600052604160045260246000fd5b90601f8019910116810190811067ffffffffffffffff82111761133457604052565b9060405191826000825492611380846112e6565b9081845260019485811690816000146113ef57506001146113ac575b50506113aa9250038361134a565b565b9093915060005260209081600020936000915b8183106113d75750506113aa9350820101388061139c565b855488840185015294850194879450918301916113bf565b9150506113aa94506020925060ff191682840152151560051b820101388061139c565b60005b8381106114255750506000910152565b8181015183820152602001611415565b9060209161144e81518092818552858086019101611412565b601f01601f1916010190565b9060058210156114675752565b634e487b7160e01b600052602160045260246000fd5b81601f820112156114d45780359067ffffffffffffffff821161133457604051926114b2601f8401601f19166020018561134a565b828452602083830101116114d457816000926020809301838601378301015290565b600080fd5b600435906001600160a01b03821682036114d457565b6000546001600160a01b0316330361150357565b60405163118cdaa760e01b8152336004820152602490fd5b9190820180921161152857565b634e487b7160e01b600052601160045260246000fdfea264697066735822122091a58ae47dd7dee95288e3fc27bc804d9cd18a2436aa943df68b284d6aac3af464736f6c63430008140033","opcodes":"PUSH1 0x80 CALLVALUE PUSH2 0x133 JUMPI PUSH1 0x1F PUSH2 0x16C3 CODESIZE DUP2 SWAP1 SUB SWAP2 DUP3 ADD PUSH1 0x1F NOT AND DUP4 ADD SWAP2 PUSH1 0x1 PUSH1 0x1 PUSH1 0x40 SHL SUB DUP4 GT DUP5 DUP5 LT OR PUSH2 0x138 JUMPI DUP1 DUP5 SWAP3 PUSH1 0x20 SWAP5 PUSH1 0x40 MSTORE DUP4 CODECOPY DUP2 ADD SUB SLT PUSH2 0x133 JUMPI MLOAD PUSH1 0x1 PUSH1 0x1 PUSH1 0xA0 SHL SUB SWAP1 DUP2 DUP2 AND SWAP1 DUP2 SWAP1 SUB PUSH2 0x133 JUMPI CALLER ISZERO PUSH2 0x11A JUMPI PUSH1 0x0 SWAP1 DUP2 SLOAD PUSH1 0x1 DUP1 PUSH1 0xA0 SHL SUB NOT SWAP1 CALLER DUP3 DUP3 AND OR DUP5 SSTORE PUSH1 0x40 MLOAD SWAP5 CALLER SWAP2 AND PUSH32 0x8BE0079C531659141344CD1FD0A4F28419497F9722A3DAAFE3B4186F6B6457E0 DUP6 DUP1 LOG3 PUSH1 0x1 PUSH1 0x4 SSTORE PUSH1 0x2 PUSH1 0x6 SSTORE DUP2 ISZERO PUSH2 0xD8 JUMPI PUSH1 0x40 SWAP4 POP PUSH1 0x1 SLOAD AND OR PUSH1 0x1 SSTORE CALLER DUP2 MSTORE PUSH1 0x5 PUSH1 0x20 MSTORE KECCAK256 PUSH1 0x1 PUSH1 0xFF NOT DUP3 SLOAD AND OR SWAP1 SSTORE PUSH1 0x40 MLOAD PUSH2 0x1574 SWAP1 DUP2 PUSH2 0x14F DUP3 CODECOPY RETURN JUMPDEST PUSH3 0x461BCD PUSH1 0xE5 SHL DUP5 MSTORE PUSH1 0x20 PUSH1 0x4 DUP6 ADD MSTORE PUSH1 0x15 PUSH1 0x24 DUP6 ADD MSTORE PUSH32 0x496E76616C696420746F6B656E20616464726573730000000000000000000000 PUSH1 0x44 DUP6 ADD MSTORE PUSH1 0x64 DUP5 REVERT JUMPDEST PUSH1 0x40 MLOAD PUSH4 0x1E4FBDF7 PUSH1 0xE0 SHL DUP2 MSTORE PUSH1 0x0 PUSH1 0x4 DUP3 ADD MSTORE PUSH1 0x24 SWAP1 REVERT JUMPDEST PUSH1 0x0 DUP1 REVERT JUMPDEST PUSH4 0x4E487B71 PUSH1 0xE0 SHL PUSH1 0x0 MSTORE PUSH1 0x41 PUSH1 0x4 MSTORE PUSH1 0x24 PUSH1 0x0 REVERT INVALID PUSH1 0x80 DUP1 PUSH1 0x40 MSTORE PUSH1 0x4 CALLDATASIZE LT ISZERO PUSH2 0x13 JUMPI PUSH1 0x0 DUP1 REVERT JUMPDEST PUSH1 0x0 SWAP1 DUP2 CALLDATALOAD PUSH1 0xE0 SHR SWAP1 DUP2 PUSH4 0xB5367AD EQ PUSH2 0x12CA JUMPI POP DUP1 PUSH4 0x107046BD EQ PUSH2 0x11D3 JUMPI DUP1 PUSH4 0x1E484E70 EQ PUSH2 0x11AF JUMPI DUP1 PUSH4 0x2763B72A EQ PUSH2 0xD0B JUMPI DUP1 PUSH4 0x36FBAD26 EQ PUSH2 0xCED JUMPI DUP1 PUSH4 0x3BA0B9A9 EQ PUSH2 0xCCF JUMPI DUP1 PUSH4 0x40A141FF EQ PUSH2 0xC42 JUMPI DUP1 PUSH4 0x4339E612 EQ PUSH2 0x7FD JUMPI DUP1 PUSH4 0x4857317E EQ PUSH2 0x7E0 JUMPI DUP1 PUSH4 0x4D238C8E EQ PUSH2 0x74D JUMPI DUP1 PUSH4 0x5006E854 EQ PUSH2 0x72F JUMPI DUP1 PUSH4 0x715018A6 EQ PUSH2 0x6D5 JUMPI DUP1 PUSH4 0x8004F9FA EQ PUSH2 0x41F JUMPI DUP1 PUSH4 0x8DA5CB5B EQ PUSH2 0x3F8 JUMPI DUP1 PUSH4 0x9675C009 EQ PUSH2 0x39E JUMPI DUP1 PUSH4 0x9ACBBF22 EQ PUSH2 0x382 JUMPI DUP1 PUSH4 0x9BE3783D EQ PUSH2 0x359 JUMPI DUP1 PUSH4 0xB1610D7E EQ PUSH2 0x33B JUMPI DUP1 PUSH4 0xB7B5BFC1 EQ PUSH2 0x2DD JUMPI DUP1 PUSH4 0xDB45810E EQ PUSH2 0x2C1 JUMPI DUP1 PUSH4 0xE9E6A349 EQ PUSH2 0x2A4 JUMPI DUP1 PUSH4 0xEC18154E EQ PUSH2 0x286 JUMPI DUP1 PUSH4 0xF2FDE38B EQ PUSH2 0x1F6 JUMPI DUP1 PUSH4 0xFA52C7D8 EQ PUSH2 0x1B7 JUMPI DUP1 PUSH4 0xFDFDA408 EQ PUSH2 0x164 JUMPI PUSH4 0xFE71B8BA EQ PUSH2 0x13F JUMPI PUSH1 0x0 DUP1 REVERT JUMPDEST CALLVALUE PUSH2 0x161 JUMPI DUP1 PUSH1 0x3 NOT CALLDATASIZE ADD SLT PUSH2 0x161 JUMPI PUSH1 0x20 PUSH1 0x40 MLOAD PUSH8 0x8AC7230489E80000 DUP2 MSTORE RETURN JUMPDEST DUP1 REVERT JUMPDEST POP CALLVALUE PUSH2 0x161 JUMPI PUSH1 0x20 CALLDATASIZE PUSH1 0x3 NOT ADD SLT PUSH2 0x161 JUMPI PUSH1 0x40 SWAP1 PUSH1 0x4 CALLDATALOAD DUP2 MSTORE PUSH1 0x7 PUSH1 0x20 MSTORE KECCAK256 PUSH1 0xB DUP2 ADD SLOAD PUSH2 0x1B3 PUSH1 0xE PUSH1 0xC DUP5 ADD SLOAD SWAP4 ADD SLOAD PUSH1 0x40 MLOAD SWAP4 DUP5 SWAP4 DUP5 PUSH1 0x40 SWAP2 SWAP5 SWAP4 SWAP3 PUSH1 0x60 DUP3 ADD SWAP6 DUP3 MSTORE PUSH1 0x20 DUP3 ADD MSTORE ADD MSTORE JUMP JUMPDEST SUB SWAP1 RETURN JUMPDEST POP CALLVALUE PUSH2 0x161 JUMPI PUSH1 0x20 CALLDATASIZE PUSH1 0x3 NOT ADD SLT PUSH2 0x161 JUMPI PUSH1 0x20 SWAP1 PUSH1 0xFF SWAP1 PUSH1 0x40 SWAP1 PUSH1 0x1 PUSH1 0x1 PUSH1 0xA0 SHL SUB PUSH2 0x1E2 PUSH2 0x14D9 JUMP JUMPDEST AND DUP2 MSTORE PUSH1 0x5 DUP5 MSTORE KECCAK256 SLOAD AND PUSH1 0x40 MLOAD SWAP1 ISZERO ISZERO DUP2 MSTORE RETURN JUMPDEST POP CALLVALUE PUSH2 0x161 JUMPI PUSH1 0x20 CALLDATASIZE PUSH1 0x3 NOT ADD SLT PUSH2 0x161 JUMPI PUSH2 0x210 PUSH2 0x14D9 JUMP JUMPDEST PUSH2 0x218 PUSH2 0x14EF JUMP JUMPDEST PUSH1 0x1 PUSH1 0x1 PUSH1 0xA0 SHL SUB SWAP1 DUP2 AND SWAP1 DUP2 ISZERO PUSH2 0x26D JUMPI PUSH1 0x0 SLOAD DUP3 PUSH12 0xFFFFFFFFFFFFFFFFFFFFFFFF PUSH1 0xA0 SHL DUP3 AND OR PUSH1 0x0 SSTORE AND PUSH32 0x8BE0079C531659141344CD1FD0A4F28419497F9722A3DAAFE3B4186F6B6457E0 PUSH1 0x0 DUP1 LOG3 DUP1 RETURN JUMPDEST PUSH1 0x40 MLOAD PUSH4 0x1E4FBDF7 PUSH1 0xE0 SHL DUP2 MSTORE PUSH1 0x4 DUP2 ADD DUP5 SWAP1 MSTORE PUSH1 0x24 SWAP1 REVERT JUMPDEST POP CALLVALUE PUSH2 0x161 JUMPI DUP1 PUSH1 0x3 NOT CALLDATASIZE ADD SLT PUSH2 0x161 JUMPI PUSH1 0x20 PUSH1 0x2 SLOAD PUSH1 0x40 MLOAD SWAP1 DUP2 MSTORE RETURN JUMPDEST POP CALLVALUE PUSH2 0x161 JUMPI DUP1 PUSH1 0x3 NOT CALLDATASIZE ADD SLT PUSH2 0x161 JUMPI PUSH1 0x20 PUSH1 0x40 MLOAD PUSH2 0x1F4 DUP2 MSTORE RETURN JUMPDEST POP CALLVALUE PUSH2 0x161 JUMPI DUP1 PUSH1 0x3 NOT CALLDATASIZE ADD SLT PUSH2 0x161 JUMPI PUSH1 0x20 PUSH1 0x40 MLOAD PUSH1 0x1 DUP2 MSTORE RETURN JUMPDEST POP CALLVALUE PUSH2 0x161 JUMPI PUSH1 0x20 CALLDATASIZE PUSH1 0x3 NOT ADD SLT PUSH2 0x161 JUMPI PUSH1 0x4 CALLDATALOAD SWAP1 PUSH8 0xFFFFFFFFFFFFFFFF DUP3 GT PUSH2 0x161 JUMPI PUSH1 0x20 PUSH2 0x328 DUP2 PUSH2 0x315 CALLDATASIZE PUSH1 0x4 DUP8 ADD PUSH2 0x147D JUMP JUMPDEST DUP2 PUSH1 0x40 MLOAD SWAP4 DUP3 DUP6 DUP1 SWAP5 MLOAD SWAP4 DUP5 SWAP3 ADD PUSH2 0x1412 JUMP JUMPDEST DUP2 ADD PUSH1 0x9 DUP2 MSTORE SUB ADD SWAP1 KECCAK256 SLOAD PUSH1 0x40 MLOAD SWAP1 DUP2 MSTORE RETURN JUMPDEST POP CALLVALUE PUSH2 0x161 JUMPI DUP1 PUSH1 0x3 NOT CALLDATASIZE ADD SLT PUSH2 0x161 JUMPI PUSH1 0x20 PUSH1 0x40 MLOAD PUSH3 0x93A80 DUP2 MSTORE RETURN JUMPDEST POP CALLVALUE PUSH2 0x161 JUMPI DUP1 PUSH1 0x3 NOT CALLDATASIZE ADD SLT PUSH2 0x161 JUMPI PUSH1 0x1 SLOAD PUSH1 0x40 MLOAD PUSH1 0x1 PUSH1 0x1 PUSH1 0xA0 SHL SUB SWAP1 SWAP2 AND DUP2 MSTORE PUSH1 0x20 SWAP1 RETURN JUMPDEST POP CALLVALUE PUSH2 0x161 JUMPI DUP1 PUSH1 0x3 NOT CALLDATASIZE ADD SLT PUSH2 0x161 JUMPI PUSH1 0x20 PUSH1 0x40 MLOAD PUSH1 0x3C DUP2 MSTORE RETURN JUMPDEST POP CALLVALUE PUSH2 0x161 JUMPI PUSH1 0x20 CALLDATASIZE PUSH1 0x3 NOT ADD SLT PUSH2 0x161 JUMPI PUSH1 0x40 PUSH1 0x80 SWAP2 PUSH1 0x4 CALLDATALOAD DUP2 MSTORE PUSH1 0x7 PUSH1 0x20 MSTORE KECCAK256 PUSH1 0xFF PUSH1 0x6 DUP3 ADD SLOAD AND SWAP1 PUSH1 0x7 DUP2 ADD SLOAD SWAP1 PUSH1 0xE PUSH1 0xD DUP3 ADD SLOAD SWAP2 ADD SLOAD SWAP2 PUSH2 0x3E7 PUSH1 0x40 MLOAD DUP1 SWAP6 PUSH2 0x145A JUMP JUMPDEST PUSH1 0x20 DUP5 ADD MSTORE PUSH1 0x40 DUP4 ADD MSTORE PUSH1 0x60 DUP3 ADD MSTORE RETURN JUMPDEST POP CALLVALUE PUSH2 0x161 JUMPI DUP1 PUSH1 0x3 NOT CALLDATASIZE ADD SLT PUSH2 0x161 JUMPI SLOAD PUSH1 0x40 MLOAD PUSH1 0x1 PUSH1 0x1 PUSH1 0xA0 SHL SUB SWAP1 SWAP2 AND DUP2 MSTORE PUSH1 0x20 SWAP1 RETURN JUMPDEST POP PUSH1 0x40 CALLDATASIZE PUSH1 0x3 NOT ADD SLT PUSH2 0x161 JUMPI PUSH1 0x4 CALLDATALOAD PUSH1 0x24 DUP1 CALLDATALOAD SWAP1 PUSH1 0x1 PUSH1 0x1 PUSH1 0xA0 SHL SUB DUP1 DUP4 AND DUP1 DUP5 SUB PUSH2 0x6D1 JUMPI PUSH1 0x1 DUP6 LT PUSH2 0x698 JUMPI PUSH2 0x3E8 DUP6 GT PUSH2 0x65F JUMPI ISZERO PUSH2 0x627 JUMPI PUSH8 0xDE0B6B3A7640000 SWAP3 DUP4 DUP6 MUL SWAP4 DUP6 DUP6 DIV EQ DUP6 ISZERO OR ISZERO PUSH2 0x614 JUMPI PUSH9 0x1B1AE4D6E2EF500000 DUP6 MUL DUP5 DUP2 DIV PUSH2 0x1F4 EQ DUP6 ISZERO OR ISZERO PUSH2 0x601 JUMPI PUSH2 0x2710 SWAP1 DIV SWAP3 DUP4 DUP6 SUB SWAP1 DUP6 DUP3 GT PUSH2 0x5EF JUMPI POP DUP7 SWAP1 PUSH2 0x4B1 DUP8 PUSH1 0x2 SLOAD PUSH2 0x151B JUMP JUMPDEST PUSH1 0x2 SSTORE PUSH2 0x4C0 DUP7 PUSH1 0x3 SLOAD PUSH2 0x151B JUMP JUMPDEST PUSH1 0x3 SSTORE DUP4 PUSH1 0x1 SLOAD AND SWAP1 DUP2 EXTCODESIZE ISZERO PUSH2 0x5EB JUMPI PUSH1 0x40 MLOAD PUSH4 0x20E224BB PUSH1 0xE2 SHL DUP1 DUP3 MSTORE PUSH1 0x1 PUSH1 0x1 PUSH1 0xA0 SHL SUB SWAP6 SWAP1 SWAP6 AND PUSH1 0x4 DUP3 ADD MSTORE PUSH1 0x24 DUP2 ADD SWAP2 SWAP1 SWAP2 MSTORE SWAP2 SWAP1 DUP3 SWAP1 PUSH1 0x44 SWAP1 DUP3 SWAP1 DUP5 SWAP1 GAS CALL DUP1 ISZERO PUSH2 0x5E0 JUMPI PUSH2 0x5CB JUMPI JUMPDEST POP SWAP1 DUP6 SWAP2 DUP4 PUSH2 0x55A JUMPI JUMPDEST POP POP PUSH1 0x40 DUP1 MLOAD SWAP5 DUP6 MSTORE PUSH1 0x20 DUP6 ADD SWAP4 SWAP1 SWAP4 MSTORE POP SWAP1 DUP3 ADD MSTORE CALLER SWAP1 PUSH32 0x3168CA6B1E292883C0668008556FB887F7CCE92BCD3C1C57C15A34DCDCCD5892 SWAP1 PUSH1 0x60 SWAP1 LOG2 DUP1 RETURN JUMPDEST DUP2 PUSH1 0x1 SLOAD AND SWAP2 DUP4 SLOAD AND SWAP1 DUP3 EXTCODESIZE ISZERO PUSH2 0x5BC JUMPI PUSH1 0x40 MLOAD SWAP1 DUP2 MSTORE PUSH1 0x1 PUSH1 0x1 PUSH1 0xA0 SHL SUB SWAP2 SWAP1 SWAP2 AND PUSH1 0x4 DUP3 ADD MSTORE PUSH1 0x24 DUP2 ADD DUP5 SWAP1 MSTORE SWAP1 DUP3 SWAP1 DUP3 SWAP1 PUSH1 0x44 SWAP1 DUP3 SWAP1 DUP5 SWAP1 GAS CALL DUP1 ISZERO PUSH2 0x5C0 JUMPI PUSH2 0x5A8 JUMPI JUMPDEST DUP1 PUSH2 0x519 JUMP JUMPDEST PUSH2 0x5B1 SWAP1 PUSH2 0x1320 JUMP JUMPDEST PUSH2 0x5BC JUMPI DUP4 CODESIZE PUSH2 0x5A2 JUMP JUMPDEST DUP4 DUP1 REVERT JUMPDEST PUSH1 0x40 MLOAD RETURNDATASIZE DUP5 DUP3 RETURNDATACOPY RETURNDATASIZE SWAP1 REVERT JUMPDEST PUSH2 0x5D8 SWAP1 SWAP7 SWAP2 SWAP3 SWAP7 PUSH2 0x1320 JUMP JUMPDEST SWAP5 SWAP1 CODESIZE PUSH2 0x50F JUMP JUMPDEST PUSH1 0x40 MLOAD RETURNDATASIZE DUP10 DUP3 RETURNDATACOPY RETURNDATASIZE SWAP1 REVERT JUMPDEST DUP3 DUP1 REVERT JUMPDEST PUSH4 0x4E487B71 PUSH1 0xE0 SHL DUP9 MSTORE PUSH1 0x11 PUSH1 0x4 MSTORE DUP8 REVERT JUMPDEST PUSH4 0x4E487B71 PUSH1 0xE0 SHL DUP8 MSTORE PUSH1 0x11 PUSH1 0x4 MSTORE DUP4 DUP8 REVERT JUMPDEST PUSH4 0x4E487B71 PUSH1 0xE0 SHL DUP7 MSTORE PUSH1 0x11 PUSH1 0x4 MSTORE DUP3 DUP7 REVERT JUMPDEST PUSH1 0x40 MLOAD PUSH3 0x461BCD PUSH1 0xE5 SHL DUP2 MSTORE PUSH1 0x20 PUSH1 0x4 DUP3 ADD MSTORE PUSH1 0x11 DUP2 DUP5 ADD MSTORE PUSH17 0x125B9D985B1A59081C9958DA5C1A595B9D PUSH1 0x7A SHL PUSH1 0x44 DUP3 ADD MSTORE PUSH1 0x64 SWAP1 REVERT JUMPDEST PUSH1 0x40 MLOAD PUSH3 0x461BCD PUSH1 0xE5 SHL DUP2 MSTORE PUSH1 0x20 PUSH1 0x4 DUP3 ADD MSTORE PUSH1 0x12 DUP2 DUP6 ADD MSTORE PUSH18 0x446F6E6174696F6E20746F6F206C61726765 PUSH1 0x70 SHL PUSH1 0x44 DUP3 ADD MSTORE PUSH1 0x64 SWAP1 REVERT JUMPDEST PUSH1 0x40 MLOAD PUSH3 0x461BCD PUSH1 0xE5 SHL DUP2 MSTORE PUSH1 0x20 PUSH1 0x4 DUP3 ADD MSTORE PUSH1 0x12 DUP2 DUP6 ADD MSTORE PUSH18 0x111BDB985D1A5BDB881D1BDBC81CDB585B1B PUSH1 0x72 SHL PUSH1 0x44 DUP3 ADD MSTORE PUSH1 0x64 SWAP1 REVERT JUMPDEST DUP6 DUP1 REVERT JUMPDEST POP CALLVALUE PUSH2 0x161 JUMPI DUP1 PUSH1 0x3 NOT CALLDATASIZE ADD SLT PUSH2 0x161 JUMPI PUSH2 0x6EE PUSH2 0x14EF JUMP JUMPDEST DUP1 SLOAD PUSH1 0x1 PUSH1 0x1 PUSH1 0xA0 SHL SUB NOT DUP2 AND DUP3 SSTORE DUP2 SWAP1 PUSH1 0x1 PUSH1 0x1 PUSH1 0xA0 SHL SUB AND PUSH32 0x8BE0079C531659141344CD1FD0A4F28419497F9722A3DAAFE3B4186F6B6457E0 DUP3 DUP1 LOG3 DUP1 RETURN JUMPDEST POP CALLVALUE PUSH2 0x161 JUMPI DUP1 PUSH1 0x3 NOT CALLDATASIZE ADD SLT PUSH2 0x161 JUMPI PUSH1 0x20 PUSH1 0x6 SLOAD PUSH1 0x40 MLOAD SWAP1 DUP2 MSTORE RETURN JUMPDEST POP CALLVALUE PUSH2 0x161 JUMPI PUSH1 0x20 CALLDATASIZE PUSH1 0x3 NOT ADD SLT PUSH2 0x161 JUMPI PUSH2 0x767 PUSH2 0x14D9 JUMP JUMPDEST PUSH2 0x76F PUSH2 0x14EF JUMP JUMPDEST PUSH1 0x1 PUSH1 0x1 PUSH1 0xA0 SHL SUB AND DUP1 DUP3 MSTORE PUSH1 0x5 PUSH1 0x20 MSTORE PUSH1 0x40 DUP3 KECCAK256 SLOAD PUSH1 0xFF AND PUSH2 0x7A5 JUMPI DUP2 MSTORE PUSH1 0x5 PUSH1 0x20 MSTORE PUSH1 0x40 DUP2 KECCAK256 DUP1 SLOAD PUSH1 0xFF NOT AND PUSH1 0x1 OR SWAP1 SSTORE DUP1 RETURN JUMPDEST PUSH1 0x40 MLOAD PUSH3 0x461BCD PUSH1 0xE5 SHL DUP2 MSTORE PUSH1 0x20 PUSH1 0x4 DUP3 ADD MSTORE PUSH1 0x13 PUSH1 0x24 DUP3 ADD MSTORE PUSH19 0x20B63932B0B23C9030903B30B634B230BA37B9 PUSH1 0x69 SHL PUSH1 0x44 DUP3 ADD MSTORE PUSH1 0x64 SWAP1 REVERT JUMPDEST POP CALLVALUE PUSH2 0x161 JUMPI DUP1 PUSH1 0x3 NOT CALLDATASIZE ADD SLT PUSH2 0x161 JUMPI PUSH1 0x20 PUSH1 0x40 MLOAD PUSH2 0x3E8 DUP2 MSTORE RETURN JUMPDEST POP CALLVALUE PUSH2 0x161 JUMPI PUSH1 0x40 CALLDATASIZE PUSH1 0x3 NOT ADD SLT PUSH2 0x161 JUMPI PUSH1 0x4 CALLDATALOAD PUSH1 0x24 DUP1 CALLDATALOAD SWAP1 DUP2 ISZERO ISZERO DUP1 DUP4 SUB PUSH2 0xC3E JUMPI DUP4 DUP6 MSTORE PUSH1 0x20 SWAP3 PUSH1 0x7 DUP5 MSTORE PUSH1 0x40 DUP7 KECCAK256 PUSH1 0xFF PUSH1 0x6 DUP3 ADD SLOAD AND PUSH1 0x5 DUP2 LT ISZERO PUSH2 0xC2B JUMPI PUSH1 0x2 SUB PUSH2 0xBE7 JUMPI PUSH1 0xE DUP2 ADD SLOAD TIMESTAMP GT PUSH2 0xBAD JUMPI PUSH1 0xA DUP2 ADD SWAP2 CALLER DUP9 MSTORE DUP3 DUP7 MSTORE PUSH1 0xFF PUSH1 0x40 DUP10 KECCAK256 SLOAD AND PUSH2 0xB79 JUMPI PUSH1 0x1 SLOAD PUSH1 0x40 MLOAD PUSH4 0x70A08231 PUSH1 0xE0 SHL DUP2 MSTORE CALLER PUSH1 0x4 DUP3 ADD MSTORE SWAP1 PUSH1 0x1 PUSH1 0x1 PUSH1 0xA0 SHL SUB AND DUP8 DUP3 DUP9 DUP2 DUP5 GAS STATICCALL SWAP2 DUP3 ISZERO PUSH2 0xAFB JUMPI DUP11 SWAP3 PUSH2 0xB4A JUMPI JUMPDEST POP PUSH9 0x56BC75E2D63100000 DUP3 LT PUSH2 0xB06 JUMPI SWAP1 DUP8 PUSH1 0x4 SWAP3 PUSH1 0x40 MLOAD SWAP4 DUP5 DUP1 SWAP3 PUSH4 0x18160DDD PUSH1 0xE0 SHL DUP3 MSTORE GAS STATICCALL SWAP2 DUP3 ISZERO PUSH2 0xAFB JUMPI DUP11 SWAP3 PUSH2 0xAC8 JUMPI JUMPDEST POP PUSH2 0x2710 SWAP1 DUP2 DUP2 MUL SWAP2 DUP2 DUP4 DIV EQ SWAP1 ISZERO OR ISZERO PUSH2 0xAB5 JUMPI DUP2 ISZERO PUSH2 0xAA2 JUMPI DIV SWAP3 PUSH1 0x40 MLOAD SWAP1 PUSH1 0x60 DUP3 ADD DUP3 DUP2 LT PUSH8 0xFFFFFFFFFFFFFFFF DUP3 GT OR PUSH2 0xA8F JUMPI DUP9 PUSH2 0x967 SWAP4 SWAP3 PUSH2 0x94B PUSH1 0x40 DUP15 PUSH1 0x2 SWAP6 DUP3 MSTORE PUSH1 0x1 DUP8 MSTORE DUP5 DUP8 ADD SWAP4 DUP12 DUP6 MSTORE DUP3 DUP9 ADD SWAP6 DUP14 DUP8 MSTORE CALLER DUP4 MSTORE MSTORE KECCAK256 SWAP5 MLOAD ISZERO ISZERO DUP6 SWAP1 PUSH1 0xFF DUP1 NOT DUP4 SLOAD AND SWAP2 ISZERO ISZERO AND OR SWAP1 SSTORE JUMP JUMPDEST MLOAD PUSH1 0x1 DUP5 ADD SSTORE MLOAD ISZERO ISZERO SWAP2 ADD SWAP1 PUSH1 0xFF DUP1 NOT DUP4 SLOAD AND SWAP2 ISZERO ISZERO AND OR SWAP1 SSTORE JUMP JUMPDEST ISZERO PUSH2 0xA7A JUMPI PUSH1 0xB ADD PUSH2 0x97A DUP3 DUP3 SLOAD PUSH2 0x151B JUMP JUMPDEST SWAP1 SSTORE JUMPDEST PUSH1 0x40 MLOAD SWAP2 DUP3 MSTORE DUP4 DUP3 ADD MSTORE DUP4 PUSH32 0xCBDF6214089CBA887ECBF35A0B6A734589959C9763342C756BB2A80CA2BC9F6E PUSH1 0x40 CALLER SWAP4 LOG3 DUP3 DUP5 MSTORE PUSH1 0x7 DUP3 MSTORE PUSH1 0x40 DUP5 KECCAK256 SWAP1 PUSH1 0xE DUP3 ADD SLOAD TIMESTAMP GT PUSH2 0x9C9 JUMPI DUP5 DUP1 RETURN JUMPDEST PUSH1 0xB DUP3 ADD SLOAD PUSH1 0xC DUP4 ADD SLOAD SWAP1 PUSH2 0xBB8 PUSH2 0x9E1 DUP4 DUP4 PUSH2 0x151B JUMP JUMPDEST LT ISZERO PUSH2 0x9EE JUMPI JUMPDEST POP POP DUP5 DUP1 RETURN JUMPDEST GT ISZERO PUSH2 0xA70 JUMPI PUSH1 0x6 PUSH1 0x4 SWAP3 JUMPDEST ADD SWAP4 PUSH32 0xF75C354D0772E6386C514DE8E03BE6B7FB27FE941335CAA779EE1B9F34FE0C1E PUSH1 0x40 DUP7 SLOAD SWAP6 PUSH2 0xA3D DUP3 MLOAD SWAP2 PUSH2 0xA35 DUP4 PUSH1 0xFF DUP12 AND PUSH2 0x145A JUMP JUMPDEST DUP3 ADD DUP8 PUSH2 0x145A JUMP JUMPDEST LOG2 PUSH1 0x5 DUP3 LT ISZERO PUSH2 0xA5E JUMPI POP PUSH1 0xFF AND SWAP1 PUSH1 0xFF NOT AND OR SWAP1 SSTORE CODESIZE DUP1 DUP1 DUP1 DUP1 DUP1 PUSH2 0x9E8 JUMP JUMPDEST PUSH4 0x4E487B71 PUSH1 0xE0 SHL DUP6 MSTORE PUSH1 0x21 PUSH1 0x4 MSTORE DUP5 REVERT JUMPDEST PUSH1 0x6 PUSH1 0x3 SWAP3 PUSH2 0x9FA JUMP JUMPDEST PUSH1 0xC ADD PUSH2 0xA88 DUP3 DUP3 SLOAD PUSH2 0x151B JUMP JUMPDEST SWAP1 SSTORE PUSH2 0x97D JUMP JUMPDEST PUSH4 0x4E487B71 PUSH1 0xE0 SHL DUP12 MSTORE PUSH1 0x41 PUSH1 0x4 MSTORE DUP8 DUP12 REVERT JUMPDEST PUSH4 0x4E487B71 PUSH1 0xE0 SHL DUP11 MSTORE PUSH1 0x12 PUSH1 0x4 MSTORE DUP7 DUP11 REVERT JUMPDEST PUSH4 0x4E487B71 PUSH1 0xE0 SHL DUP11 MSTORE PUSH1 0x11 PUSH1 0x4 MSTORE DUP7 DUP11 REVERT JUMPDEST SWAP1 SWAP2 POP DUP8 DUP2 DUP2 RETURNDATASIZE DUP4 GT PUSH2 0xAF4 JUMPI JUMPDEST PUSH2 0xAE0 DUP2 DUP4 PUSH2 0x134A JUMP JUMPDEST DUP2 ADD SUB SLT PUSH2 0xAF0 JUMPI MLOAD SWAP1 CODESIZE PUSH2 0x8D5 JUMP JUMPDEST DUP10 DUP1 REVERT JUMPDEST POP RETURNDATASIZE PUSH2 0xAD6 JUMP JUMPDEST PUSH1 0x40 MLOAD RETURNDATASIZE DUP13 DUP3 RETURNDATACOPY RETURNDATASIZE SWAP1 REVERT JUMPDEST PUSH1 0x40 MLOAD PUSH3 0x461BCD PUSH1 0xE5 SHL DUP2 MSTORE PUSH1 0x4 DUP2 ADD DUP10 SWAP1 MSTORE PUSH1 0x19 DUP2 DUP10 ADD MSTORE PUSH32 0x496E73756666696369656E7420766F74696E6720706F77657200000000000000 PUSH1 0x44 DUP3 ADD MSTORE PUSH1 0x64 SWAP1 REVERT JUMPDEST SWAP1 SWAP2 POP DUP8 DUP2 DUP2 RETURNDATASIZE DUP4 GT PUSH2 0xB72 JUMPI JUMPDEST PUSH2 0xB62 DUP2 DUP4 PUSH2 0x134A JUMP JUMPDEST DUP2 ADD SUB SLT PUSH2 0xAF0 JUMPI MLOAD SWAP1 CODESIZE PUSH2 0x89E JUMP JUMPDEST POP RETURNDATASIZE PUSH2 0xB58 JUMP JUMPDEST PUSH1 0x40 MLOAD PUSH3 0x461BCD PUSH1 0xE5 SHL DUP2 MSTORE PUSH1 0x4 DUP2 ADD DUP8 SWAP1 MSTORE PUSH1 0xD DUP2 DUP8 ADD MSTORE PUSH13 0x105B1C9958591E481D9BDD1959 PUSH1 0x9A SHL PUSH1 0x44 DUP3 ADD MSTORE PUSH1 0x64 SWAP1 REVERT JUMPDEST PUSH1 0x40 MLOAD PUSH3 0x461BCD PUSH1 0xE5 SHL DUP2 MSTORE PUSH1 0x4 DUP2 ADD DUP7 SWAP1 MSTORE PUSH1 0x13 DUP2 DUP7 ADD MSTORE PUSH19 0x159BDD1A5B99C81C195C9A5BD908195B991959 PUSH1 0x6A SHL PUSH1 0x44 DUP3 ADD MSTORE PUSH1 0x64 SWAP1 REVERT JUMPDEST PUSH1 0x40 MLOAD PUSH3 0x461BCD PUSH1 0xE5 SHL DUP2 MSTORE PUSH1 0x4 DUP2 ADD DUP7 SWAP1 MSTORE PUSH1 0x1B DUP2 DUP7 ADD MSTORE PUSH32 0x50726F6A656374206E6F7420696E20766F74696E672070686173650000000000 PUSH1 0x44 DUP3 ADD MSTORE PUSH1 0x64 SWAP1 REVERT JUMPDEST PUSH4 0x4E487B71 PUSH1 0xE0 SHL DUP9 MSTORE PUSH1 0x21 PUSH1 0x4 MSTORE DUP5 DUP9 REVERT JUMPDEST DUP5 DUP1 REVERT JUMPDEST POP CALLVALUE PUSH2 0x161 JUMPI PUSH1 0x20 CALLDATASIZE PUSH1 0x3 NOT ADD SLT PUSH2 0x161 JUMPI PUSH2 0xC5C PUSH2 0x14D9 JUMP JUMPDEST PUSH2 0xC64 PUSH2 0x14EF JUMP JUMPDEST PUSH1 0x1 PUSH1 0x1 PUSH1 0xA0 SHL SUB AND DUP1 DUP3 MSTORE PUSH1 0x5 PUSH1 0x20 MSTORE PUSH1 0x40 DUP3 KECCAK256 SLOAD PUSH1 0xFF AND ISZERO PUSH2 0xC98 JUMPI DUP2 MSTORE PUSH1 0x5 PUSH1 0x20 MSTORE PUSH1 0x40 DUP2 KECCAK256 DUP1 SLOAD PUSH1 0xFF NOT AND SWAP1 SSTORE DUP1 RETURN JUMPDEST PUSH1 0x40 MLOAD PUSH3 0x461BCD PUSH1 0xE5 SHL DUP2 MSTORE PUSH1 0x20 PUSH1 0x4 DUP3 ADD MSTORE PUSH1 0xF PUSH1 0x24 DUP3 ADD MSTORE PUSH15 0x2737BA1030903B30B634B230BA37B9 PUSH1 0x89 SHL PUSH1 0x44 DUP3 ADD MSTORE PUSH1 0x64 SWAP1 REVERT JUMPDEST POP CALLVALUE PUSH2 0x161 JUMPI DUP1 PUSH1 0x3 NOT CALLDATASIZE ADD SLT PUSH2 0x161 JUMPI PUSH1 0x20 PUSH1 0x4 SLOAD PUSH1 0x40 MLOAD SWAP1 DUP2 MSTORE RETURN JUMPDEST POP CALLVALUE PUSH2 0x161 JUMPI DUP1 PUSH1 0x3 NOT CALLDATASIZE ADD SLT PUSH2 0x161 JUMPI PUSH1 0x20 PUSH1 0x8 SLOAD PUSH1 0x40 MLOAD SWAP1 DUP2 MSTORE RETURN JUMPDEST POP CALLVALUE PUSH2 0x161 JUMPI PUSH1 0x80 CALLDATASIZE PUSH1 0x3 NOT ADD SLT PUSH2 0x161 JUMPI PUSH1 0x4 CALLDATALOAD PUSH8 0xFFFFFFFFFFFFFFFF DUP2 GT PUSH2 0x11AB JUMPI PUSH2 0xD3D SWAP1 CALLDATASIZE SWAP1 PUSH1 0x4 ADD PUSH2 0x147D JUMP JUMPDEST PUSH1 0x24 CALLDATALOAD PUSH8 0xFFFFFFFFFFFFFFFF DUP2 GT PUSH2 0x5EB JUMPI PUSH2 0xD5D SWAP1 CALLDATASIZE SWAP1 PUSH1 0x4 ADD PUSH2 0x147D JUMP JUMPDEST SWAP2 PUSH1 0x44 CALLDATALOAD PUSH8 0xFFFFFFFFFFFFFFFF DUP2 GT PUSH2 0x11AB JUMPI PUSH2 0xD7E SWAP1 CALLDATASIZE SWAP1 PUSH1 0x4 ADD PUSH2 0x147D JUMP JUMPDEST SWAP3 DUP3 MLOAD ISZERO PUSH2 0x1170 JUMPI PUSH1 0x40 MLOAD PUSH1 0x20 DUP2 DUP6 MLOAD PUSH2 0xD9B DUP2 DUP4 DUP6 DUP11 ADD PUSH2 0x1412 JUMP JUMPDEST DUP2 ADD PUSH1 0x9 DUP2 MSTORE SUB ADD SWAP1 KECCAK256 SLOAD PUSH2 0x112B JUMPI PUSH1 0x8 SLOAD SWAP3 PUSH1 0x0 NOT DUP5 EQ PUSH2 0x1117 JUMPI PUSH1 0x1 DUP5 ADD PUSH1 0x8 SSTORE PUSH1 0x1 DUP5 ADD DUP4 MSTORE PUSH1 0x7 PUSH1 0x20 MSTORE PUSH1 0x40 DUP4 KECCAK256 SWAP5 DUP3 MLOAD PUSH8 0xFFFFFFFFFFFFFFFF DUP2 GT PUSH2 0x1055 JUMPI PUSH2 0xDE9 DUP8 SLOAD PUSH2 0x12E6 JUMP JUMPDEST PUSH1 0x1F DUP2 GT PUSH2 0x10D6 JUMPI JUMPDEST POP DUP1 PUSH1 0x20 PUSH1 0x1F DUP3 GT PUSH1 0x1 EQ PUSH2 0x1074 JUMPI DUP7 SWAP2 PUSH2 0x1069 JUMPI JUMPDEST POP DUP2 PUSH1 0x1 SHL SWAP2 PUSH1 0x0 NOT SWAP1 PUSH1 0x3 SHL SHR NOT AND OR DUP7 SSTORE JUMPDEST DUP1 MLOAD SWAP1 PUSH8 0xFFFFFFFFFFFFFFFF DUP3 GT PUSH2 0x1055 JUMPI DUP2 SWAP1 PUSH2 0xE3D PUSH1 0x1 DUP10 ADD SLOAD PUSH2 0x12E6 JUMP JUMPDEST PUSH1 0x1F DUP2 GT PUSH2 0x1005 JUMPI JUMPDEST POP PUSH1 0x20 SWAP1 PUSH1 0x1F DUP4 GT PUSH1 0x1 EQ PUSH2 0xF9B JUMPI DUP7 SWAP3 PUSH2 0xF90 JUMPI JUMPDEST POP POP DUP2 PUSH1 0x1 SHL SWAP2 PUSH1 0x0 NOT SWAP1 PUSH1 0x3 SHL SHR NOT AND OR PUSH1 0x1 DUP7 ADD SSTORE JUMPDEST PUSH1 0x64 CALLDATALOAD SWAP1 DUP2 PUSH1 0x3 DUP8 ADD SSTORE PUSH1 0x2 DUP7 ADD CALLER PUSH12 0xFFFFFFFFFFFFFFFFFFFFFFFF PUSH1 0xA0 SHL DUP3 SLOAD AND OR SWAP1 SSTORE PUSH1 0x6 DUP7 ADD PUSH1 0x2 PUSH1 0xFF NOT DUP3 SLOAD AND OR SWAP1 SSTORE TIMESTAMP PUSH1 0x7 DUP8 ADD SSTORE TIMESTAMP PUSH1 0xD DUP8 ADD SSTORE PUSH3 0x93A80 TIMESTAMP ADD DUP1 TIMESTAMP GT PUSH2 0xF7C JUMPI PUSH1 0xE PUSH1 0x20 SWAP8 ADD SSTORE DUP6 PUSH2 0xEDC PUSH1 0x40 MLOAD SWAP3 DUP4 DUP2 MLOAD SWAP4 DUP5 SWAP3 ADD PUSH2 0x1412 JUMP JUMPDEST DUP2 ADD SWAP1 PUSH1 0x9 DUP3 MSTORE DUP7 DUP2 PUSH1 0x1 DUP9 ADD SWAP4 SUB ADD SWAP1 KECCAK256 SSTORE PUSH2 0xF04 PUSH1 0x40 MLOAD SWAP3 PUSH1 0x60 DUP5 MSTORE PUSH1 0x60 DUP5 ADD SWAP1 PUSH2 0x1435 JUMP JUMPDEST SWAP1 DUP6 DUP4 ADD MSTORE PUSH1 0x2 PUSH1 0x40 DUP4 ADD MSTORE PUSH32 0x50094398B94BD032F2883F60FCF80BC2D2F633C5BCAF147BB1BC23CB6D48EE70 CALLER SWAP3 DUP1 PUSH1 0x1 DUP8 ADD SWAP4 SUB SWAP1 LOG3 PUSH1 0x40 MLOAD SWAP1 DUP2 MSTORE PUSH1 0x2 DUP4 DUP3 ADD MSTORE PUSH32 0xF75C354D0772E6386C514DE8E03BE6B7FB27FE941335CAA779EE1B9F34FE0C1E PUSH1 0x40 PUSH1 0x1 DUP5 ADD SWAP3 LOG2 PUSH1 0x1 PUSH1 0x40 MLOAD SWAP2 ADD DUP2 MSTORE RETURN JUMPDEST PUSH4 0x4E487B71 PUSH1 0xE0 SHL DUP6 MSTORE PUSH1 0x11 PUSH1 0x4 MSTORE PUSH1 0x24 DUP6 REVERT JUMPDEST ADD MLOAD SWAP1 POP CODESIZE DUP1 PUSH2 0xE5C JUMP JUMPDEST PUSH1 0x1 DUP10 ADD DUP8 MSTORE PUSH1 0x20 DUP8 KECCAK256 SWAP3 POP PUSH1 0x1F NOT DUP5 AND DUP8 JUMPDEST DUP2 DUP2 LT PUSH2 0xFED JUMPI POP SWAP1 DUP5 PUSH1 0x1 SWAP6 SWAP5 SWAP4 SWAP3 LT PUSH2 0xFD4 JUMPI JUMPDEST POP POP POP DUP2 SHL ADD PUSH1 0x1 DUP7 ADD SSTORE PUSH2 0xE74 JUMP JUMPDEST ADD MLOAD PUSH1 0x0 NOT PUSH1 0xF8 DUP5 PUSH1 0x3 SHL AND SHR NOT AND SWAP1 SSTORE CODESIZE DUP1 DUP1 PUSH2 0xFC4 JUMP JUMPDEST SWAP3 SWAP4 PUSH1 0x20 PUSH1 0x1 DUP2 SWAP3 DUP8 DUP7 ADD MLOAD DUP2 SSTORE ADD SWAP6 ADD SWAP4 ADD PUSH2 0xFAE JUMP JUMPDEST SWAP1 SWAP2 POP PUSH1 0x1 DUP9 ADD DUP7 MSTORE PUSH1 0x20 DUP7 KECCAK256 PUSH1 0x1F DUP5 ADD PUSH1 0x5 SHR DUP2 ADD PUSH1 0x20 DUP6 LT PUSH2 0x104E JUMPI JUMPDEST SWAP1 DUP5 SWAP4 SWAP3 SWAP2 JUMPDEST PUSH1 0x1F DUP4 ADD PUSH1 0x5 SHR DUP3 ADD DUP2 LT PUSH2 0x1040 JUMPI POP POP PUSH2 0xE46 JUMP JUMPDEST DUP9 DUP2 SSTORE DUP6 SWAP5 POP PUSH1 0x1 ADD PUSH2 0x102A JUMP JUMPDEST POP DUP1 PUSH2 0x1024 JUMP JUMPDEST PUSH4 0x4E487B71 PUSH1 0xE0 SHL DUP6 MSTORE PUSH1 0x41 PUSH1 0x4 MSTORE PUSH1 0x24 DUP6 REVERT JUMPDEST SWAP1 POP DUP5 ADD MLOAD CODESIZE PUSH2 0xE08 JUMP JUMPDEST DUP9 DUP8 MSTORE PUSH1 0x20 DUP8 KECCAK256 SWAP2 POP PUSH1 0x1F NOT DUP4 AND DUP8 JUMPDEST DUP2 DUP2 LT PUSH2 0x10BE JUMPI POP SWAP1 DUP4 PUSH1 0x1 SWAP5 SWAP4 SWAP3 LT PUSH2 0x10A5 JUMPI JUMPDEST POP POP DUP2 SHL ADD DUP7 SSTORE PUSH2 0xE1C JUMP JUMPDEST DUP7 ADD MLOAD PUSH1 0x0 NOT PUSH1 0xF8 DUP5 PUSH1 0x3 SHL AND SHR NOT AND SWAP1 SSTORE CODESIZE DUP1 PUSH2 0x1099 JUMP JUMPDEST SWAP2 SWAP3 PUSH1 0x20 PUSH1 0x1 DUP2 SWAP3 DUP7 DUP12 ADD MLOAD DUP2 SSTORE ADD SWAP5 ADD SWAP3 ADD PUSH2 0x1084 JUMP JUMPDEST DUP8 DUP7 MSTORE PUSH1 0x20 DUP7 KECCAK256 PUSH1 0x1F DUP4 ADD PUSH1 0x5 SHR DUP2 ADD PUSH1 0x20 DUP5 LT PUSH2 0x1110 JUMPI JUMPDEST PUSH1 0x1F DUP4 ADD PUSH1 0x5 SHR DUP3 ADD DUP2 LT PUSH2 0x1105 JUMPI POP POP PUSH2 0xDF2 JUMP JUMPDEST DUP8 DUP2 SSTORE PUSH1 0x1 ADD PUSH2 0x10EF JUMP JUMPDEST POP DUP1 PUSH2 0x10EF JUMP JUMPDEST PUSH4 0x4E487B71 PUSH1 0xE0 SHL DUP4 MSTORE PUSH1 0x11 PUSH1 0x4 MSTORE PUSH1 0x24 DUP4 REVERT JUMPDEST PUSH1 0x40 MLOAD PUSH3 0x461BCD PUSH1 0xE5 SHL DUP2 MSTORE PUSH1 0x20 PUSH1 0x4 DUP3 ADD MSTORE PUSH1 0x1A PUSH1 0x24 DUP3 ADD MSTORE PUSH32 0x50726F706F73616C20494420616C726561647920657869737473000000000000 PUSH1 0x44 DUP3 ADD MSTORE PUSH1 0x64 SWAP1 REVERT JUMPDEST PUSH1 0x40 MLOAD PUSH3 0x461BCD PUSH1 0xE5 SHL DUP2 MSTORE PUSH1 0x20 PUSH1 0x4 DUP3 ADD MSTORE PUSH1 0x13 PUSH1 0x24 DUP3 ADD MSTORE PUSH19 0x125B9D985B1A59081C1C9BDC1BDCD85B081251 PUSH1 0x6A SHL PUSH1 0x44 DUP3 ADD MSTORE PUSH1 0x64 SWAP1 REVERT JUMPDEST POP DUP1 REVERT JUMPDEST POP CALLVALUE PUSH2 0x161 JUMPI DUP1 PUSH1 0x3 NOT CALLDATASIZE ADD SLT PUSH2 0x161 JUMPI PUSH1 0x20 PUSH1 0x40 MLOAD PUSH9 0x56BC75E2D63100000 DUP2 MSTORE RETURN JUMPDEST POP CALLVALUE PUSH2 0x161 JUMPI PUSH1 0x20 CALLDATASIZE PUSH1 0x3 NOT ADD SLT PUSH2 0x161 JUMPI PUSH1 0x4 CALLDATALOAD DUP2 MSTORE PUSH1 0x7 PUSH1 0x20 MSTORE PUSH1 0x40 SWAP1 KECCAK256 PUSH2 0x11FC DUP2 PUSH2 0x136C JUMP JUMPDEST PUSH2 0x1208 PUSH1 0x1 DUP4 ADD PUSH2 0x136C JUMP JUMPDEST SWAP2 PUSH1 0x1 PUSH1 0xA0 SHL PUSH1 0x1 SWAP1 SUB PUSH1 0x2 DUP3 ADD SLOAD AND SWAP1 PUSH1 0x3 DUP2 ADD SLOAD SWAP1 PUSH1 0x4 DUP2 ADD SLOAD PUSH1 0x5 DUP3 ADD SLOAD PUSH1 0x6 DUP4 ADD SLOAD PUSH1 0xFF AND PUSH1 0x7 DUP5 ADD SLOAD PUSH1 0xB DUP6 ADD SLOAD SWAP2 PUSH1 0xC DUP7 ADD SLOAD SWAP4 PUSH1 0xD DUP8 ADD SLOAD SWAP6 PUSH1 0xE DUP9 ADD SLOAD SWAP8 PUSH1 0xF ADD SLOAD PUSH1 0xFF AND SWAP9 PUSH1 0x40 MLOAD SWAP13 DUP14 SWAP13 DUP14 PUSH2 0x1A0 SWAP1 DUP2 DUP2 MSTORE ADD PUSH2 0x126E SWAP2 PUSH2 0x1435 JUMP JUMPDEST DUP14 DUP2 SUB PUSH1 0x20 DUP16 ADD MSTORE PUSH2 0x127F SWAP2 PUSH2 0x1435 JUMP JUMPDEST SWAP11 PUSH1 0x40 DUP14 ADD MSTORE PUSH1 0x60 DUP13 ADD MSTORE PUSH1 0x80 DUP12 ADD MSTORE PUSH1 0xA0 DUP11 ADD MSTORE PUSH1 0xC0 DUP10 ADD PUSH2 0x12A1 SWAP2 PUSH2 0x145A JUMP JUMPDEST PUSH1 0xE0 DUP9 ADD MSTORE PUSH2 0x100 DUP8 ADD MSTORE PUSH2 0x120 DUP7 ADD MSTORE PUSH2 0x140 DUP6 ADD MSTORE PUSH2 0x160 DUP5 ADD MSTORE ISZERO ISZERO PUSH2 0x180 DUP4 ADD MSTORE SUB SWAP1 RETURN JUMPDEST SWAP1 POP CALLVALUE PUSH2 0x11AB JUMPI DUP2 PUSH1 0x3 NOT CALLDATASIZE ADD SLT PUSH2 0x11AB JUMPI PUSH1 0x20 SWAP1 PUSH1 0x3 SLOAD DUP2 MSTORE RETURN JUMPDEST SWAP1 PUSH1 0x1 DUP3 DUP2 SHR SWAP3 AND DUP1 ISZERO PUSH2 0x1316 JUMPI JUMPDEST PUSH1 0x20 DUP4 LT EQ PUSH2 0x1300 JUMPI JUMP JUMPDEST PUSH4 0x4E487B71 PUSH1 0xE0 SHL PUSH1 0x0 MSTORE PUSH1 0x22 PUSH1 0x4 MSTORE PUSH1 0x24 PUSH1 0x0 REVERT JUMPDEST SWAP2 PUSH1 0x7F AND SWAP2 PUSH2 0x12F5 JUMP JUMPDEST PUSH8 0xFFFFFFFFFFFFFFFF DUP2 GT PUSH2 0x1334 JUMPI PUSH1 0x40 MSTORE JUMP JUMPDEST PUSH4 0x4E487B71 PUSH1 0xE0 SHL PUSH1 0x0 MSTORE PUSH1 0x41 PUSH1 0x4 MSTORE PUSH1 0x24 PUSH1 0x0 REVERT JUMPDEST SWAP1 PUSH1 0x1F DUP1 NOT SWAP2 ADD AND DUP2 ADD SWAP1 DUP2 LT PUSH8 0xFFFFFFFFFFFFFFFF DUP3 GT OR PUSH2 0x1334 JUMPI PUSH1 0x40 MSTORE JUMP JUMPDEST SWAP1 PUSH1 0x40 MLOAD SWAP2 DUP3 PUSH1 0x0 DUP3 SLOAD SWAP3 PUSH2 0x1380 DUP5 PUSH2 0x12E6 JUMP JUMPDEST SWAP1 DUP2 DUP5 MSTORE PUSH1 0x1 SWAP5 DUP6 DUP2 AND SWAP1 DUP2 PUSH1 0x0 EQ PUSH2 0x13EF JUMPI POP PUSH1 0x1 EQ PUSH2 0x13AC JUMPI JUMPDEST POP POP PUSH2 0x13AA SWAP3 POP SUB DUP4 PUSH2 0x134A JUMP JUMPDEST JUMP JUMPDEST SWAP1 SWAP4 SWAP2 POP PUSH1 0x0 MSTORE PUSH1 0x20 SWAP1 DUP2 PUSH1 0x0 KECCAK256 SWAP4 PUSH1 0x0 SWAP2 JUMPDEST DUP2 DUP4 LT PUSH2 0x13D7 JUMPI POP POP PUSH2 0x13AA SWAP4 POP DUP3 ADD ADD CODESIZE DUP1 PUSH2 0x139C JUMP JUMPDEST DUP6 SLOAD DUP9 DUP5 ADD DUP6 ADD MSTORE SWAP5 DUP6 ADD SWAP5 DUP8 SWAP5 POP SWAP2 DUP4 ADD SWAP2 PUSH2 0x13BF JUMP JUMPDEST SWAP2 POP POP PUSH2 0x13AA SWAP5 POP PUSH1 0x20 SWAP3 POP PUSH1 0xFF NOT AND DUP3 DUP5 ADD MSTORE ISZERO ISZERO PUSH1 0x5 SHL DUP3 ADD ADD CODESIZE DUP1 PUSH2 0x139C JUMP JUMPDEST PUSH1 0x0 JUMPDEST DUP4 DUP2 LT PUSH2 0x1425 JUMPI POP POP PUSH1 0x0 SWAP2 ADD MSTORE JUMP JUMPDEST DUP2 DUP2 ADD MLOAD DUP4 DUP3 ADD MSTORE PUSH1 0x20 ADD PUSH2 0x1415 JUMP JUMPDEST SWAP1 PUSH1 0x20 SWAP2 PUSH2 0x144E DUP2 MLOAD DUP1 SWAP3 DUP2 DUP6 MSTORE DUP6 DUP1 DUP7 ADD SWAP2 ADD PUSH2 0x1412 JUMP JUMPDEST PUSH1 0x1F ADD PUSH1 0x1F NOT AND ADD ADD SWAP1 JUMP JUMPDEST SWAP1 PUSH1 0x5 DUP3 LT ISZERO PUSH2 0x1467 JUMPI MSTORE JUMP JUMPDEST PUSH4 0x4E487B71 PUSH1 0xE0 SHL PUSH1 0x0 MSTORE PUSH1 0x21 PUSH1 0x4 MSTORE PUSH1 0x24 PUSH1 0x0 REVERT JUMPDEST DUP2 PUSH1 0x1F DUP3 ADD SLT ISZERO PUSH2 0x14D4 JUMPI DUP1 CALLDATALOAD SWAP1 PUSH8 0xFFFFFFFFFFFFFFFF DUP3 GT PUSH2 0x1334 JUMPI PUSH1 0x40 MLOAD SWAP3 PUSH2 0x14B2 PUSH1 0x1F DUP5 ADD PUSH1 0x1F NOT AND PUSH1 0x20 ADD DUP6 PUSH2 0x134A JUMP JUMPDEST DUP3 DUP5 MSTORE PUSH1 0x20 DUP4 DUP4 ADD ADD GT PUSH2 0x14D4 JUMPI DUP2 PUSH1 0x0 SWAP3 PUSH1 0x20 DUP1 SWAP4 ADD DUP4 DUP7 ADD CALLDATACOPY DUP4 ADD ADD MSTORE SWAP1 JUMP JUMPDEST PUSH1 0x0 DUP1 REVERT JUMPDEST PUSH1 0x4 CALLDATALOAD SWAP1 PUSH1 0x1 PUSH1 0x1 PUSH1 0xA0 SHL SUB DUP3 AND DUP3 SUB PUSH2 0x14D4 JUMPI JUMP JUMPDEST PUSH1 0x0 SLOAD PUSH1 0x1 PUSH1 0x1 PUSH1 0xA0 SHL SUB AND CALLER SUB PUSH2 0x1503 JUMPI JUMP JUMPDEST PUSH1 0x40 MLOAD PUSH4 0x118CDAA7 PUSH1 0xE0 SHL DUP2 MSTORE CALLER PUSH1 0x4 DUP3 ADD MSTORE PUSH1 0x24 SWAP1 REVERT JUMPDEST SWAP2 SWAP1 DUP3 ADD DUP1 SWAP3 GT PUSH2 0x1528 JUMPI JUMP JUMPDEST PUSH4 0x4E487B71 PUSH1 0xE0 SHL PUSH1 0x0 MSTORE PUSH1 0x11 PUSH1 0x4 MSTORE PUSH1 0x24 PUSH1 0x0 REVERT INVALID LOG2 PUSH5 0x6970667358 0x22 SLT KECCAK256 SWAP2 0xA5 DUP11 0xE4 PUSH30 0xD7DEE95288E3FC27BC804D9CD18A2436AA943DF68B284D6AAC3AF464736F PUSH13 0x63430008140033000000000000 "},"methodIdentifiers":{"AUTO_VALIDATION_PERIOD()":"9acbbf22","DAO_FEE()":"e9e6a349","MAX_DONATION()":"4857317e","MIN_DONATION()":"db45810e","MIN_VOTE_POWER()":"1e484e70","VOTE_COST()":"fe71b8ba","VOTING_PERIOD()":"b1610d7e","addValidator(address)":"4d238c8e","donate(uint256,address)":"8004f9fa","exchangeRate()":"3ba0b9a9","getProjectStatus(uint256)":"9675c009","getProjectVotes(uint256)":"fdfda408","minValidationsRequired()":"5006e854","owner()":"8da5cb5b","projectCount()":"36fbad26","projects(uint256)":"107046bd","proposalIdToProjectId(string)":"b7b5bfc1","removeValidator(address)":"40a141ff","renounceOwnership()":"715018a6","submitProject(string,string,string,uint256)":"2763b72a","totalValueLocked()":"ec18154e","totalWLD()":"0b5367ad","transferOwnership(address)":"f2fde38b","validators(address)":"fa52c7d8","voteOnProject(uint256,bool)":"4339e612","wldToken()":"9be3783d"}}}}}