{"contracts/WildlifeDAO.sol":{"WildlifeDAO":{"abi":[{"inputs":[{"internalType":"address","name":"_wldToken","type":"address"}],"stateMutability":"nonpayable","type":"constructor"},{"inputs":[{"internalType":"address","name":"owner","type":"address"}],"name":"OwnableInvalidOwner","type":"error"},{"inputs":[{"internalType":"address","name":"account","type":"address"}],"name":"OwnableUnauthorizedAccount","type":"error"},{"anonymous":false,"inputs":[{"indexed":true,"internalType":"address","name":"donor","type":"address"},{"indexed":false,"internalType":"uint256","name":"usdAmount","type":"uint256"},{"indexed":false,"internalType":"uint256","name":"wldMinted","type":"uint256"},{"indexed":false,"internalType":"uint256","name":"daoFeeAmount","type":"uint256"}],"name":"DonationReceived","type":"event"},{"anonymous":false,"inputs":[{"indexed":true,"internalType":"address","name":"previousOwner","type":"address"},{"indexed":true,"internalType":"address","name":"newOwner","type":"address"}],"name":"OwnershipTransferred","type":"event"},{"anonymous":false,"inputs":[{"indexed":true,"internalType":"uint256","name":"projectId","type":"uint256"},{"indexed":true,"internalType":"address","name":"contributor","type":"address"},{"indexed":false,"internalType":"uint256","name":"amount","type":"uint256"},{"indexed":false,"internalType":"uint256","name":"tokensBurned","type":"uint256"},{"indexed":false,"internalType":"uint256","name":"totalFunding","type":"uint256"}],"name":"ProjectContribution","type":"event"},{"anonymous":false,"inputs":[{"indexed":true,"internalType":"uint256","name":"projectId","type":"uint256"},{"indexed":false,"internalType":"enum WildlifeDAO.ProjectStatus","name":"oldStatus","type":"uint8"},{"indexed":false,"internalType":"enum WildlifeDAO.ProjectStatus","name":"newStatus","type":"uint8"}],"name":"ProjectStatusChanged","type":"event"},{"anonymous":false,"inputs":[{"indexed":true,"internalType":"uint256","name":"projectId","type":"uint256"},{"indexed":false,"internalType":"enum WildlifeDAO.ProjectStatus","name":"newStatus","type":"uint8"}],"name":"ProjectStatusUpdated","type":"event"},{"anonymous":false,"inputs":[{"indexed":true,"internalType":"uint256","name":"projectId","type":"uint256"},{"indexed":true,"internalType":"address","name":"proposer","type":"address"},{"indexed":false,"internalType":"string","name":"title","type":"string"},{"indexed":false,"internalType":"uint256","name":"fundingRequired","type":"uint256"}],"name":"ProjectSubmitted","type":"event"},{"anonymous":false,"inputs":[{"indexed":true,"internalType":"uint256","name":"projectId","type":"uint256"},{"indexed":true,"internalType":"address","name":"validator","type":"address"},{"indexed":false,"internalType":"uint256","name":"currentValidations","type":"uint256"}],"name":"ProjectValidated","type":"event"},{"anonymous":false,"inputs":[{"indexed":false,"internalType":"string","name":"proposalId","type":"string"},{"indexed":false,"internalType":"uint256","name":"projectId","type":"uint256"},{"indexed":false,"internalType":"address","name":"submitter","type":"address"},{"indexed":false,"internalType":"string","name":"title","type":"string"},{"indexed":false,"internalType":"uint256","name":"fundingRequired","type":"uint256"},{"indexed":false,"internalType":"string","name":"status","type":"string"}],"name":"ProposalSubmitted","type":"event"},{"anonymous":false,"inputs":[{"indexed":true,"internalType":"address","name":"validator","type":"address"}],"name":"ValidatorAdded","type":"event"},{"anonymous":false,"inputs":[{"indexed":true,"internalType":"address","name":"validator","type":"address"}],"name":"ValidatorRemoved","type":"event"},{"anonymous":false,"inputs":[{"indexed":true,"internalType":"uint256","name":"projectId","type":"uint256"},{"indexed":true,"internalType":"address","name":"voter","type":"address"},{"indexed":false,"internalType":"bool","name":"support","type":"bool"},{"indexed":false,"internalType":"uint256","name":"votingPower","type":"uint256"}],"name":"VoteCast","type":"event"},{"inputs":[],"name":"AUTO_VALIDATION_PERIOD","outputs":[{"internalType":"uint256","name":"","type":"uint256"}],"stateMutability":"view","type":"function"},{"inputs":[],"name":"DAO_FEE","outputs":[{"internalType":"uint256","name":"","type":"uint256"}],"stateMutability":"view","type":"function"},{"inputs":[],"name":"MAX_DONATION","outputs":[{"internalType":"uint256","name":"","type":"uint256"}],"stateMutability":"view","type":"function"},{"inputs":[],"name":"MIN_DONATION","outputs":[{"internalType":"uint256","name":"","type":"uint256"}],"stateMutability":"view","type":"function"},{"inputs":[],"name":"MIN_VOTE_POWER","outputs":[{"internalType":"uint256","name":"","type":"uint256"}],"stateMutability":"view","type":"function"},{"inputs":[],"name":"VOTE_COST","outputs":[{"internalType":"uint256","name":"","type":"uint256"}],"stateMutability":"view","type":"function"},{"inputs":[],"name":"VOTING_PERIOD","outputs":[{"internalType":"uint256","name":"","type":"uint256"}],"stateMutability":"view","type":"function"},{"inputs":[{"internalType":"address","name":"validator","type":"address"}],"name":"addValidator","outputs":[],"stateMutability":"nonpayable","type":"function"},{"inputs":[{"internalType":"uint256","name":"numVotes","type":"uint256"}],"name":"calculateVoteCost","outputs":[{"internalType":"uint256","name":"","type":"uint256"}],"stateMutability":"pure","type":"function"},{"inputs":[{"internalType":"uint256","name":"projectId","type":"uint256"}],"name":"checkAndAutoValidate","outputs":[],"stateMutability":"nonpayable","type":"function"},{"inputs":[{"internalType":"uint256","name":"_usdAmount","type":"uint256"},{"internalType":"address","name":"_recipient","type":"address"}],"name":"donate","outputs":[],"stateMutability":"payable","type":"function"},{"inputs":[],"name":"exchangeRate","outputs":[{"internalType":"uint256","name":"","type":"uint256"}],"stateMutability":"view","type":"function"},{"inputs":[{"internalType":"string","name":"proposalId","type":"string"}],"name":"getProjectByProposalId","outputs":[{"internalType":"uint256","name":"projectId","type":"uint256"},{"internalType":"string","name":"title","type":"string"},{"internalType":"address","name":"proposer","type":"address"},{"internalType":"enum WildlifeDAO.ProjectStatus","name":"status","type":"uint8"}],"stateMutability":"view","type":"function"},{"inputs":[{"internalType":"uint256","name":"projectId","type":"uint256"}],"name":"getProjectVotes","outputs":[{"internalType":"uint256","name":"forVotes","type":"uint256"},{"internalType":"uint256","name":"againstVotes","type":"uint256"},{"internalType":"uint256","name":"votingEndTime","type":"uint256"}],"stateMutability":"view","type":"function"},{"inputs":[{"internalType":"string","name":"proposalId","type":"string"}],"name":"getProposalStatus","outputs":[{"internalType":"uint256","name":"projectId","type":"uint256"},{"internalType":"enum WildlifeDAO.ProjectStatus","name":"status","type":"uint8"},{"internalType":"uint256","name":"submissionTime","type":"uint256"},{"internalType":"uint256","name":"votingStartTime","type":"uint256"},{"internalType":"uint256","name":"votingEndTime","type":"uint256"}],"stateMutability":"view","type":"function"},{"inputs":[{"internalType":"uint256","name":"projectId","type":"uint256"},{"internalType":"address","name":"voter","type":"address"}],"name":"hasVoted","outputs":[{"internalType":"bool","name":"","type":"bool"}],"stateMutability":"view","type":"function"},{"inputs":[],"name":"minValidationsRequired","outputs":[{"internalType":"uint256","name":"","type":"uint256"}],"stateMutability":"view","type":"function"},{"inputs":[],"name":"owner","outputs":[{"internalType":"address","name":"","type":"address"}],"stateMutability":"view","type":"function"},{"inputs":[],"name":"projectCount","outputs":[{"internalType":"uint256","name":"","type":"uint256"}],"stateMutability":"view","type":"function"},{"inputs":[{"internalType":"uint256","name":"","type":"uint256"}],"name":"projects","outputs":[{"internalType":"string","name":"title","type":"string"},{"internalType":"string","name":"description","type":"string"},{"internalType":"address","name":"proposer","type":"address"},{"internalType":"uint256","name":"fundingRequired","type":"uint256"},{"internalType":"uint256","name":"fundingReceived","type":"uint256"},{"internalType":"uint256","name":"validationCount","type":"uint256"},{"internalType":"enum WildlifeDAO.ProjectStatus","name":"status","type":"uint8"},{"internalType":"uint256","name":"submissionTime","type":"uint256"},{"internalType":"uint256","name":"forVotes","type":"uint256"},{"internalType":"uint256","name":"againstVotes","type":"uint256"},{"internalType":"uint256","name":"votingStartTime","type":"uint256"},{"internalType":"uint256","name":"votingEndTime","type":"uint256"},{"internalType":"bool","name":"executed","type":"bool"}],"stateMutability":"view","type":"function"},{"inputs":[{"internalType":"string","name":"","type":"string"}],"name":"proposalIdToProjectId","outputs":[{"internalType":"uint256","name":"","type":"uint256"}],"stateMutability":"view","type":"function"},{"inputs":[{"internalType":"uint256","name":"projectId","type":"uint256"},{"internalType":"uint256","name":"numVotes","type":"uint256"}],"name":"quadraticContribute","outputs":[],"stateMutability":"nonpayable","type":"function"},{"inputs":[{"internalType":"uint256","name":"projectId","type":"uint256"}],"name":"rejectProject","outputs":[],"stateMutability":"nonpayable","type":"function"},{"inputs":[{"internalType":"address","name":"validator","type":"address"}],"name":"removeValidator","outputs":[],"stateMutability":"nonpayable","type":"function"},{"inputs":[],"name":"renounceOwnership","outputs":[],"stateMutability":"nonpayable","type":"function"},{"inputs":[{"internalType":"string","name":"proposalId","type":"string"},{"internalType":"string","name":"title","type":"string"},{"internalType":"string","name":"description","type":"string"},{"internalType":"uint256","name":"fundingRequired","type":"uint256"}],"name":"submitProject","outputs":[{"internalType":"uint256","name":"","type":"uint256"}],"stateMutability":"nonpayable","type":"function"},{"inputs":[],"name":"totalValueLocked","outputs":[{"internalType":"uint256","name":"","type":"uint256"}],"stateMutability":"view","type":"function"},{"inputs":[],"name":"totalWLD","outputs":[{"internalType":"uint256","name":"","type":"uint256"}],"stateMutability":"view","type":"function"},{"inputs":[{"internalType":"address","name":"newOwner","type":"address"}],"name":"transferOwnership","outputs":[],"stateMutability":"nonpayable","type":"function"},{"inputs":[{"internalType":"uint256","name":"projectId","type":"uint256"}],"name":"validateProject","outputs":[],"stateMutability":"nonpayable","type":"function"},{"inputs":[{"internalType":"address","name":"","type":"address"}],"name":"validators","outputs":[{"internalType":"bool","name":"","type":"bool"}],"stateMutability":"view","type":"function"},{"inputs":[{"internalType":"uint256","name":"projectId","type":"uint256"},{"internalType":"bool","name":"support","type":"bool"}],"name":"voteOnProject","outputs":[],"stateMutability":"nonpayable","type":"function"},{"inputs":[],"name":"wldToken","outputs":[{"internalType":"contract WildlifeDAOToken","name":"","type":"address"}],"stateMutability":"view","type":"function"}],"evm":{"bytecode":{"linkReferences":{},"object":"60803461015b57601f61204938819003918201601f19168301916001600160401b038311848410176101605780849260209460405283398101031261015b57516001600160a01b03908181169081900361015b5733156101425760008054336001600160a01b0319808316821784556040519395909392167f8be0079c531659141344cd1fd0a4f28419497f9722a3daafe3b4186f6b6457e08680a360016004556002600655821561010057506001541617600155338152600560205260408120600160ff19825416179055604051907fe366c1c0452ed8eec96861e9e54141ebff23c9ec89fe27b996b45f5ec3884987339180a2611ed290816101778239f35b62461bcd60e51b815260206004820152601560248201527f496e76616c696420746f6b656e206164647265737300000000000000000000006044820152606490fd5b604051631e4fbdf760e01b815260006004820152602490fd5b600080fd5b634e487b7160e01b600052604160045260246000fdfe6080806040526004908136101561001557600080fd5b600091823560e01c9182630735a326146117dc575081630b5367ad146117be578163107046bd146116c95781631e484e70146116a55781632763b72a1461124457816336fbad26146112265781633ba0b9a91461120857816340a141ff146111895781634339e61214610d5b5781634385963214610d0d5781634857317e14610cf05781634a85638114610c495781634d238c8e14610b8d5781635006e85414610b6f57816357021469146109e357816369b04f1914610929578163715018a6146108cf5781638004f9fa146106495781638cf68776146106235781638da5cb5b146105fc5781639acbbf22146105e05781639be3783d146105b7578163b1610d7e14610599578163b56e725c146104eb578163b7b5bfc11461048f578163d3f7da2514610332578163db45810e14610316578163e9e6a349146102f9578163ec18154e146102db578163f2fde38b1461024a578163fa52c7d81461020b578163fdfda408146101b4575063fe71b8ba1461018f57600080fd5b346101b157806003193601126101b1576020604051678ac7230489e800008152f35b80fd5b9050346102075760203660031901126102075790604091358152600760205220600b810154610203600e600c840154930154604051938493846040919493926060820195825260208201520152565b0390f35b5080fd5b82346101b15760203660031901126101b15760209060ff906040906001600160a01b03610236611cae565b168152600584522054166040519015158152f35b90503461020757602036600319011261020757610265611cae565b61026d611cda565b6001600160a01b039081169182156102c35750600054826bffffffffffffffffffffffff60a01b821617600055167f8be0079c531659141344cd1fd0a4f28419497f9722a3daafe3b4186f6b6457e0600080a380f35b604051631e4fbdf760e01b8152908101849052602490fd5b82346101b157806003193601126101b1576020600254604051908152f35b82346101b157806003193601126101b15760206040516101f48152f35b82346101b157806003193601126101b157602060405160018152f35b9050346102075760203660031901126102075780359081835260076020526040832060068101805460ff8116600581101561047c57610442576007830154603c810180911161042f5742106103eb5760029060ff191617905542600d82015562093a804201918242116103d85750600e01557ff75c354d0772e6386c514de8e03be6b7fb27fe941335caa779ee1b9f34fe0c1e604080516000815260026020820152a280f35b634e487b7160e01b855260119052602484fd5b60405162461bcd60e51b8152602081860152601b60248201527f56616c69646174696f6e20706572696f64206e6f7420656e64656400000000006044820152606490fd5b634e487b7160e01b875260118552602487fd5b60405162461bcd60e51b8152602081860152601360248201527250726f6a656374206e6f742070656e64696e6760681b6044820152606490fd5b634e487b7160e01b875260218552602487fd5b82346101b15760203660031901126101b15781359067ffffffffffffffff82116101b15760206104d8816104c536868801611c57565b8160405193828580945193849201611bec565b8101600981520301902054604051908152f35b90503461020757602036600319011261020757803567ffffffffffffffff811161059557610538602061052660a09594604094369101611c57565b81845193828580945193849201611bec565b81016009815203019020549161054f831515611e5b565b82815260076020522060ff600682015416906007810154610584600e600d840154930154936040519586526020860190611c34565b604084015260608301526080820152f35b8280fd5b82346101b157806003193601126101b157602060405162093a808152f35b82346101b157806003193601126101b1576001546040516001600160a01b039091168152602090f35b82346101b157806003193601126101b1576020604051603c8152f35b82346101b157806003193601126101b157546040516001600160a01b039091168152602090f35b82346101b15760203660031901126101b15760206106418335611e2d565b604051908152f35b90506040366003190112610207578035610661611cc4565b60018210610896576103e8821161085d576001600160a01b03908082161561082557670de0b6b3a76400009182840292848404148415171561081257859060015416803b1561020757604080516320e224bb60e21b81526001600160a01b03909416878501908152602081018690528392859290918391859183910103925af191826107fa575b505061079f5750508160033d11610790575b6308c379a014610712575b50604051903d90823e3d90fd5b61071a611dbb565b806107255750610705565b9061078c602092610770603060405180936f026b4b73a34b733903330b4b632b21d160851b88830152610760815180928a8686019101611bec565b8101036010810184520182611b24565b60405193849362461bcd60e51b85528401526024830190611c0f565b0390fd5b508082803e815160e01c6106fa565b9091506107ae82600254611dae565b6002556107bd81600354611dae565b60035560405191825260208201528160408201527f3168ca6b1e292883c0668008556fb887f7cce92bcd3c1c57c15a34dcdccd589260603392a280f35b61080390611afa565b61080e5784386106e8565b8480fd5b634e487b7160e01b865260118552602486fd5b60405162461bcd60e51b81526020818601526011602482015270125b9d985b1a59081c9958da5c1a595b9d607a1b6044820152606490fd5b60405162461bcd60e51b81526020818501526012602482015271446f6e6174696f6e20746f6f206c6172676560701b6044820152606490fd5b60405162461bcd60e51b81526020818501526012602482015271111bdb985d1a5bdb881d1bdbc81cdb585b1b60721b6044820152606490fd5b82346101b157806003193601126101b1576108e8611cda565b600080546001600160a01b0319811682556001600160a01b03167f8be0079c531659141344cd1fd0a4f28419497f9722a3daafe3b4186f6b6457e08280a380f35b90503461020757602036600319011261020757803590338352600560205261095760ff604085205416611d06565b8183526007602052600660408420019081549060ff82169060058210156109d057509061099082600393159081156109c5575b50611d69565b60ff19161790557f8fb6fda973f304b2834c4147004045448416c05b253872373ac5b19f4a5b7a5d602060405160038152a280f35b60019150143861098a565b634e487b7160e01b865260219052602485fd5b905034610207576020806003193601126105955781359133845260058252610a1160ff604086205416611d06565b82845260078252604084206006810160ff8154166005811015610b5c57610a389015611d69565b600882013360005280855260ff60406000205416610b2457336000528452604060002060ff199060018282541617905560058301610a768154611d44565b809155604051818152877fd3f490693917dc3497b0673bc090f961fc8a8cd5ce21cfaec6204c788c173185883393a36006541115610ab2578680f35b60029082541617905542600d82015562093a80420191824211610b11575091604091600e7ff75c354d0772e6386c514de8e03be6b7fb27fe941335caa779ee1b9f34fe0c1e940155600282519160008352820152a23880808080808680f35b634e487b7160e01b865260119052602485fd5b60405162461bcd60e51b81528085018690526011602482015270105b1c9958591e481d985b1a59185d1959607a1b6044820152606490fd5b634e487b7160e01b875260218452602487fd5b82346101b157806003193601126101b1576020600654604051908152f35b90503461020757602036600319011261020757610ba8611cae565b610bb0611cda565b6001600160a01b03168083526005602052604083205490919060ff16610c0f5750808252600560205260408220805460ff191660011790557fe366c1c0452ed8eec96861e9e54141ebff23c9ec89fe27b996b45f5ec38849878280a280f35b60649060206040519162461bcd60e51b8352820152601360248201527220b63932b0b23c9030903b30b634b230ba37b960691b6044820152fd5b90503461020757602036600319011261020757803567ffffffffffffffff8111610595576020610526604093610c8193369101611c57565b810160098152030190205491610c98831515611e5b565b8281526007602052209060018060a01b03600283015416610203610cc360ff60068601541694611b46565b93610ce06040519586958652608060208701526080860190611c0f565b9260408501526060840190611c34565b82346101b157806003193601126101b15760206040516103e88152f35b82346101b15760403660031901126101b1576040600a91610d2c611cc4565b93358152600760205220019060018060a01b0316600052602052602060ff604060002054166040519015158152f35b905034610207576040366003190112610207578035906024803590811515908183036111855784865260209260078452604087209060ff60068301541660058110156111735760020361113057600e82015442116110f757600a8201923360005283865260ff604060002054166110c5576001546040516370a0823160e01b81523389820152906001600160a01b031687828481845afa918215611048578b92611096575b5068056bc75e2d6310000082106110535790878992604051938480926318160ddd60e01b82525afa918215611048578b92611014575b5061271090818102918183041490151715611002578115610ff057049360405191606083019083821067ffffffffffffffff831117610fdd5750610ecd9291600291604052600183528883018781526040840191898352336000528a52610eb1604060002094511515859060ff801983541691151516179055565b51600184015551151591019060ff801983541691151516179055565b15610fc857600b01610ee0828254611dae565b90555b60405191825282820152837fcbdf6214089cba887ecbf35a0b6a734589959c9763342c756bb2a80ca2bc9f6e60403393a3828452600781526040842090600e8201544211610f2f578480f35b600b82015492600c830154610bb8610f478287611dae565b1015610f54575b50508480f35b6006604094610fa99360ff937ff75c354d0772e6386c514de8e03be6b7fb27fe941335caa779ee1b9f34fe0c1e9811600014610fb5578282019084198254161790555b01541683519260028452830190611c34565ba2388080808080610f4e565b5081810160038419825416179055610f97565b600c01610fd6828254611dae565b9055610ee3565b634e487b7160e01b600090815260418b52fd5b634e487b7160e01b8b5260128952828bfd5b634e487b7160e01b8b5260118952828bfd5b9091508781813d8311611041575b61102c8183611b24565b8101031261103c57519038610e36565b600080fd5b503d611022565b6040513d8d823e3d90fd5b60405162461bcd60e51b8152808a018990526019818501527f496e73756666696369656e7420766f74696e6720706f776572000000000000006044820152606490fd5b9091508781813d83116110be575b6110ae8183611b24565b8101031261103c57519038610e00565b503d6110a4565b86600d606492886040519362461bcd60e51b85528401528201526c105b1c9958591e481d9bdd1959609a1b6044820152fd5b60405162461bcd60e51b815280870186905260138185015272159bdd1a5b99c81c195c9a5bd908195b991959606a1b6044820152606490fd5b60405162461bcd60e51b8152808701869052601b818501527f50726f6a656374206e6f7420696e20766f74696e6720706861736500000000006044820152606490fd5b634e487b7160e01b8952602187528389fd5b8580fd5b82346101b15760203660031901126101b1576111a3611cae565b6111ab611cda565b6001600160a01b0316808252600560205260408220546111cd9060ff16611d06565b808252600560205260408220805460ff191690557fe1434e25d6611e0db941968fdc97811c982ac1602e951637d206f5fdda9dd8f18280a280f35b90503461020757816003193601126102075760209054604051908152f35b82346101b157806003193601126101b1576020600854604051908152f35b9050346102075760803660031901126102075767ffffffffffffffff9080358281116116a1576112779036908301611c57565b9060243583811161080e5761128f9036908301611c57565b604435848111611185576112a69036908401611c57565b948351156116675760405160208186516112c38183858b01611bec565b8101600981520301902054611623576112dd600854611d44565b9485600855858252600760205260408220938351828111611610576113028654611ac0565b601f81116115cb575b50806020601f821160011461156957859161155e575b508160011b916000199060031b1c19161785555b875191821161154b575061134c6001850154611ac0565b601f8111611503575b506020968790601f831160011461147157928261143993604096937f7678349bba1c48c89d616c5a2c61104739c59fe67b3ad19680cc94323242808f9998968492611466575b50508160011b916000199060031b1c19161760018501555b60056064359485600382015560028101336bffffffffffffffffffffffff60a01b8254161790556006810160ff1981541690554260078201550155868451898188516114028183858d01611bec565b810160098152030190205561142184519560c0875260c0870190611c0f565b90878987015233858701528582036060870152611c0f565b9060808401526650656e64696e6760c81b86848303928360a08701526007815201520190a1604051908152f35b01519050388061139b565b6001860184528884209190601f198416855b8181106114ec575093604096937f7678349bba1c48c89d616c5a2c61104739c59fe67b3ad19680cc94323242808f999896936001938361143998106114d3575b505050811b0160018501556113b3565b015160001960f88460031b161c191690553880806114c3565b92938b600181928786015181550195019301611483565b60018501835260208320601f830160051c81019160208410611541575b601f0160051c01905b8181106115365750611355565b838155600101611529565b9091508190611520565b634e487b7160e01b835260419052602482fd5b905085015138611321565b878652602086209150601f198316865b8181106115b35750908360019493921061159a575b5050811b018555611335565b87015160001960f88460031b161c19169055388061158e565b9192602060018192868c015181550194019201611579565b86855260208520601f830160051c81019160208410611606575b601f0160051c01905b8181106115fb575061130b565b8581556001016115ee565b90915081906115e5565b634e487b7160e01b845260418252602484fd5b60405162461bcd60e51b8152602081850152601a60248201527f50726f706f73616c20494420616c7265616479206578697374730000000000006044820152606490fd5b60405162461bcd60e51b81526020818501526013602482015272125b9d985b1a59081c1c9bdc1bdcd85b081251606a1b6044820152606490fd5b8380fd5b82346101b157806003193601126101b157602060405168056bc75e2d631000008152f35b82346101b15760203660031901126101b157813581526007602052604090206116f181611b46565b906116fe60018201611b46565b92600160a01b60019003600283015416916003810154918101546005820154600683015460ff166007840154600b85015491600c86015493600d87015495600e88015497600f015460ff16986040519c8d9c8d6101a0908181520161176291611c0f565b8d810360208f015261177391611c0f565b9a60408d015260608c015260808b015260a08a015260c0890161179591611c34565b60e088015261010087015261012086015261014085015261016084015215156101808301520390f35b82346101b157806003193601126101b1576020600354604051908152f35b9150346105955760403660031901126105955780359060248035938386526020600781526040872093600685019260ff8454166005811015611aae57600203611a79575080850194855490600381019182541115611a3f5761183d89611e2d565b6001546040516370a0823160e01b8152338682015291976001600160a01b03909116918c9087818481875afa908115611a34578a92916119ff575b50106119bd5750803b156119b9576040805163079cc67960e41b815233868201908152602081018a905290928d9284928391859183910103925af1801561104857611975575b509187939160097f13e687e87e690512fab0e69a4d3b9b51afccd53ba1ba54aa4c23ae3f60522baf989796943360005201835260406000206119018b8254611dae565b905561190e8a8854611dae565b80975554861015611939575b505060408051978852602088019390935250508401523392606090a380f35b7f8fb6fda973f304b2834c4147004045448416c05b253872373ac5b19f4a5b7a5d928160ff19825416179055604051908152a28338808061191a565b9160097f13e687e87e690512fab0e69a4d3b9b51afccd53ba1ba54aa4c23ae3f60522baf98979694929b6119aa8b9795611afa565b9b9294969798505091936118be565b8a80fd5b846018606492886040519362461bcd60e51b85528401528201527f496e73756666696369656e7420574c442062616c616e636500000000000000006044820152fd5b809250888092503d8311611a2d575b611a188183611b24565b81010312611a295788905138611878565b8c80fd5b503d611a0e565b6040513d84823e3d90fd5b60405162461bcd60e51b815280840185905260148188015273119d5b991a5b99c819dbd85b081c995858da195960621b6044820152606490fd5b6014858460649462461bcd60e51b855284015282015273141c9bda9958dd081b9bdd08185c1c1c9bdd995960621b6044820152fd5b634e487b7160e01b8a5260218352858afd5b90600182811c92168015611af0575b6020831014611ada57565b634e487b7160e01b600052602260045260246000fd5b91607f1691611acf565b67ffffffffffffffff8111611b0e57604052565b634e487b7160e01b600052604160045260246000fd5b90601f8019910116810190811067ffffffffffffffff821117611b0e57604052565b9060405191826000825492611b5a84611ac0565b908184526001948581169081600014611bc95750600114611b86575b5050611b8492500383611b24565b565b9093915060005260209081600020936000915b818310611bb1575050611b8493508201013880611b76565b85548884018501529485019487945091830191611b99565b915050611b8494506020925060ff191682840152151560051b8201013880611b76565b60005b838110611bff5750506000910152565b8181015183820152602001611bef565b90602091611c2881518092818552858086019101611bec565b601f01601f1916010190565b906005821015611c415752565b634e487b7160e01b600052602160045260246000fd5b81601f8201121561103c5780359067ffffffffffffffff8211611b0e5760405192611c8c601f8401601f191660200185611b24565b8284526020838301011161103c57816000926020809301838601378301015290565b600435906001600160a01b038216820361103c57565b602435906001600160a01b038216820361103c57565b6000546001600160a01b03163303611cee57565b60405163118cdaa760e01b8152336004820152602490fd5b15611d0d57565b60405162461bcd60e51b815260206004820152600f60248201526e2737ba1030903b30b634b230ba37b960891b6044820152606490fd5b6000198114611d535760010190565b634e487b7160e01b600052601160045260246000fd5b15611d7057565b60405162461bcd60e51b8152602060048201526016602482015275496e76616c69642070726f6a6563742073746174757360501b6044820152606490fd5b91908201809211611d5357565b600060443d10611e1957604051600319913d83016004833e815167ffffffffffffffff918282113d602484011117611e1c57818401948551938411611e24573d85010160208487010111611e1c5750611e1992910160200190611b24565b90565b949350505050565b50949350505050565b80800290808204811490151715611d5357670de0b6b3a764000090818102918183041490151715611d535790565b15611e6257565b60405162461bcd60e51b8152602060048201526012602482015271141c9bdc1bdcd85b081b9bdd08199bdd5b9960721b6044820152606490fdfea2646970667358221220668faca468f2ec8dd360d669fd4241eb16c2b92c97cbdd79c984e6b347ef490564736f6c63430008140033","opcodes":"PUSH1 0x80 CALLVALUE PUSH2 0x15B JUMPI PUSH1 0x1F PUSH2 0x2049 CODESIZE DUP2 SWAP1 SUB SWAP2 DUP3 ADD PUSH1 0x1F NOT AND DUP4 ADD SWAP2 PUSH1 0x1 PUSH1 0x1 PUSH1 0x40 SHL SUB DUP4 GT DUP5 DUP5 LT OR PUSH2 0x160 JUMPI DUP1 DUP5 SWAP3 PUSH1 0x20 SWAP5 PUSH1 0x40 MSTORE DUP4 CODECOPY DUP2 ADD SUB SLT PUSH2 0x15B JUMPI MLOAD PUSH1 0x1 PUSH1 0x1 PUSH1 0xA0 SHL SUB SWAP1 DUP2 DUP2 AND SWAP1 DUP2 SWAP1 SUB PUSH2 0x15B JUMPI CALLER ISZERO PUSH2 0x142 JUMPI PUSH1 0x0 DUP1 SLOAD CALLER PUSH1 0x1 PUSH1 0x1 PUSH1 0xA0 SHL SUB NOT DUP1 DUP4 AND DUP3 OR DUP5 SSTORE PUSH1 0x40 MLOAD SWAP4 SWAP6 SWAP1 SWAP4 SWAP3 AND PUSH32 0x8BE0079C531659141344CD1FD0A4F28419497F9722A3DAAFE3B4186F6B6457E0 DUP7 DUP1 LOG3 PUSH1 0x1 PUSH1 0x4 SSTORE PUSH1 0x2 PUSH1 0x6 SSTORE DUP3 ISZERO PUSH2 0x100 JUMPI POP PUSH1 0x1 SLOAD AND OR PUSH1 0x1 SSTORE CALLER DUP2 MSTORE PUSH1 0x5 PUSH1 0x20 MSTORE PUSH1 0x40 DUP2 KECCAK256 PUSH1 0x1 PUSH1 0xFF NOT DUP3 SLOAD AND OR SWAP1 SSTORE PUSH1 0x40 MLOAD SWAP1 PUSH32 0xE366C1C0452ED8EEC96861E9E54141EBFF23C9EC89FE27B996B45F5EC3884987 CALLER SWAP2 DUP1 LOG2 PUSH2 0x1ED2 SWAP1 DUP2 PUSH2 0x177 DUP3 CODECOPY RETURN JUMPDEST PUSH3 0x461BCD PUSH1 0xE5 SHL DUP2 MSTORE PUSH1 0x20 PUSH1 0x4 DUP3 ADD MSTORE PUSH1 0x15 PUSH1 0x24 DUP3 ADD MSTORE PUSH32 0x496E76616C696420746F6B656E20616464726573730000000000000000000000 PUSH1 0x44 DUP3 ADD MSTORE PUSH1 0x64 SWAP1 REVERT JUMPDEST PUSH1 0x40 MLOAD PUSH4 0x1E4FBDF7 PUSH1 0xE0 SHL DUP2 MSTORE PUSH1 0x0 PUSH1 0x4 DUP3 ADD MSTORE PUSH1 0x24 SWAP1 REVERT JUMPDEST PUSH1 0x0 DUP1 REVERT JUMPDEST PUSH4 0x4E487B71 PUSH1 0xE0 SHL PUSH1 0x0 MSTORE PUSH1 0x41 PUSH1 0x4 MSTORE PUSH1 0x24 PUSH1 0x0 REVERT INVALID PUSH1 0x80 DUP1 PUSH1 0x40 MSTORE PUSH1 0x4 SWAP1 DUP2 CALLDATASIZE LT ISZERO PUSH2 0x15 JUMPI PUSH1 0x0 DUP1 REVERT JUMPDEST PUSH1 0x0 SWAP2 DUP3 CALLDATALOAD PUSH1 0xE0 SHR SWAP2 DUP3 PUSH4 0x735A326 EQ PUSH2 0x17DC JUMPI POP DUP2 PUSH4 0xB5367AD EQ PUSH2 0x17BE JUMPI DUP2 PUSH4 0x107046BD EQ PUSH2 0x16C9 JUMPI DUP2 PUSH4 0x1E484E70 EQ PUSH2 0x16A5 JUMPI DUP2 PUSH4 0x2763B72A EQ PUSH2 0x1244 JUMPI DUP2 PUSH4 0x36FBAD26 EQ PUSH2 0x1226 JUMPI DUP2 PUSH4 0x3BA0B9A9 EQ PUSH2 0x1208 JUMPI DUP2 PUSH4 0x40A141FF EQ PUSH2 0x1189 JUMPI DUP2 PUSH4 0x4339E612 EQ PUSH2 0xD5B JUMPI DUP2 PUSH4 0x43859632 EQ PUSH2 0xD0D JUMPI DUP2 PUSH4 0x4857317E EQ PUSH2 0xCF0 JUMPI DUP2 PUSH4 0x4A856381 EQ PUSH2 0xC49 JUMPI DUP2 PUSH4 0x4D238C8E EQ PUSH2 0xB8D JUMPI DUP2 PUSH4 0x5006E854 EQ PUSH2 0xB6F JUMPI DUP2 PUSH4 0x57021469 EQ PUSH2 0x9E3 JUMPI DUP2 PUSH4 0x69B04F19 EQ PUSH2 0x929 JUMPI DUP2 PUSH4 0x715018A6 EQ PUSH2 0x8CF JUMPI DUP2 PUSH4 0x8004F9FA EQ PUSH2 0x649 JUMPI DUP2 PUSH4 0x8CF68776 EQ PUSH2 0x623 JUMPI DUP2 PUSH4 0x8DA5CB5B EQ PUSH2 0x5FC JUMPI DUP2 PUSH4 0x9ACBBF22 EQ PUSH2 0x5E0 JUMPI DUP2 PUSH4 0x9BE3783D EQ PUSH2 0x5B7 JUMPI DUP2 PUSH4 0xB1610D7E EQ PUSH2 0x599 JUMPI DUP2 PUSH4 0xB56E725C EQ PUSH2 0x4EB JUMPI DUP2 PUSH4 0xB7B5BFC1 EQ PUSH2 0x48F JUMPI DUP2 PUSH4 0xD3F7DA25 EQ PUSH2 0x332 JUMPI DUP2 PUSH4 0xDB45810E EQ PUSH2 0x316 JUMPI DUP2 PUSH4 0xE9E6A349 EQ PUSH2 0x2F9 JUMPI DUP2 PUSH4 0xEC18154E EQ PUSH2 0x2DB JUMPI DUP2 PUSH4 0xF2FDE38B EQ PUSH2 0x24A JUMPI DUP2 PUSH4 0xFA52C7D8 EQ PUSH2 0x20B JUMPI DUP2 PUSH4 0xFDFDA408 EQ PUSH2 0x1B4 JUMPI POP PUSH4 0xFE71B8BA EQ PUSH2 0x18F JUMPI PUSH1 0x0 DUP1 REVERT JUMPDEST CALLVALUE PUSH2 0x1B1 JUMPI DUP1 PUSH1 0x3 NOT CALLDATASIZE ADD SLT PUSH2 0x1B1 JUMPI PUSH1 0x20 PUSH1 0x40 MLOAD PUSH8 0x8AC7230489E80000 DUP2 MSTORE RETURN JUMPDEST DUP1 REVERT JUMPDEST SWAP1 POP CALLVALUE PUSH2 0x207 JUMPI PUSH1 0x20 CALLDATASIZE PUSH1 0x3 NOT ADD SLT PUSH2 0x207 JUMPI SWAP1 PUSH1 0x40 SWAP2 CALLDATALOAD DUP2 MSTORE PUSH1 0x7 PUSH1 0x20 MSTORE KECCAK256 PUSH1 0xB DUP2 ADD SLOAD PUSH2 0x203 PUSH1 0xE PUSH1 0xC DUP5 ADD SLOAD SWAP4 ADD SLOAD PUSH1 0x40 MLOAD SWAP4 DUP5 SWAP4 DUP5 PUSH1 0x40 SWAP2 SWAP5 SWAP4 SWAP3 PUSH1 0x60 DUP3 ADD SWAP6 DUP3 MSTORE PUSH1 0x20 DUP3 ADD MSTORE ADD MSTORE JUMP JUMPDEST SUB SWAP1 RETURN JUMPDEST POP DUP1 REVERT JUMPDEST DUP3 CALLVALUE PUSH2 0x1B1 JUMPI PUSH1 0x20 CALLDATASIZE PUSH1 0x3 NOT ADD SLT PUSH2 0x1B1 JUMPI PUSH1 0x20 SWAP1 PUSH1 0xFF SWAP1 PUSH1 0x40 SWAP1 PUSH1 0x1 PUSH1 0x1 PUSH1 0xA0 SHL SUB PUSH2 0x236 PUSH2 0x1CAE JUMP JUMPDEST AND DUP2 MSTORE PUSH1 0x5 DUP5 MSTORE KECCAK256 SLOAD AND PUSH1 0x40 MLOAD SWAP1 ISZERO ISZERO DUP2 MSTORE RETURN JUMPDEST SWAP1 POP CALLVALUE PUSH2 0x207 JUMPI PUSH1 0x20 CALLDATASIZE PUSH1 0x3 NOT ADD SLT PUSH2 0x207 JUMPI PUSH2 0x265 PUSH2 0x1CAE JUMP JUMPDEST PUSH2 0x26D PUSH2 0x1CDA JUMP JUMPDEST PUSH1 0x1 PUSH1 0x1 PUSH1 0xA0 SHL SUB SWAP1 DUP2 AND SWAP2 DUP3 ISZERO PUSH2 0x2C3 JUMPI POP PUSH1 0x0 SLOAD DUP3 PUSH12 0xFFFFFFFFFFFFFFFFFFFFFFFF PUSH1 0xA0 SHL DUP3 AND OR PUSH1 0x0 SSTORE AND PUSH32 0x8BE0079C531659141344CD1FD0A4F28419497F9722A3DAAFE3B4186F6B6457E0 PUSH1 0x0 DUP1 LOG3 DUP1 RETURN JUMPDEST PUSH1 0x40 MLOAD PUSH4 0x1E4FBDF7 PUSH1 0xE0 SHL DUP2 MSTORE SWAP1 DUP2 ADD DUP5 SWAP1 MSTORE PUSH1 0x24 SWAP1 REVERT JUMPDEST DUP3 CALLVALUE PUSH2 0x1B1 JUMPI DUP1 PUSH1 0x3 NOT CALLDATASIZE ADD SLT PUSH2 0x1B1 JUMPI PUSH1 0x20 PUSH1 0x2 SLOAD PUSH1 0x40 MLOAD SWAP1 DUP2 MSTORE RETURN JUMPDEST DUP3 CALLVALUE PUSH2 0x1B1 JUMPI DUP1 PUSH1 0x3 NOT CALLDATASIZE ADD SLT PUSH2 0x1B1 JUMPI PUSH1 0x20 PUSH1 0x40 MLOAD PUSH2 0x1F4 DUP2 MSTORE RETURN JUMPDEST DUP3 CALLVALUE PUSH2 0x1B1 JUMPI DUP1 PUSH1 0x3 NOT CALLDATASIZE ADD SLT PUSH2 0x1B1 JUMPI PUSH1 0x20 PUSH1 0x40 MLOAD PUSH1 0x1 DUP2 MSTORE RETURN JUMPDEST SWAP1 POP CALLVALUE PUSH2 0x207 JUMPI PUSH1 0x20 CALLDATASIZE PUSH1 0x3 NOT ADD SLT PUSH2 0x207 JUMPI DUP1 CALLDATALOAD SWAP1 DUP2 DUP4 MSTORE PUSH1 0x7 PUSH1 0x20 MSTORE PUSH1 0x40 DUP4 KECCAK256 PUSH1 0x6 DUP2 ADD DUP1 SLOAD PUSH1 0xFF DUP2 AND PUSH1 0x5 DUP2 LT ISZERO PUSH2 0x47C JUMPI PUSH2 0x442 JUMPI PUSH1 0x7 DUP4 ADD SLOAD PUSH1 0x3C DUP2 ADD DUP1 SWAP2 GT PUSH2 0x42F JUMPI TIMESTAMP LT PUSH2 0x3EB JUMPI PUSH1 0x2 SWAP1 PUSH1 0xFF NOT AND OR SWAP1 SSTORE TIMESTAMP PUSH1 0xD DUP3 ADD SSTORE PUSH3 0x93A80 TIMESTAMP ADD SWAP2 DUP3 TIMESTAMP GT PUSH2 0x3D8 JUMPI POP PUSH1 0xE ADD SSTORE PUSH32 0xF75C354D0772E6386C514DE8E03BE6B7FB27FE941335CAA779EE1B9F34FE0C1E PUSH1 0x40 DUP1 MLOAD PUSH1 0x0 DUP2 MSTORE PUSH1 0x2 PUSH1 0x20 DUP3 ADD MSTORE LOG2 DUP1 RETURN JUMPDEST PUSH4 0x4E487B71 PUSH1 0xE0 SHL DUP6 MSTORE PUSH1 0x11 SWAP1 MSTORE PUSH1 0x24 DUP5 REVERT JUMPDEST PUSH1 0x40 MLOAD PUSH3 0x461BCD PUSH1 0xE5 SHL DUP2 MSTORE PUSH1 0x20 DUP2 DUP7 ADD MSTORE PUSH1 0x1B PUSH1 0x24 DUP3 ADD MSTORE PUSH32 0x56616C69646174696F6E20706572696F64206E6F7420656E6465640000000000 PUSH1 0x44 DUP3 ADD MSTORE PUSH1 0x64 SWAP1 REVERT JUMPDEST PUSH4 0x4E487B71 PUSH1 0xE0 SHL DUP8 MSTORE PUSH1 0x11 DUP6 MSTORE PUSH1 0x24 DUP8 REVERT JUMPDEST PUSH1 0x40 MLOAD PUSH3 0x461BCD PUSH1 0xE5 SHL DUP2 MSTORE PUSH1 0x20 DUP2 DUP7 ADD MSTORE PUSH1 0x13 PUSH1 0x24 DUP3 ADD MSTORE PUSH19 0x50726F6A656374206E6F742070656E64696E67 PUSH1 0x68 SHL PUSH1 0x44 DUP3 ADD MSTORE PUSH1 0x64 SWAP1 REVERT JUMPDEST PUSH4 0x4E487B71 PUSH1 0xE0 SHL DUP8 MSTORE PUSH1 0x21 DUP6 MSTORE PUSH1 0x24 DUP8 REVERT JUMPDEST DUP3 CALLVALUE PUSH2 0x1B1 JUMPI PUSH1 0x20 CALLDATASIZE PUSH1 0x3 NOT ADD SLT PUSH2 0x1B1 JUMPI DUP2 CALLDATALOAD SWAP1 PUSH8 0xFFFFFFFFFFFFFFFF DUP3 GT PUSH2 0x1B1 JUMPI PUSH1 0x20 PUSH2 0x4D8 DUP2 PUSH2 0x4C5 CALLDATASIZE DUP7 DUP9 ADD PUSH2 0x1C57 JUMP JUMPDEST DUP2 PUSH1 0x40 MLOAD SWAP4 DUP3 DUP6 DUP1 SWAP5 MLOAD SWAP4 DUP5 SWAP3 ADD PUSH2 0x1BEC JUMP JUMPDEST DUP2 ADD PUSH1 0x9 DUP2 MSTORE SUB ADD SWAP1 KECCAK256 SLOAD PUSH1 0x40 MLOAD SWAP1 DUP2 MSTORE RETURN JUMPDEST SWAP1 POP CALLVALUE PUSH2 0x207 JUMPI PUSH1 0x20 CALLDATASIZE PUSH1 0x3 NOT ADD SLT PUSH2 0x207 JUMPI DUP1 CALLDATALOAD PUSH8 0xFFFFFFFFFFFFFFFF DUP2 GT PUSH2 0x595 JUMPI PUSH2 0x538 PUSH1 0x20 PUSH2 0x526 PUSH1 0xA0 SWAP6 SWAP5 PUSH1 0x40 SWAP5 CALLDATASIZE SWAP2 ADD PUSH2 0x1C57 JUMP JUMPDEST DUP2 DUP5 MLOAD SWAP4 DUP3 DUP6 DUP1 SWAP5 MLOAD SWAP4 DUP5 SWAP3 ADD PUSH2 0x1BEC JUMP JUMPDEST DUP2 ADD PUSH1 0x9 DUP2 MSTORE SUB ADD SWAP1 KECCAK256 SLOAD SWAP2 PUSH2 0x54F DUP4 ISZERO ISZERO PUSH2 0x1E5B JUMP JUMPDEST DUP3 DUP2 MSTORE PUSH1 0x7 PUSH1 0x20 MSTORE KECCAK256 PUSH1 0xFF PUSH1 0x6 DUP3 ADD SLOAD AND SWAP1 PUSH1 0x7 DUP2 ADD SLOAD PUSH2 0x584 PUSH1 0xE PUSH1 0xD DUP5 ADD SLOAD SWAP4 ADD SLOAD SWAP4 PUSH1 0x40 MLOAD SWAP6 DUP7 MSTORE PUSH1 0x20 DUP7 ADD SWAP1 PUSH2 0x1C34 JUMP JUMPDEST PUSH1 0x40 DUP5 ADD MSTORE PUSH1 0x60 DUP4 ADD MSTORE PUSH1 0x80 DUP3 ADD MSTORE RETURN JUMPDEST DUP3 DUP1 REVERT JUMPDEST DUP3 CALLVALUE PUSH2 0x1B1 JUMPI DUP1 PUSH1 0x3 NOT CALLDATASIZE ADD SLT PUSH2 0x1B1 JUMPI PUSH1 0x20 PUSH1 0x40 MLOAD PUSH3 0x93A80 DUP2 MSTORE RETURN JUMPDEST DUP3 CALLVALUE PUSH2 0x1B1 JUMPI DUP1 PUSH1 0x3 NOT CALLDATASIZE ADD SLT PUSH2 0x1B1 JUMPI PUSH1 0x1 SLOAD PUSH1 0x40 MLOAD PUSH1 0x1 PUSH1 0x1 PUSH1 0xA0 SHL SUB SWAP1 SWAP2 AND DUP2 MSTORE PUSH1 0x20 SWAP1 RETURN JUMPDEST DUP3 CALLVALUE PUSH2 0x1B1 JUMPI DUP1 PUSH1 0x3 NOT CALLDATASIZE ADD SLT PUSH2 0x1B1 JUMPI PUSH1 0x20 PUSH1 0x40 MLOAD PUSH1 0x3C DUP2 MSTORE RETURN JUMPDEST DUP3 CALLVALUE PUSH2 0x1B1 JUMPI DUP1 PUSH1 0x3 NOT CALLDATASIZE ADD SLT PUSH2 0x1B1 JUMPI SLOAD PUSH1 0x40 MLOAD PUSH1 0x1 PUSH1 0x1 PUSH1 0xA0 SHL SUB SWAP1 SWAP2 AND DUP2 MSTORE PUSH1 0x20 SWAP1 RETURN JUMPDEST DUP3 CALLVALUE PUSH2 0x1B1 JUMPI PUSH1 0x20 CALLDATASIZE PUSH1 0x3 NOT ADD SLT PUSH2 0x1B1 JUMPI PUSH1 0x20 PUSH2 0x641 DUP4 CALLDATALOAD PUSH2 0x1E2D JUMP JUMPDEST PUSH1 0x40 MLOAD SWAP1 DUP2 MSTORE RETURN JUMPDEST SWAP1 POP PUSH1 0x40 CALLDATASIZE PUSH1 0x3 NOT ADD SLT PUSH2 0x207 JUMPI DUP1 CALLDATALOAD PUSH2 0x661 PUSH2 0x1CC4 JUMP JUMPDEST PUSH1 0x1 DUP3 LT PUSH2 0x896 JUMPI PUSH2 0x3E8 DUP3 GT PUSH2 0x85D JUMPI PUSH1 0x1 PUSH1 0x1 PUSH1 0xA0 SHL SUB SWAP1 DUP1 DUP3 AND ISZERO PUSH2 0x825 JUMPI PUSH8 0xDE0B6B3A7640000 SWAP2 DUP3 DUP5 MUL SWAP3 DUP5 DUP5 DIV EQ DUP5 ISZERO OR ISZERO PUSH2 0x812 JUMPI DUP6 SWAP1 PUSH1 0x1 SLOAD AND DUP1 EXTCODESIZE ISZERO PUSH2 0x207 JUMPI PUSH1 0x40 DUP1 MLOAD PUSH4 0x20E224BB PUSH1 0xE2 SHL DUP2 MSTORE PUSH1 0x1 PUSH1 0x1 PUSH1 0xA0 SHL SUB SWAP1 SWAP5 AND DUP8 DUP6 ADD SWAP1 DUP2 MSTORE PUSH1 0x20 DUP2 ADD DUP7 SWAP1 MSTORE DUP4 SWAP3 DUP6 SWAP3 SWAP1 SWAP2 DUP4 SWAP2 DUP6 SWAP2 DUP4 SWAP2 ADD SUB SWAP3 GAS CALL SWAP2 DUP3 PUSH2 0x7FA JUMPI JUMPDEST POP POP PUSH2 0x79F JUMPI POP POP DUP2 PUSH1 0x3 RETURNDATASIZE GT PUSH2 0x790 JUMPI JUMPDEST PUSH4 0x8C379A0 EQ PUSH2 0x712 JUMPI JUMPDEST POP PUSH1 0x40 MLOAD SWAP1 RETURNDATASIZE SWAP1 DUP3 RETURNDATACOPY RETURNDATASIZE SWAP1 REVERT JUMPDEST PUSH2 0x71A PUSH2 0x1DBB JUMP JUMPDEST DUP1 PUSH2 0x725 JUMPI POP PUSH2 0x705 JUMP JUMPDEST SWAP1 PUSH2 0x78C PUSH1 0x20 SWAP3 PUSH2 0x770 PUSH1 0x30 PUSH1 0x40 MLOAD DUP1 SWAP4 PUSH16 0x26B4B73A34B733903330B4B632B21D1 PUSH1 0x85 SHL DUP9 DUP4 ADD MSTORE PUSH2 0x760 DUP2 MLOAD DUP1 SWAP3 DUP11 DUP7 DUP7 ADD SWAP2 ADD PUSH2 0x1BEC JUMP JUMPDEST DUP2 ADD SUB PUSH1 0x10 DUP2 ADD DUP5 MSTORE ADD DUP3 PUSH2 0x1B24 JUMP JUMPDEST PUSH1 0x40 MLOAD SWAP4 DUP5 SWAP4 PUSH3 0x461BCD PUSH1 0xE5 SHL DUP6 MSTORE DUP5 ADD MSTORE PUSH1 0x24 DUP4 ADD SWAP1 PUSH2 0x1C0F JUMP JUMPDEST SUB SWAP1 REVERT JUMPDEST POP DUP1 DUP3 DUP1 RETURNDATACOPY DUP2 MLOAD PUSH1 0xE0 SHR PUSH2 0x6FA JUMP JUMPDEST SWAP1 SWAP2 POP PUSH2 0x7AE DUP3 PUSH1 0x2 SLOAD PUSH2 0x1DAE JUMP JUMPDEST PUSH1 0x2 SSTORE PUSH2 0x7BD DUP2 PUSH1 0x3 SLOAD PUSH2 0x1DAE JUMP JUMPDEST PUSH1 0x3 SSTORE PUSH1 0x40 MLOAD SWAP2 DUP3 MSTORE PUSH1 0x20 DUP3 ADD MSTORE DUP2 PUSH1 0x40 DUP3 ADD MSTORE PUSH32 0x3168CA6B1E292883C0668008556FB887F7CCE92BCD3C1C57C15A34DCDCCD5892 PUSH1 0x60 CALLER SWAP3 LOG2 DUP1 RETURN JUMPDEST PUSH2 0x803 SWAP1 PUSH2 0x1AFA JUMP JUMPDEST PUSH2 0x80E JUMPI DUP5 CODESIZE PUSH2 0x6E8 JUMP JUMPDEST DUP5 DUP1 REVERT JUMPDEST PUSH4 0x4E487B71 PUSH1 0xE0 SHL DUP7 MSTORE PUSH1 0x11 DUP6 MSTORE PUSH1 0x24 DUP7 REVERT JUMPDEST PUSH1 0x40 MLOAD PUSH3 0x461BCD PUSH1 0xE5 SHL DUP2 MSTORE PUSH1 0x20 DUP2 DUP7 ADD MSTORE PUSH1 0x11 PUSH1 0x24 DUP3 ADD MSTORE PUSH17 0x125B9D985B1A59081C9958DA5C1A595B9D PUSH1 0x7A SHL PUSH1 0x44 DUP3 ADD MSTORE PUSH1 0x64 SWAP1 REVERT JUMPDEST PUSH1 0x40 MLOAD PUSH3 0x461BCD PUSH1 0xE5 SHL DUP2 MSTORE PUSH1 0x20 DUP2 DUP6 ADD MSTORE PUSH1 0x12 PUSH1 0x24 DUP3 ADD MSTORE PUSH18 0x446F6E6174696F6E20746F6F206C61726765 PUSH1 0x70 SHL PUSH1 0x44 DUP3 ADD MSTORE PUSH1 0x64 SWAP1 REVERT JUMPDEST PUSH1 0x40 MLOAD PUSH3 0x461BCD PUSH1 0xE5 SHL DUP2 MSTORE PUSH1 0x20 DUP2 DUP6 ADD MSTORE PUSH1 0x12 PUSH1 0x24 DUP3 ADD MSTORE PUSH18 0x111BDB985D1A5BDB881D1BDBC81CDB585B1B PUSH1 0x72 SHL PUSH1 0x44 DUP3 ADD MSTORE PUSH1 0x64 SWAP1 REVERT JUMPDEST DUP3 CALLVALUE PUSH2 0x1B1 JUMPI DUP1 PUSH1 0x3 NOT CALLDATASIZE ADD SLT PUSH2 0x1B1 JUMPI PUSH2 0x8E8 PUSH2 0x1CDA JUMP JUMPDEST PUSH1 0x0 DUP1 SLOAD PUSH1 0x1 PUSH1 0x1 PUSH1 0xA0 SHL SUB NOT DUP2 AND DUP3 SSTORE PUSH1 0x1 PUSH1 0x1 PUSH1 0xA0 SHL SUB AND PUSH32 0x8BE0079C531659141344CD1FD0A4F28419497F9722A3DAAFE3B4186F6B6457E0 DUP3 DUP1 LOG3 DUP1 RETURN JUMPDEST SWAP1 POP CALLVALUE PUSH2 0x207 JUMPI PUSH1 0x20 CALLDATASIZE PUSH1 0x3 NOT ADD SLT PUSH2 0x207 JUMPI DUP1 CALLDATALOAD SWAP1 CALLER DUP4 MSTORE PUSH1 0x5 PUSH1 0x20 MSTORE PUSH2 0x957 PUSH1 0xFF PUSH1 0x40 DUP6 KECCAK256 SLOAD AND PUSH2 0x1D06 JUMP JUMPDEST DUP2 DUP4 MSTORE PUSH1 0x7 PUSH1 0x20 MSTORE PUSH1 0x6 PUSH1 0x40 DUP5 KECCAK256 ADD SWAP1 DUP2 SLOAD SWAP1 PUSH1 0xFF DUP3 AND SWAP1 PUSH1 0x5 DUP3 LT ISZERO PUSH2 0x9D0 JUMPI POP SWAP1 PUSH2 0x990 DUP3 PUSH1 0x3 SWAP4 ISZERO SWAP1 DUP2 ISZERO PUSH2 0x9C5 JUMPI JUMPDEST POP PUSH2 0x1D69 JUMP JUMPDEST PUSH1 0xFF NOT AND OR SWAP1 SSTORE PUSH32 0x8FB6FDA973F304B2834C4147004045448416C05B253872373AC5B19F4A5B7A5D PUSH1 0x20 PUSH1 0x40 MLOAD PUSH1 0x3 DUP2 MSTORE LOG2 DUP1 RETURN JUMPDEST PUSH1 0x1 SWAP2 POP EQ CODESIZE PUSH2 0x98A JUMP JUMPDEST PUSH4 0x4E487B71 PUSH1 0xE0 SHL DUP7 MSTORE PUSH1 0x21 SWAP1 MSTORE PUSH1 0x24 DUP6 REVERT JUMPDEST SWAP1 POP CALLVALUE PUSH2 0x207 JUMPI PUSH1 0x20 DUP1 PUSH1 0x3 NOT CALLDATASIZE ADD SLT PUSH2 0x595 JUMPI DUP2 CALLDATALOAD SWAP2 CALLER DUP5 MSTORE PUSH1 0x5 DUP3 MSTORE PUSH2 0xA11 PUSH1 0xFF PUSH1 0x40 DUP7 KECCAK256 SLOAD AND PUSH2 0x1D06 JUMP JUMPDEST DUP3 DUP5 MSTORE PUSH1 0x7 DUP3 MSTORE PUSH1 0x40 DUP5 KECCAK256 PUSH1 0x6 DUP2 ADD PUSH1 0xFF DUP2 SLOAD AND PUSH1 0x5 DUP2 LT ISZERO PUSH2 0xB5C JUMPI PUSH2 0xA38 SWAP1 ISZERO PUSH2 0x1D69 JUMP JUMPDEST PUSH1 0x8 DUP3 ADD CALLER PUSH1 0x0 MSTORE DUP1 DUP6 MSTORE PUSH1 0xFF PUSH1 0x40 PUSH1 0x0 KECCAK256 SLOAD AND PUSH2 0xB24 JUMPI CALLER PUSH1 0x0 MSTORE DUP5 MSTORE PUSH1 0x40 PUSH1 0x0 KECCAK256 PUSH1 0xFF NOT SWAP1 PUSH1 0x1 DUP3 DUP3 SLOAD AND OR SWAP1 SSTORE PUSH1 0x5 DUP4 ADD PUSH2 0xA76 DUP2 SLOAD PUSH2 0x1D44 JUMP JUMPDEST DUP1 SWAP2 SSTORE PUSH1 0x40 MLOAD DUP2 DUP2 MSTORE DUP8 PUSH32 0xD3F490693917DC3497B0673BC090F961FC8A8CD5CE21CFAEC6204C788C173185 DUP9 CALLER SWAP4 LOG3 PUSH1 0x6 SLOAD GT ISZERO PUSH2 0xAB2 JUMPI DUP7 DUP1 RETURN JUMPDEST PUSH1 0x2 SWAP1 DUP3 SLOAD AND OR SWAP1 SSTORE TIMESTAMP PUSH1 0xD DUP3 ADD SSTORE PUSH3 0x93A80 TIMESTAMP ADD SWAP2 DUP3 TIMESTAMP GT PUSH2 0xB11 JUMPI POP SWAP2 PUSH1 0x40 SWAP2 PUSH1 0xE PUSH32 0xF75C354D0772E6386C514DE8E03BE6B7FB27FE941335CAA779EE1B9F34FE0C1E SWAP5 ADD SSTORE PUSH1 0x2 DUP3 MLOAD SWAP2 PUSH1 0x0 DUP4 MSTORE DUP3 ADD MSTORE LOG2 CODESIZE DUP1 DUP1 DUP1 DUP1 DUP1 DUP7 DUP1 RETURN JUMPDEST PUSH4 0x4E487B71 PUSH1 0xE0 SHL DUP7 MSTORE PUSH1 0x11 SWAP1 MSTORE PUSH1 0x24 DUP6 REVERT JUMPDEST PUSH1 0x40 MLOAD PUSH3 0x461BCD PUSH1 0xE5 SHL DUP2 MSTORE DUP1 DUP6 ADD DUP7 SWAP1 MSTORE PUSH1 0x11 PUSH1 0x24 DUP3 ADD MSTORE PUSH17 0x105B1C9958591E481D985B1A59185D1959 PUSH1 0x7A SHL PUSH1 0x44 DUP3 ADD MSTORE PUSH1 0x64 SWAP1 REVERT JUMPDEST PUSH4 0x4E487B71 PUSH1 0xE0 SHL DUP8 MSTORE PUSH1 0x21 DUP5 MSTORE PUSH1 0x24 DUP8 REVERT JUMPDEST DUP3 CALLVALUE PUSH2 0x1B1 JUMPI DUP1 PUSH1 0x3 NOT CALLDATASIZE ADD SLT PUSH2 0x1B1 JUMPI PUSH1 0x20 PUSH1 0x6 SLOAD PUSH1 0x40 MLOAD SWAP1 DUP2 MSTORE RETURN JUMPDEST SWAP1 POP CALLVALUE PUSH2 0x207 JUMPI PUSH1 0x20 CALLDATASIZE PUSH1 0x3 NOT ADD SLT PUSH2 0x207 JUMPI PUSH2 0xBA8 PUSH2 0x1CAE JUMP JUMPDEST PUSH2 0xBB0 PUSH2 0x1CDA JUMP JUMPDEST PUSH1 0x1 PUSH1 0x1 PUSH1 0xA0 SHL SUB AND DUP1 DUP4 MSTORE PUSH1 0x5 PUSH1 0x20 MSTORE PUSH1 0x40 DUP4 KECCAK256 SLOAD SWAP1 SWAP2 SWAP1 PUSH1 0xFF AND PUSH2 0xC0F JUMPI POP DUP1 DUP3 MSTORE PUSH1 0x5 PUSH1 0x20 MSTORE PUSH1 0x40 DUP3 KECCAK256 DUP1 SLOAD PUSH1 0xFF NOT AND PUSH1 0x1 OR SWAP1 SSTORE PUSH32 0xE366C1C0452ED8EEC96861E9E54141EBFF23C9EC89FE27B996B45F5EC3884987 DUP3 DUP1 LOG2 DUP1 RETURN JUMPDEST PUSH1 0x64 SWAP1 PUSH1 0x20 PUSH1 0x40 MLOAD SWAP2 PUSH3 0x461BCD PUSH1 0xE5 SHL DUP4 MSTORE DUP3 ADD MSTORE PUSH1 0x13 PUSH1 0x24 DUP3 ADD MSTORE PUSH19 0x20B63932B0B23C9030903B30B634B230BA37B9 PUSH1 0x69 SHL PUSH1 0x44 DUP3 ADD MSTORE REVERT JUMPDEST SWAP1 POP CALLVALUE PUSH2 0x207 JUMPI PUSH1 0x20 CALLDATASIZE PUSH1 0x3 NOT ADD SLT PUSH2 0x207 JUMPI DUP1 CALLDATALOAD PUSH8 0xFFFFFFFFFFFFFFFF DUP2 GT PUSH2 0x595 JUMPI PUSH1 0x20 PUSH2 0x526 PUSH1 0x40 SWAP4 PUSH2 0xC81 SWAP4 CALLDATASIZE SWAP2 ADD PUSH2 0x1C57 JUMP JUMPDEST DUP2 ADD PUSH1 0x9 DUP2 MSTORE SUB ADD SWAP1 KECCAK256 SLOAD SWAP2 PUSH2 0xC98 DUP4 ISZERO ISZERO PUSH2 0x1E5B JUMP JUMPDEST DUP3 DUP2 MSTORE PUSH1 0x7 PUSH1 0x20 MSTORE KECCAK256 SWAP1 PUSH1 0x1 DUP1 PUSH1 0xA0 SHL SUB PUSH1 0x2 DUP4 ADD SLOAD AND PUSH2 0x203 PUSH2 0xCC3 PUSH1 0xFF PUSH1 0x6 DUP7 ADD SLOAD AND SWAP5 PUSH2 0x1B46 JUMP JUMPDEST SWAP4 PUSH2 0xCE0 PUSH1 0x40 MLOAD SWAP6 DUP7 SWAP6 DUP7 MSTORE PUSH1 0x80 PUSH1 0x20 DUP8 ADD MSTORE PUSH1 0x80 DUP7 ADD SWAP1 PUSH2 0x1C0F JUMP JUMPDEST SWAP3 PUSH1 0x40 DUP6 ADD MSTORE PUSH1 0x60 DUP5 ADD SWAP1 PUSH2 0x1C34 JUMP JUMPDEST DUP3 CALLVALUE PUSH2 0x1B1 JUMPI DUP1 PUSH1 0x3 NOT CALLDATASIZE ADD SLT PUSH2 0x1B1 JUMPI PUSH1 0x20 PUSH1 0x40 MLOAD PUSH2 0x3E8 DUP2 MSTORE RETURN JUMPDEST DUP3 CALLVALUE PUSH2 0x1B1 JUMPI PUSH1 0x40 CALLDATASIZE PUSH1 0x3 NOT ADD SLT PUSH2 0x1B1 JUMPI PUSH1 0x40 PUSH1 0xA SWAP2 PUSH2 0xD2C PUSH2 0x1CC4 JUMP JUMPDEST SWAP4 CALLDATALOAD DUP2 MSTORE PUSH1 0x7 PUSH1 0x20 MSTORE KECCAK256 ADD SWAP1 PUSH1 0x1 DUP1 PUSH1 0xA0 SHL SUB AND PUSH1 0x0 MSTORE PUSH1 0x20 MSTORE PUSH1 0x20 PUSH1 0xFF PUSH1 0x40 PUSH1 0x0 KECCAK256 SLOAD AND PUSH1 0x40 MLOAD SWAP1 ISZERO ISZERO DUP2 MSTORE RETURN JUMPDEST SWAP1 POP CALLVALUE PUSH2 0x207 JUMPI PUSH1 0x40 CALLDATASIZE PUSH1 0x3 NOT ADD SLT PUSH2 0x207 JUMPI DUP1 CALLDATALOAD SWAP1 PUSH1 0x24 DUP1 CALLDATALOAD SWAP1 DUP2 ISZERO ISZERO SWAP1 DUP2 DUP4 SUB PUSH2 0x1185 JUMPI DUP5 DUP7 MSTORE PUSH1 0x20 SWAP3 PUSH1 0x7 DUP5 MSTORE PUSH1 0x40 DUP8 KECCAK256 SWAP1 PUSH1 0xFF PUSH1 0x6 DUP4 ADD SLOAD AND PUSH1 0x5 DUP2 LT ISZERO PUSH2 0x1173 JUMPI PUSH1 0x2 SUB PUSH2 0x1130 JUMPI PUSH1 0xE DUP3 ADD SLOAD TIMESTAMP GT PUSH2 0x10F7 JUMPI PUSH1 0xA DUP3 ADD SWAP3 CALLER PUSH1 0x0 MSTORE DUP4 DUP7 MSTORE PUSH1 0xFF PUSH1 0x40 PUSH1 0x0 KECCAK256 SLOAD AND PUSH2 0x10C5 JUMPI PUSH1 0x1 SLOAD PUSH1 0x40 MLOAD PUSH4 0x70A08231 PUSH1 0xE0 SHL DUP2 MSTORE CALLER DUP10 DUP3 ADD MSTORE SWAP1 PUSH1 0x1 PUSH1 0x1 PUSH1 0xA0 SHL SUB AND DUP8 DUP3 DUP5 DUP2 DUP5 GAS STATICCALL SWAP2 DUP3 ISZERO PUSH2 0x1048 JUMPI DUP12 SWAP3 PUSH2 0x1096 JUMPI JUMPDEST POP PUSH9 0x56BC75E2D63100000 DUP3 LT PUSH2 0x1053 JUMPI SWAP1 DUP8 DUP10 SWAP3 PUSH1 0x40 MLOAD SWAP4 DUP5 DUP1 SWAP3 PUSH4 0x18160DDD PUSH1 0xE0 SHL DUP3 MSTORE GAS STATICCALL SWAP2 DUP3 ISZERO PUSH2 0x1048 JUMPI DUP12 SWAP3 PUSH2 0x1014 JUMPI JUMPDEST POP PUSH2 0x2710 SWAP1 DUP2 DUP2 MUL SWAP2 DUP2 DUP4 DIV EQ SWAP1 ISZERO OR ISZERO PUSH2 0x1002 JUMPI DUP2 ISZERO PUSH2 0xFF0 JUMPI DIV SWAP4 PUSH1 0x40 MLOAD SWAP2 PUSH1 0x60 DUP4 ADD SWAP1 DUP4 DUP3 LT PUSH8 0xFFFFFFFFFFFFFFFF DUP4 GT OR PUSH2 0xFDD JUMPI POP PUSH2 0xECD SWAP3 SWAP2 PUSH1 0x2 SWAP2 PUSH1 0x40 MSTORE PUSH1 0x1 DUP4 MSTORE DUP9 DUP4 ADD DUP8 DUP2 MSTORE PUSH1 0x40 DUP5 ADD SWAP2 DUP10 DUP4 MSTORE CALLER PUSH1 0x0 MSTORE DUP11 MSTORE PUSH2 0xEB1 PUSH1 0x40 PUSH1 0x0 KECCAK256 SWAP5 MLOAD ISZERO ISZERO DUP6 SWAP1 PUSH1 0xFF DUP1 NOT DUP4 SLOAD AND SWAP2 ISZERO ISZERO AND OR SWAP1 SSTORE JUMP JUMPDEST MLOAD PUSH1 0x1 DUP5 ADD SSTORE MLOAD ISZERO ISZERO SWAP2 ADD SWAP1 PUSH1 0xFF DUP1 NOT DUP4 SLOAD AND SWAP2 ISZERO ISZERO AND OR SWAP1 SSTORE JUMP JUMPDEST ISZERO PUSH2 0xFC8 JUMPI PUSH1 0xB ADD PUSH2 0xEE0 DUP3 DUP3 SLOAD PUSH2 0x1DAE JUMP JUMPDEST SWAP1 SSTORE JUMPDEST PUSH1 0x40 MLOAD SWAP2 DUP3 MSTORE DUP3 DUP3 ADD MSTORE DUP4 PUSH32 0xCBDF6214089CBA887ECBF35A0B6A734589959C9763342C756BB2A80CA2BC9F6E PUSH1 0x40 CALLER SWAP4 LOG3 DUP3 DUP5 MSTORE PUSH1 0x7 DUP2 MSTORE PUSH1 0x40 DUP5 KECCAK256 SWAP1 PUSH1 0xE DUP3 ADD SLOAD TIMESTAMP GT PUSH2 0xF2F JUMPI DUP5 DUP1 RETURN JUMPDEST PUSH1 0xB DUP3 ADD SLOAD SWAP3 PUSH1 0xC DUP4 ADD SLOAD PUSH2 0xBB8 PUSH2 0xF47 DUP3 DUP8 PUSH2 0x1DAE JUMP JUMPDEST LT ISZERO PUSH2 0xF54 JUMPI JUMPDEST POP POP DUP5 DUP1 RETURN JUMPDEST PUSH1 0x6 PUSH1 0x40 SWAP5 PUSH2 0xFA9 SWAP4 PUSH1 0xFF SWAP4 PUSH32 0xF75C354D0772E6386C514DE8E03BE6B7FB27FE941335CAA779EE1B9F34FE0C1E SWAP9 GT PUSH1 0x0 EQ PUSH2 0xFB5 JUMPI DUP3 DUP3 ADD SWAP1 DUP5 NOT DUP3 SLOAD AND OR SWAP1 SSTORE JUMPDEST ADD SLOAD AND DUP4 MLOAD SWAP3 PUSH1 0x2 DUP5 MSTORE DUP4 ADD SWAP1 PUSH2 0x1C34 JUMP JUMPDEST LOG2 CODESIZE DUP1 DUP1 DUP1 DUP1 DUP1 PUSH2 0xF4E JUMP JUMPDEST POP DUP2 DUP2 ADD PUSH1 0x3 DUP5 NOT DUP3 SLOAD AND OR SWAP1 SSTORE PUSH2 0xF97 JUMP JUMPDEST PUSH1 0xC ADD PUSH2 0xFD6 DUP3 DUP3 SLOAD PUSH2 0x1DAE JUMP JUMPDEST SWAP1 SSTORE PUSH2 0xEE3 JUMP JUMPDEST PUSH4 0x4E487B71 PUSH1 0xE0 SHL PUSH1 0x0 SWAP1 DUP2 MSTORE PUSH1 0x41 DUP12 MSTORE REVERT JUMPDEST PUSH4 0x4E487B71 PUSH1 0xE0 SHL DUP12 MSTORE PUSH1 0x12 DUP10 MSTORE DUP3 DUP12 REVERT JUMPDEST PUSH4 0x4E487B71 PUSH1 0xE0 SHL DUP12 MSTORE PUSH1 0x11 DUP10 MSTORE DUP3 DUP12 REVERT JUMPDEST SWAP1 SWAP2 POP DUP8 DUP2 DUP2 RETURNDATASIZE DUP4 GT PUSH2 0x1041 JUMPI JUMPDEST PUSH2 0x102C DUP2 DUP4 PUSH2 0x1B24 JUMP JUMPDEST DUP2 ADD SUB SLT PUSH2 0x103C JUMPI MLOAD SWAP1 CODESIZE PUSH2 0xE36 JUMP JUMPDEST PUSH1 0x0 DUP1 REVERT JUMPDEST POP RETURNDATASIZE PUSH2 0x1022 JUMP JUMPDEST PUSH1 0x40 MLOAD RETURNDATASIZE DUP14 DUP3 RETURNDATACOPY RETURNDATASIZE SWAP1 REVERT JUMPDEST PUSH1 0x40 MLOAD PUSH3 0x461BCD PUSH1 0xE5 SHL DUP2 MSTORE DUP1 DUP11 ADD DUP10 SWAP1 MSTORE PUSH1 0x19 DUP2 DUP6 ADD MSTORE PUSH32 0x496E73756666696369656E7420766F74696E6720706F77657200000000000000 PUSH1 0x44 DUP3 ADD MSTORE PUSH1 0x64 SWAP1 REVERT JUMPDEST SWAP1 SWAP2 POP DUP8 DUP2 DUP2 RETURNDATASIZE DUP4 GT PUSH2 0x10BE JUMPI JUMPDEST PUSH2 0x10AE DUP2 DUP4 PUSH2 0x1B24 JUMP JUMPDEST DUP2 ADD SUB SLT PUSH2 0x103C JUMPI MLOAD SWAP1 CODESIZE PUSH2 0xE00 JUMP JUMPDEST POP RETURNDATASIZE PUSH2 0x10A4 JUMP JUMPDEST DUP7 PUSH1 0xD PUSH1 0x64 SWAP3 DUP9 PUSH1 0x40 MLOAD SWAP4 PUSH3 0x461BCD PUSH1 0xE5 SHL DUP6 MSTORE DUP5 ADD MSTORE DUP3 ADD MSTORE PUSH13 0x105B1C9958591E481D9BDD1959 PUSH1 0x9A SHL PUSH1 0x44 DUP3 ADD MSTORE REVERT JUMPDEST PUSH1 0x40 MLOAD PUSH3 0x461BCD PUSH1 0xE5 SHL DUP2 MSTORE DUP1 DUP8 ADD DUP7 SWAP1 MSTORE PUSH1 0x13 DUP2 DUP6 ADD MSTORE PUSH19 0x159BDD1A5B99C81C195C9A5BD908195B991959 PUSH1 0x6A SHL PUSH1 0x44 DUP3 ADD MSTORE PUSH1 0x64 SWAP1 REVERT JUMPDEST PUSH1 0x40 MLOAD PUSH3 0x461BCD PUSH1 0xE5 SHL DUP2 MSTORE DUP1 DUP8 ADD DUP7 SWAP1 MSTORE PUSH1 0x1B DUP2 DUP6 ADD MSTORE PUSH32 0x50726F6A656374206E6F7420696E20766F74696E672070686173650000000000 PUSH1 0x44 DUP3 ADD MSTORE PUSH1 0x64 SWAP1 REVERT JUMPDEST PUSH4 0x4E487B71 PUSH1 0xE0 SHL DUP10 MSTORE PUSH1 0x21 DUP8 MSTORE DUP4 DUP10 REVERT JUMPDEST DUP6 DUP1 REVERT JUMPDEST DUP3 CALLVALUE PUSH2 0x1B1 JUMPI PUSH1 0x20 CALLDATASIZE PUSH1 0x3 NOT ADD SLT PUSH2 0x1B1 JUMPI PUSH2 0x11A3 PUSH2 0x1CAE JUMP JUMPDEST PUSH2 0x11AB PUSH2 0x1CDA JUMP JUMPDEST PUSH1 0x1 PUSH1 0x1 PUSH1 0xA0 SHL SUB AND DUP1 DUP3 MSTORE PUSH1 0x5 PUSH1 0x20 MSTORE PUSH1 0x40 DUP3 KECCAK256 SLOAD PUSH2 0x11CD SWAP1 PUSH1 0xFF AND PUSH2 0x1D06 JUMP JUMPDEST DUP1 DUP3 MSTORE PUSH1 0x5 PUSH1 0x20 MSTORE PUSH1 0x40 DUP3 KECCAK256 DUP1 SLOAD PUSH1 0xFF NOT AND SWAP1 SSTORE PUSH32 0xE1434E25D6611E0DB941968FDC97811C982AC1602E951637D206F5FDDA9DD8F1 DUP3 DUP1 LOG2 DUP1 RETURN JUMPDEST SWAP1 POP CALLVALUE PUSH2 0x207 JUMPI DUP2 PUSH1 0x3 NOT CALLDATASIZE ADD SLT PUSH2 0x207 JUMPI PUSH1 0x20 SWAP1 SLOAD PUSH1 0x40 MLOAD SWAP1 DUP2 MSTORE RETURN JUMPDEST DUP3 CALLVALUE PUSH2 0x1B1 JUMPI DUP1 PUSH1 0x3 NOT CALLDATASIZE ADD SLT PUSH2 0x1B1 JUMPI PUSH1 0x20 PUSH1 0x8 SLOAD PUSH1 0x40 MLOAD SWAP1 DUP2 MSTORE RETURN JUMPDEST SWAP1 POP CALLVALUE PUSH2 0x207 JUMPI PUSH1 0x80 CALLDATASIZE PUSH1 0x3 NOT ADD SLT PUSH2 0x207 JUMPI PUSH8 0xFFFFFFFFFFFFFFFF SWAP1 DUP1 CALLDATALOAD DUP3 DUP2 GT PUSH2 0x16A1 JUMPI PUSH2 0x1277 SWAP1 CALLDATASIZE SWAP1 DUP4 ADD PUSH2 0x1C57 JUMP JUMPDEST SWAP1 PUSH1 0x24 CALLDATALOAD DUP4 DUP2 GT PUSH2 0x80E JUMPI PUSH2 0x128F SWAP1 CALLDATASIZE SWAP1 DUP4 ADD PUSH2 0x1C57 JUMP JUMPDEST PUSH1 0x44 CALLDATALOAD DUP5 DUP2 GT PUSH2 0x1185 JUMPI PUSH2 0x12A6 SWAP1 CALLDATASIZE SWAP1 DUP5 ADD PUSH2 0x1C57 JUMP JUMPDEST SWAP5 DUP4 MLOAD ISZERO PUSH2 0x1667 JUMPI PUSH1 0x40 MLOAD PUSH1 0x20 DUP2 DUP7 MLOAD PUSH2 0x12C3 DUP2 DUP4 DUP6 DUP12 ADD PUSH2 0x1BEC JUMP JUMPDEST DUP2 ADD PUSH1 0x9 DUP2 MSTORE SUB ADD SWAP1 KECCAK256 SLOAD PUSH2 0x1623 JUMPI PUSH2 0x12DD PUSH1 0x8 SLOAD PUSH2 0x1D44 JUMP JUMPDEST SWAP5 DUP6 PUSH1 0x8 SSTORE DUP6 DUP3 MSTORE PUSH1 0x7 PUSH1 0x20 MSTORE PUSH1 0x40 DUP3 KECCAK256 SWAP4 DUP4 MLOAD DUP3 DUP2 GT PUSH2 0x1610 JUMPI PUSH2 0x1302 DUP7 SLOAD PUSH2 0x1AC0 JUMP JUMPDEST PUSH1 0x1F DUP2 GT PUSH2 0x15CB JUMPI JUMPDEST POP DUP1 PUSH1 0x20 PUSH1 0x1F DUP3 GT PUSH1 0x1 EQ PUSH2 0x1569 JUMPI DUP6 SWAP2 PUSH2 0x155E JUMPI JUMPDEST POP DUP2 PUSH1 0x1 SHL SWAP2 PUSH1 0x0 NOT SWAP1 PUSH1 0x3 SHL SHR NOT AND OR DUP6 SSTORE JUMPDEST DUP8 MLOAD SWAP2 DUP3 GT PUSH2 0x154B JUMPI POP PUSH2 0x134C PUSH1 0x1 DUP6 ADD SLOAD PUSH2 0x1AC0 JUMP JUMPDEST PUSH1 0x1F DUP2 GT PUSH2 0x1503 JUMPI JUMPDEST POP PUSH1 0x20 SWAP7 DUP8 SWAP1 PUSH1 0x1F DUP4 GT PUSH1 0x1 EQ PUSH2 0x1471 JUMPI SWAP3 DUP3 PUSH2 0x1439 SWAP4 PUSH1 0x40 SWAP7 SWAP4 PUSH32 0x7678349BBA1C48C89D616C5A2C61104739C59FE67B3AD19680CC94323242808F SWAP10 SWAP9 SWAP7 DUP5 SWAP3 PUSH2 0x1466 JUMPI JUMPDEST POP POP DUP2 PUSH1 0x1 SHL SWAP2 PUSH1 0x0 NOT SWAP1 PUSH1 0x3 SHL SHR NOT AND OR PUSH1 0x1 DUP6 ADD SSTORE JUMPDEST PUSH1 0x5 PUSH1 0x64 CALLDATALOAD SWAP5 DUP6 PUSH1 0x3 DUP3 ADD SSTORE PUSH1 0x2 DUP2 ADD CALLER PUSH12 0xFFFFFFFFFFFFFFFFFFFFFFFF PUSH1 0xA0 SHL DUP3 SLOAD AND OR SWAP1 SSTORE PUSH1 0x6 DUP2 ADD PUSH1 0xFF NOT DUP2 SLOAD AND SWAP1 SSTORE TIMESTAMP PUSH1 0x7 DUP3 ADD SSTORE ADD SSTORE DUP7 DUP5 MLOAD DUP10 DUP2 DUP9 MLOAD PUSH2 0x1402 DUP2 DUP4 DUP6 DUP14 ADD PUSH2 0x1BEC JUMP JUMPDEST DUP2 ADD PUSH1 0x9 DUP2 MSTORE SUB ADD SWAP1 KECCAK256 SSTORE PUSH2 0x1421 DUP5 MLOAD SWAP6 PUSH1 0xC0 DUP8 MSTORE PUSH1 0xC0 DUP8 ADD SWAP1 PUSH2 0x1C0F JUMP JUMPDEST SWAP1 DUP8 DUP10 DUP8 ADD MSTORE CALLER DUP6 DUP8 ADD MSTORE DUP6 DUP3 SUB PUSH1 0x60 DUP8 ADD MSTORE PUSH2 0x1C0F JUMP JUMPDEST SWAP1 PUSH1 0x80 DUP5 ADD MSTORE PUSH7 0x50656E64696E67 PUSH1 0xC8 SHL DUP7 DUP5 DUP4 SUB SWAP3 DUP4 PUSH1 0xA0 DUP8 ADD MSTORE PUSH1 0x7 DUP2 MSTORE ADD MSTORE ADD SWAP1 LOG1 PUSH1 0x40 MLOAD SWAP1 DUP2 MSTORE RETURN JUMPDEST ADD MLOAD SWAP1 POP CODESIZE DUP1 PUSH2 0x139B JUMP JUMPDEST PUSH1 0x1 DUP7 ADD DUP5 MSTORE DUP9 DUP5 KECCAK256 SWAP2 SWAP1 PUSH1 0x1F NOT DUP5 AND DUP6 JUMPDEST DUP2 DUP2 LT PUSH2 0x14EC JUMPI POP SWAP4 PUSH1 0x40 SWAP7 SWAP4 PUSH32 0x7678349BBA1C48C89D616C5A2C61104739C59FE67B3AD19680CC94323242808F SWAP10 SWAP9 SWAP7 SWAP4 PUSH1 0x1 SWAP4 DUP4 PUSH2 0x1439 SWAP9 LT PUSH2 0x14D3 JUMPI JUMPDEST POP POP POP DUP2 SHL ADD PUSH1 0x1 DUP6 ADD SSTORE PUSH2 0x13B3 JUMP JUMPDEST ADD MLOAD PUSH1 0x0 NOT PUSH1 0xF8 DUP5 PUSH1 0x3 SHL AND SHR NOT AND SWAP1 SSTORE CODESIZE DUP1 DUP1 PUSH2 0x14C3 JUMP JUMPDEST SWAP3 SWAP4 DUP12 PUSH1 0x1 DUP2 SWAP3 DUP8 DUP7 ADD MLOAD DUP2 SSTORE ADD SWAP6 ADD SWAP4 ADD PUSH2 0x1483 JUMP JUMPDEST PUSH1 0x1 DUP6 ADD DUP4 MSTORE PUSH1 0x20 DUP4 KECCAK256 PUSH1 0x1F DUP4 ADD PUSH1 0x5 SHR DUP2 ADD SWAP2 PUSH1 0x20 DUP5 LT PUSH2 0x1541 JUMPI JUMPDEST PUSH1 0x1F ADD PUSH1 0x5 SHR ADD SWAP1 JUMPDEST DUP2 DUP2 LT PUSH2 0x1536 JUMPI POP PUSH2 0x1355 JUMP JUMPDEST DUP4 DUP2 SSTORE PUSH1 0x1 ADD PUSH2 0x1529 JUMP JUMPDEST SWAP1 SWAP2 POP DUP2 SWAP1 PUSH2 0x1520 JUMP JUMPDEST PUSH4 0x4E487B71 PUSH1 0xE0 SHL DUP4 MSTORE PUSH1 0x41 SWAP1 MSTORE PUSH1 0x24 DUP3 REVERT JUMPDEST SWAP1 POP DUP6 ADD MLOAD CODESIZE PUSH2 0x1321 JUMP JUMPDEST DUP8 DUP7 MSTORE PUSH1 0x20 DUP7 KECCAK256 SWAP2 POP PUSH1 0x1F NOT DUP4 AND DUP7 JUMPDEST DUP2 DUP2 LT PUSH2 0x15B3 JUMPI POP SWAP1 DUP4 PUSH1 0x1 SWAP5 SWAP4 SWAP3 LT PUSH2 0x159A JUMPI JUMPDEST POP POP DUP2 SHL ADD DUP6 SSTORE PUSH2 0x1335 JUMP JUMPDEST DUP8 ADD MLOAD PUSH1 0x0 NOT PUSH1 0xF8 DUP5 PUSH1 0x3 SHL AND SHR NOT AND SWAP1 SSTORE CODESIZE DUP1 PUSH2 0x158E JUMP JUMPDEST SWAP2 SWAP3 PUSH1 0x20 PUSH1 0x1 DUP2 SWAP3 DUP7 DUP13 ADD MLOAD DUP2 SSTORE ADD SWAP5 ADD SWAP3 ADD PUSH2 0x1579 JUMP JUMPDEST DUP7 DUP6 MSTORE PUSH1 0x20 DUP6 KECCAK256 PUSH1 0x1F DUP4 ADD PUSH1 0x5 SHR DUP2 ADD SWAP2 PUSH1 0x20 DUP5 LT PUSH2 0x1606 JUMPI JUMPDEST PUSH1 0x1F ADD PUSH1 0x5 SHR ADD SWAP1 JUMPDEST DUP2 DUP2 LT PUSH2 0x15FB JUMPI POP PUSH2 0x130B JUMP JUMPDEST DUP6 DUP2 SSTORE PUSH1 0x1 ADD PUSH2 0x15EE JUMP JUMPDEST SWAP1 SWAP2 POP DUP2 SWAP1 PUSH2 0x15E5 JUMP JUMPDEST PUSH4 0x4E487B71 PUSH1 0xE0 SHL DUP5 MSTORE PUSH1 0x41 DUP3 MSTORE PUSH1 0x24 DUP5 REVERT JUMPDEST PUSH1 0x40 MLOAD PUSH3 0x461BCD PUSH1 0xE5 SHL DUP2 MSTORE PUSH1 0x20 DUP2 DUP6 ADD MSTORE PUSH1 0x1A PUSH1 0x24 DUP3 ADD MSTORE PUSH32 0x50726F706F73616C20494420616C726561647920657869737473000000000000 PUSH1 0x44 DUP3 ADD MSTORE PUSH1 0x64 SWAP1 REVERT JUMPDEST PUSH1 0x40 MLOAD PUSH3 0x461BCD PUSH1 0xE5 SHL DUP2 MSTORE PUSH1 0x20 DUP2 DUP6 ADD MSTORE PUSH1 0x13 PUSH1 0x24 DUP3 ADD MSTORE PUSH19 0x125B9D985B1A59081C1C9BDC1BDCD85B081251 PUSH1 0x6A SHL PUSH1 0x44 DUP3 ADD MSTORE PUSH1 0x64 SWAP1 REVERT JUMPDEST DUP4 DUP1 REVERT JUMPDEST DUP3 CALLVALUE PUSH2 0x1B1 JUMPI DUP1 PUSH1 0x3 NOT CALLDATASIZE ADD SLT PUSH2 0x1B1 JUMPI PUSH1 0x20 PUSH1 0x40 MLOAD PUSH9 0x56BC75E2D63100000 DUP2 MSTORE RETURN JUMPDEST DUP3 CALLVALUE PUSH2 0x1B1 JUMPI PUSH1 0x20 CALLDATASIZE PUSH1 0x3 NOT ADD SLT PUSH2 0x1B1 JUMPI DUP2 CALLDATALOAD DUP2 MSTORE PUSH1 0x7 PUSH1 0x20 MSTORE PUSH1 0x40 SWAP1 KECCAK256 PUSH2 0x16F1 DUP2 PUSH2 0x1B46 JUMP JUMPDEST SWAP1 PUSH2 0x16FE PUSH1 0x1 DUP3 ADD PUSH2 0x1B46 JUMP JUMPDEST SWAP3 PUSH1 0x1 PUSH1 0xA0 SHL PUSH1 0x1 SWAP1 SUB PUSH1 0x2 DUP4 ADD SLOAD AND SWAP2 PUSH1 0x3 DUP2 ADD SLOAD SWAP2 DUP2 ADD SLOAD PUSH1 0x5 DUP3 ADD SLOAD PUSH1 0x6 DUP4 ADD SLOAD PUSH1 0xFF AND PUSH1 0x7 DUP5 ADD SLOAD PUSH1 0xB DUP6 ADD SLOAD SWAP2 PUSH1 0xC DUP7 ADD SLOAD SWAP4 PUSH1 0xD DUP8 ADD SLOAD SWAP6 PUSH1 0xE DUP9 ADD SLOAD SWAP8 PUSH1 0xF ADD SLOAD PUSH1 0xFF AND SWAP9 PUSH1 0x40 MLOAD SWAP13 DUP14 SWAP13 DUP14 PUSH2 0x1A0 SWAP1 DUP2 DUP2 MSTORE ADD PUSH2 0x1762 SWAP2 PUSH2 0x1C0F JUMP JUMPDEST DUP14 DUP2 SUB PUSH1 0x20 DUP16 ADD MSTORE PUSH2 0x1773 SWAP2 PUSH2 0x1C0F JUMP JUMPDEST SWAP11 PUSH1 0x40 DUP14 ADD MSTORE PUSH1 0x60 DUP13 ADD MSTORE PUSH1 0x80 DUP12 ADD MSTORE PUSH1 0xA0 DUP11 ADD MSTORE PUSH1 0xC0 DUP10 ADD PUSH2 0x1795 SWAP2 PUSH2 0x1C34 JUMP JUMPDEST PUSH1 0xE0 DUP9 ADD MSTORE PUSH2 0x100 DUP8 ADD MSTORE PUSH2 0x120 DUP7 ADD MSTORE PUSH2 0x140 DUP6 ADD MSTORE PUSH2 0x160 DUP5 ADD MSTORE ISZERO ISZERO PUSH2 0x180 DUP4 ADD MSTORE SUB SWAP1 RETURN JUMPDEST DUP3 CALLVALUE PUSH2 0x1B1 JUMPI DUP1 PUSH1 0x3 NOT CALLDATASIZE ADD SLT PUSH2 0x1B1 JUMPI PUSH1 0x20 PUSH1 0x3 SLOAD PUSH1 0x40 MLOAD SWAP1 DUP2 MSTORE RETURN JUMPDEST SWAP2 POP CALLVALUE PUSH2 0x595 JUMPI PUSH1 0x40 CALLDATASIZE PUSH1 0x3 NOT ADD SLT PUSH2 0x595 JUMPI DUP1 CALLDATALOAD SWAP1 PUSH1 0x24 DUP1 CALLDATALOAD SWAP4 DUP4 DUP7 MSTORE PUSH1 0x20 PUSH1 0x7 DUP2 MSTORE PUSH1 0x40 DUP8 KECCAK256 SWAP4 PUSH1 0x6 DUP6 ADD SWAP3 PUSH1 0xFF DUP5 SLOAD AND PUSH1 0x5 DUP2 LT ISZERO PUSH2 0x1AAE JUMPI PUSH1 0x2 SUB PUSH2 0x1A79 JUMPI POP DUP1 DUP6 ADD SWAP5 DUP6 SLOAD SWAP1 PUSH1 0x3 DUP2 ADD SWAP2 DUP3 SLOAD GT ISZERO PUSH2 0x1A3F JUMPI PUSH2 0x183D DUP10 PUSH2 0x1E2D JUMP JUMPDEST PUSH1 0x1 SLOAD PUSH1 0x40 MLOAD PUSH4 0x70A08231 PUSH1 0xE0 SHL DUP2 MSTORE CALLER DUP7 DUP3 ADD MSTORE SWAP2 SWAP8 PUSH1 0x1 PUSH1 0x1 PUSH1 0xA0 SHL SUB SWAP1 SWAP2 AND SWAP2 DUP13 SWAP1 DUP8 DUP2 DUP5 DUP2 DUP8 GAS STATICCALL SWAP1 DUP2 ISZERO PUSH2 0x1A34 JUMPI DUP11 SWAP3 SWAP2 PUSH2 0x19FF JUMPI JUMPDEST POP LT PUSH2 0x19BD JUMPI POP DUP1 EXTCODESIZE ISZERO PUSH2 0x19B9 JUMPI PUSH1 0x40 DUP1 MLOAD PUSH4 0x79CC679 PUSH1 0xE4 SHL DUP2 MSTORE CALLER DUP7 DUP3 ADD SWAP1 DUP2 MSTORE PUSH1 0x20 DUP2 ADD DUP11 SWAP1 MSTORE SWAP1 SWAP3 DUP14 SWAP3 DUP5 SWAP3 DUP4 SWAP2 DUP6 SWAP2 DUP4 SWAP2 ADD SUB SWAP3 GAS CALL DUP1 ISZERO PUSH2 0x1048 JUMPI PUSH2 0x1975 JUMPI JUMPDEST POP SWAP2 DUP8 SWAP4 SWAP2 PUSH1 0x9 PUSH32 0x13E687E87E690512FAB0E69A4D3B9B51AFCCD53BA1BA54AA4C23AE3F60522BAF SWAP9 SWAP8 SWAP7 SWAP5 CALLER PUSH1 0x0 MSTORE ADD DUP4 MSTORE PUSH1 0x40 PUSH1 0x0 KECCAK256 PUSH2 0x1901 DUP12 DUP3 SLOAD PUSH2 0x1DAE JUMP JUMPDEST SWAP1 SSTORE PUSH2 0x190E DUP11 DUP9 SLOAD PUSH2 0x1DAE JUMP JUMPDEST DUP1 SWAP8 SSTORE SLOAD DUP7 LT ISZERO PUSH2 0x1939 JUMPI JUMPDEST POP POP PUSH1 0x40 DUP1 MLOAD SWAP8 DUP9 MSTORE PUSH1 0x20 DUP9 ADD SWAP4 SWAP1 SWAP4 MSTORE POP POP DUP5 ADD MSTORE CALLER SWAP3 PUSH1 0x60 SWAP1 LOG3 DUP1 RETURN JUMPDEST PUSH32 0x8FB6FDA973F304B2834C4147004045448416C05B253872373AC5B19F4A5B7A5D SWAP3 DUP2 PUSH1 0xFF NOT DUP3 SLOAD AND OR SWAP1 SSTORE PUSH1 0x40 MLOAD SWAP1 DUP2 MSTORE LOG2 DUP4 CODESIZE DUP1 DUP1 PUSH2 0x191A JUMP JUMPDEST SWAP2 PUSH1 0x9 PUSH32 0x13E687E87E690512FAB0E69A4D3B9B51AFCCD53BA1BA54AA4C23AE3F60522BAF SWAP9 SWAP8 SWAP7 SWAP5 SWAP3 SWAP12 PUSH2 0x19AA DUP12 SWAP8 SWAP6 PUSH2 0x1AFA JUMP JUMPDEST SWAP12 SWAP3 SWAP5 SWAP7 SWAP8 SWAP9 POP POP SWAP2 SWAP4 PUSH2 0x18BE JUMP JUMPDEST DUP11 DUP1 REVERT JUMPDEST DUP5 PUSH1 0x18 PUSH1 0x64 SWAP3 DUP9 PUSH1 0x40 MLOAD SWAP4 PUSH3 0x461BCD PUSH1 0xE5 SHL DUP6 MSTORE DUP5 ADD MSTORE DUP3 ADD MSTORE PUSH32 0x496E73756666696369656E7420574C442062616C616E63650000000000000000 PUSH1 0x44 DUP3 ADD MSTORE REVERT JUMPDEST DUP1 SWAP3 POP DUP9 DUP1 SWAP3 POP RETURNDATASIZE DUP4 GT PUSH2 0x1A2D JUMPI JUMPDEST PUSH2 0x1A18 DUP2 DUP4 PUSH2 0x1B24 JUMP JUMPDEST DUP2 ADD SUB SLT PUSH2 0x1A29 JUMPI DUP9 SWAP1 MLOAD CODESIZE PUSH2 0x1878 JUMP JUMPDEST DUP13 DUP1 REVERT JUMPDEST POP RETURNDATASIZE PUSH2 0x1A0E JUMP JUMPDEST PUSH1 0x40 MLOAD RETURNDATASIZE DUP5 DUP3 RETURNDATACOPY RETURNDATASIZE SWAP1 REVERT JUMPDEST PUSH1 0x40 MLOAD PUSH3 0x461BCD PUSH1 0xE5 SHL DUP2 MSTORE DUP1 DUP5 ADD DUP6 SWAP1 MSTORE PUSH1 0x14 DUP2 DUP9 ADD MSTORE PUSH20 0x119D5B991A5B99C819DBD85B081C995858DA1959 PUSH1 0x62 SHL PUSH1 0x44 DUP3 ADD MSTORE PUSH1 0x64 SWAP1 REVERT JUMPDEST PUSH1 0x14 DUP6 DUP5 PUSH1 0x64 SWAP5 PUSH3 0x461BCD PUSH1 0xE5 SHL DUP6 MSTORE DUP5 ADD MSTORE DUP3 ADD MSTORE PUSH20 0x141C9BDA9958DD081B9BDD08185C1C1C9BDD9959 PUSH1 0x62 SHL PUSH1 0x44 DUP3 ADD MSTORE REVERT JUMPDEST PUSH4 0x4E487B71 PUSH1 0xE0 SHL DUP11 MSTORE PUSH1 0x21 DUP4 MSTORE DUP6 DUP11 REVERT JUMPDEST SWAP1 PUSH1 0x1 DUP3 DUP2 SHR SWAP3 AND DUP1 ISZERO PUSH2 0x1AF0 JUMPI JUMPDEST PUSH1 0x20 DUP4 LT EQ PUSH2 0x1ADA JUMPI JUMP JUMPDEST PUSH4 0x4E487B71 PUSH1 0xE0 SHL PUSH1 0x0 MSTORE PUSH1 0x22 PUSH1 0x4 MSTORE PUSH1 0x24 PUSH1 0x0 REVERT JUMPDEST SWAP2 PUSH1 0x7F AND SWAP2 PUSH2 0x1ACF JUMP JUMPDEST PUSH8 0xFFFFFFFFFFFFFFFF DUP2 GT PUSH2 0x1B0E JUMPI PUSH1 0x40 MSTORE JUMP JUMPDEST PUSH4 0x4E487B71 PUSH1 0xE0 SHL PUSH1 0x0 MSTORE PUSH1 0x41 PUSH1 0x4 MSTORE PUSH1 0x24 PUSH1 0x0 REVERT JUMPDEST SWAP1 PUSH1 0x1F DUP1 NOT SWAP2 ADD AND DUP2 ADD SWAP1 DUP2 LT PUSH8 0xFFFFFFFFFFFFFFFF DUP3 GT OR PUSH2 0x1B0E JUMPI PUSH1 0x40 MSTORE JUMP JUMPDEST SWAP1 PUSH1 0x40 MLOAD SWAP2 DUP3 PUSH1 0x0 DUP3 SLOAD SWAP3 PUSH2 0x1B5A DUP5 PUSH2 0x1AC0 JUMP JUMPDEST SWAP1 DUP2 DUP5 MSTORE PUSH1 0x1 SWAP5 DUP6 DUP2 AND SWAP1 DUP2 PUSH1 0x0 EQ PUSH2 0x1BC9 JUMPI POP PUSH1 0x1 EQ PUSH2 0x1B86 JUMPI JUMPDEST POP POP PUSH2 0x1B84 SWAP3 POP SUB DUP4 PUSH2 0x1B24 JUMP JUMPDEST JUMP JUMPDEST SWAP1 SWAP4 SWAP2 POP PUSH1 0x0 MSTORE PUSH1 0x20 SWAP1 DUP2 PUSH1 0x0 KECCAK256 SWAP4 PUSH1 0x0 SWAP2 JUMPDEST DUP2 DUP4 LT PUSH2 0x1BB1 JUMPI POP POP PUSH2 0x1B84 SWAP4 POP DUP3 ADD ADD CODESIZE DUP1 PUSH2 0x1B76 JUMP JUMPDEST DUP6 SLOAD DUP9 DUP5 ADD DUP6 ADD MSTORE SWAP5 DUP6 ADD SWAP5 DUP8 SWAP5 POP SWAP2 DUP4 ADD SWAP2 PUSH2 0x1B99 JUMP JUMPDEST SWAP2 POP POP PUSH2 0x1B84 SWAP5 POP PUSH1 0x20 SWAP3 POP PUSH1 0xFF NOT AND DUP3 DUP5 ADD MSTORE ISZERO ISZERO PUSH1 0x5 SHL DUP3 ADD ADD CODESIZE DUP1 PUSH2 0x1B76 JUMP JUMPDEST PUSH1 0x0 JUMPDEST DUP4 DUP2 LT PUSH2 0x1BFF JUMPI POP POP PUSH1 0x0 SWAP2 ADD MSTORE JUMP JUMPDEST DUP2 DUP2 ADD MLOAD DUP4 DUP3 ADD MSTORE PUSH1 0x20 ADD PUSH2 0x1BEF JUMP JUMPDEST SWAP1 PUSH1 0x20 SWAP2 PUSH2 0x1C28 DUP2 MLOAD DUP1 SWAP3 DUP2 DUP6 MSTORE DUP6 DUP1 DUP7 ADD SWAP2 ADD PUSH2 0x1BEC JUMP JUMPDEST PUSH1 0x1F ADD PUSH1 0x1F NOT AND ADD ADD SWAP1 JUMP JUMPDEST SWAP1 PUSH1 0x5 DUP3 LT ISZERO PUSH2 0x1C41 JUMPI MSTORE JUMP JUMPDEST PUSH4 0x4E487B71 PUSH1 0xE0 SHL PUSH1 0x0 MSTORE PUSH1 0x21 PUSH1 0x4 MSTORE PUSH1 0x24 PUSH1 0x0 REVERT JUMPDEST DUP2 PUSH1 0x1F DUP3 ADD SLT ISZERO PUSH2 0x103C JUMPI DUP1 CALLDATALOAD SWAP1 PUSH8 0xFFFFFFFFFFFFFFFF DUP3 GT PUSH2 0x1B0E JUMPI PUSH1 0x40 MLOAD SWAP3 PUSH2 0x1C8C PUSH1 0x1F DUP5 ADD PUSH1 0x1F NOT AND PUSH1 0x20 ADD DUP6 PUSH2 0x1B24 JUMP JUMPDEST DUP3 DUP5 MSTORE PUSH1 0x20 DUP4 DUP4 ADD ADD GT PUSH2 0x103C JUMPI DUP2 PUSH1 0x0 SWAP3 PUSH1 0x20 DUP1 SWAP4 ADD DUP4 DUP7 ADD CALLDATACOPY DUP4 ADD ADD MSTORE SWAP1 JUMP JUMPDEST PUSH1 0x4 CALLDATALOAD SWAP1 PUSH1 0x1 PUSH1 0x1 PUSH1 0xA0 SHL SUB DUP3 AND DUP3 SUB PUSH2 0x103C JUMPI JUMP JUMPDEST PUSH1 0x24 CALLDATALOAD SWAP1 PUSH1 0x1 PUSH1 0x1 PUSH1 0xA0 SHL SUB DUP3 AND DUP3 SUB PUSH2 0x103C JUMPI JUMP JUMPDEST PUSH1 0x0 SLOAD PUSH1 0x1 PUSH1 0x1 PUSH1 0xA0 SHL SUB AND CALLER SUB PUSH2 0x1CEE JUMPI JUMP JUMPDEST PUSH1 0x40 MLOAD PUSH4 0x118CDAA7 PUSH1 0xE0 SHL DUP2 MSTORE CALLER PUSH1 0x4 DUP3 ADD MSTORE PUSH1 0x24 SWAP1 REVERT JUMPDEST ISZERO PUSH2 0x1D0D JUMPI JUMP JUMPDEST PUSH1 0x40 MLOAD PUSH3 0x461BCD PUSH1 0xE5 SHL DUP2 MSTORE PUSH1 0x20 PUSH1 0x4 DUP3 ADD MSTORE PUSH1 0xF PUSH1 0x24 DUP3 ADD MSTORE PUSH15 0x2737BA1030903B30B634B230BA37B9 PUSH1 0x89 SHL PUSH1 0x44 DUP3 ADD MSTORE PUSH1 0x64 SWAP1 REVERT JUMPDEST PUSH1 0x0 NOT DUP2 EQ PUSH2 0x1D53 JUMPI PUSH1 0x1 ADD SWAP1 JUMP JUMPDEST PUSH4 0x4E487B71 PUSH1 0xE0 SHL PUSH1 0x0 MSTORE PUSH1 0x11 PUSH1 0x4 MSTORE PUSH1 0x24 PUSH1 0x0 REVERT JUMPDEST ISZERO PUSH2 0x1D70 JUMPI JUMP JUMPDEST PUSH1 0x40 MLOAD PUSH3 0x461BCD PUSH1 0xE5 SHL DUP2 MSTORE PUSH1 0x20 PUSH1 0x4 DUP3 ADD MSTORE PUSH1 0x16 PUSH1 0x24 DUP3 ADD MSTORE PUSH22 0x496E76616C69642070726F6A65637420737461747573 PUSH1 0x50 SHL PUSH1 0x44 DUP3 ADD MSTORE PUSH1 0x64 SWAP1 REVERT JUMPDEST SWAP2 SWAP1 DUP3 ADD DUP1 SWAP3 GT PUSH2 0x1D53 JUMPI JUMP JUMPDEST PUSH1 0x0 PUSH1 0x44 RETURNDATASIZE LT PUSH2 0x1E19 JUMPI PUSH1 0x40 MLOAD PUSH1 0x3 NOT SWAP2 RETURNDATASIZE DUP4 ADD PUSH1 0x4 DUP4 RETURNDATACOPY DUP2 MLOAD PUSH8 0xFFFFFFFFFFFFFFFF SWAP2 DUP3 DUP3 GT RETURNDATASIZE PUSH1 0x24 DUP5 ADD GT OR PUSH2 0x1E1C JUMPI DUP2 DUP5 ADD SWAP5 DUP6 MLOAD SWAP4 DUP5 GT PUSH2 0x1E24 JUMPI RETURNDATASIZE DUP6 ADD ADD PUSH1 0x20 DUP5 DUP8 ADD ADD GT PUSH2 0x1E1C JUMPI POP PUSH2 0x1E19 SWAP3 SWAP2 ADD PUSH1 0x20 ADD SWAP1 PUSH2 0x1B24 JUMP JUMPDEST SWAP1 JUMP JUMPDEST SWAP5 SWAP4 POP POP POP POP JUMP JUMPDEST POP SWAP5 SWAP4 POP POP POP POP JUMP JUMPDEST DUP1 DUP1 MUL SWAP1 DUP1 DUP3 DIV DUP2 EQ SWAP1 ISZERO OR ISZERO PUSH2 0x1D53 JUMPI PUSH8 0xDE0B6B3A7640000 SWAP1 DUP2 DUP2 MUL SWAP2 DUP2 DUP4 DIV EQ SWAP1 ISZERO OR ISZERO PUSH2 0x1D53 JUMPI SWAP1 JUMP JUMPDEST ISZERO PUSH2 0x1E62 JUMPI JUMP JUMPDEST PUSH1 0x40 MLOAD PUSH3 0x461BCD PUSH1 0xE5 SHL DUP2 MSTORE PUSH1 0x20 PUSH1 0x4 DUP3 ADD MSTORE PUSH1 0x12 PUSH1 0x24 DUP3 ADD MSTORE PUSH18 0x141C9BDC1BDCD85B081B9BDD08199BDD5B99 PUSH1 0x72 SHL PUSH1 0x44 DUP3 ADD MSTORE PUSH1 0x64 SWAP1 REVERT INVALID LOG2 PUSH5 0x6970667358 0x22 SLT KECCAK256 PUSH7 0x8FACA468F2EC8D 0xD3 PUSH1 0xD6 PUSH10 0xFD4241EB16C2B92C97CB 0xDD PUSH26 0xC984E6B347EF490564736F6C6343000814003300000000000000 "},"methodIdentifiers":{"AUTO_VALIDATION_PERIOD()":"9acbbf22","DAO_FEE()":"e9e6a349","MAX_DONATION()":"4857317e","MIN_DONATION()":"db45810e","MIN_VOTE_POWER()":"1e484e70","VOTE_COST()":"fe71b8ba","VOTING_PERIOD()":"b1610d7e","addValidator(address)":"4d238c8e","calculateVoteCost(uint256)":"8cf68776","checkAndAutoValidate(uint256)":"d3f7da25","donate(uint256,address)":"8004f9fa","exchangeRate()":"3ba0b9a9","getProjectByProposalId(string)":"4a856381","getProjectVotes(uint256)":"fdfda408","getProposalStatus(string)":"b56e725c","hasVoted(uint256,address)":"43859632","minValidationsRequired()":"5006e854","owner()":"8da5cb5b","projectCount()":"36fbad26","projects(uint256)":"107046bd","proposalIdToProjectId(string)":"b7b5bfc1","quadraticContribute(uint256,uint256)":"0735a326","rejectProject(uint256)":"69b04f19","removeValidator(address)":"40a141ff","renounceOwnership()":"715018a6","submitProject(string,string,string,uint256)":"2763b72a","totalValueLocked()":"ec18154e","totalWLD()":"0b5367ad","transferOwnership(address)":"f2fde38b","validateProject(uint256)":"57021469","validators(address)":"fa52c7d8","voteOnProject(uint256,bool)":"4339e612","wldToken()":"9be3783d"}}}}}