{"contracts/WildlifeDAO.sol":{"WildlifeDAO":{"abi":[{"inputs":[{"internalType":"address","name":"_wldToken","type":"address"}],"stateMutability":"nonpayable","type":"constructor"},{"inputs":[{"internalType":"address","name":"owner","type":"address"}],"name":"OwnableInvalidOwner","type":"error"},{"inputs":[{"internalType":"address","name":"account","type":"address"}],"name":"OwnableUnauthorizedAccount","type":"error"},{"anonymous":false,"inputs":[{"indexed":true,"internalType":"address","name":"donor","type":"address"},{"indexed":false,"internalType":"uint256","name":"usdAmount","type":"uint256"},{"indexed":false,"internalType":"uint256","name":"wldMinted","type":"uint256"},{"indexed":false,"internalType":"uint256","name":"daoFeeAmount","type":"uint256"}],"name":"DonationReceived","type":"event"},{"anonymous":false,"inputs":[{"indexed":true,"internalType":"address","name":"previousOwner","type":"address"},{"indexed":true,"internalType":"address","name":"newOwner","type":"address"}],"name":"OwnershipTransferred","type":"event"},{"anonymous":false,"inputs":[{"indexed":true,"internalType":"uint256","name":"projectId","type":"uint256"},{"indexed":false,"internalType":"enum WildlifeDAO.ProjectStatus","name":"oldStatus","type":"uint8"},{"indexed":false,"internalType":"enum WildlifeDAO.ProjectStatus","name":"newStatus","type":"uint8"}],"name":"ProjectStatusChanged","type":"event"},{"anonymous":false,"inputs":[{"indexed":true,"internalType":"uint256","name":"projectId","type":"uint256"},{"indexed":true,"internalType":"address","name":"submitter","type":"address"},{"indexed":false,"internalType":"string","name":"title","type":"string"},{"indexed":false,"internalType":"uint256","name":"fundingRequired","type":"uint256"},{"indexed":false,"internalType":"enum WildlifeDAO.ProjectStatus","name":"status","type":"uint8"}],"name":"ProposalSubmitted","type":"event"},{"anonymous":false,"inputs":[{"indexed":true,"internalType":"uint256","name":"projectId","type":"uint256"},{"indexed":true,"internalType":"address","name":"voter","type":"address"},{"indexed":false,"internalType":"bool","name":"support","type":"bool"},{"indexed":false,"internalType":"uint256","name":"votingPower","type":"uint256"}],"name":"VoteCast","type":"event"},{"inputs":[],"name":"DAO_FEE","outputs":[{"internalType":"uint256","name":"","type":"uint256"}],"stateMutability":"view","type":"function"},{"inputs":[],"name":"MAX_DONATION","outputs":[{"internalType":"uint256","name":"","type":"uint256"}],"stateMutability":"view","type":"function"},{"inputs":[],"name":"MIN_DONATION","outputs":[{"internalType":"uint256","name":"","type":"uint256"}],"stateMutability":"view","type":"function"},{"inputs":[],"name":"MIN_VOTE_POWER","outputs":[{"internalType":"uint256","name":"","type":"uint256"}],"stateMutability":"view","type":"function"},{"inputs":[],"name":"VOTE_COST","outputs":[{"internalType":"uint256","name":"","type":"uint256"}],"stateMutability":"view","type":"function"},{"inputs":[],"name":"VOTING_PERIOD","outputs":[{"internalType":"uint256","name":"","type":"uint256"}],"stateMutability":"view","type":"function"},{"inputs":[{"internalType":"uint256","name":"projectId","type":"uint256"},{"internalType":"address","name":"voter","type":"address"}],"name":"checkVoteEligibility","outputs":[{"internalType":"bool","name":"isEligible","type":"bool"},{"internalType":"string","name":"reason","type":"string"}],"stateMutability":"view","type":"function"},{"inputs":[{"internalType":"uint256","name":"projectId","type":"uint256"}],"name":"debugProjectStatus","outputs":[{"internalType":"enum WildlifeDAO.ProjectStatus","name":"status","type":"uint8"},{"internalType":"uint256","name":"currentTime","type":"uint256"},{"internalType":"uint256","name":"votingStartTime","type":"uint256"},{"internalType":"uint256","name":"votingEndTime","type":"uint256"},{"internalType":"bool","name":"canVoteNow","type":"bool"}],"stateMutability":"view","type":"function"},{"inputs":[{"internalType":"uint256","name":"_usdAmount","type":"uint256"},{"internalType":"address","name":"_recipient","type":"address"}],"name":"donate","outputs":[],"stateMutability":"payable","type":"function"},{"inputs":[],"name":"exchangeRate","outputs":[{"internalType":"uint256","name":"","type":"uint256"}],"stateMutability":"view","type":"function"},{"inputs":[{"internalType":"uint256","name":"projectId","type":"uint256"}],"name":"getProjectState","outputs":[{"internalType":"enum WildlifeDAO.ProjectStatus","name":"status","type":"uint8"},{"internalType":"uint256","name":"votingStartTime","type":"uint256"},{"internalType":"uint256","name":"votingEndTime","type":"uint256"},{"internalType":"uint256","name":"forVotes","type":"uint256"},{"internalType":"uint256","name":"againstVotes","type":"uint256"}],"stateMutability":"view","type":"function"},{"inputs":[],"name":"owner","outputs":[{"internalType":"address","name":"","type":"address"}],"stateMutability":"view","type":"function"},{"inputs":[],"name":"projectCount","outputs":[{"internalType":"uint256","name":"","type":"uint256"}],"stateMutability":"view","type":"function"},{"inputs":[{"internalType":"uint256","name":"","type":"uint256"}],"name":"projects","outputs":[{"internalType":"string","name":"title","type":"string"},{"internalType":"string","name":"description","type":"string"},{"internalType":"address","name":"proposer","type":"address"},{"internalType":"uint256","name":"fundingRequired","type":"uint256"},{"internalType":"uint256","name":"fundingReceived","type":"uint256"},{"internalType":"enum WildlifeDAO.ProjectStatus","name":"status","type":"uint8"},{"internalType":"uint256","name":"submissionTime","type":"uint256"},{"internalType":"uint256","name":"forVotes","type":"uint256"},{"internalType":"uint256","name":"againstVotes","type":"uint256"},{"internalType":"uint256","name":"votingStartTime","type":"uint256"},{"internalType":"uint256","name":"votingEndTime","type":"uint256"},{"internalType":"bool","name":"executed","type":"bool"},{"internalType":"string","name":"proposalId","type":"string"}],"stateMutability":"view","type":"function"},{"inputs":[{"internalType":"string","name":"","type":"string"}],"name":"proposalIdToProjectId","outputs":[{"internalType":"uint256","name":"","type":"uint256"}],"stateMutability":"view","type":"function"},{"inputs":[],"name":"renounceOwnership","outputs":[],"stateMutability":"nonpayable","type":"function"},{"inputs":[{"internalType":"string","name":"proposalId","type":"string"},{"internalType":"string","name":"title","type":"string"},{"internalType":"string","name":"description","type":"string"},{"internalType":"uint256","name":"fundingRequired","type":"uint256"}],"name":"submitProject","outputs":[{"internalType":"uint256","name":"","type":"uint256"}],"stateMutability":"nonpayable","type":"function"},{"inputs":[],"name":"totalValueLocked","outputs":[{"internalType":"uint256","name":"","type":"uint256"}],"stateMutability":"view","type":"function"},{"inputs":[],"name":"totalWLD","outputs":[{"internalType":"uint256","name":"","type":"uint256"}],"stateMutability":"view","type":"function"},{"inputs":[{"internalType":"address","name":"newOwner","type":"address"}],"name":"transferOwnership","outputs":[],"stateMutability":"nonpayable","type":"function"},{"inputs":[{"internalType":"uint256","name":"projectId","type":"uint256"},{"internalType":"bool","name":"support","type":"bool"}],"name":"voteOnProject","outputs":[],"stateMutability":"nonpayable","type":"function"},{"inputs":[],"name":"wldToken","outputs":[{"internalType":"contract WildlifeDAOToken","name":"","type":"address"}],"stateMutability":"view","type":"function"}],"evm":{"bytecode":{"linkReferences":{},"object":"60803461011757601f61184438819003918201601f19168301916001600160401b0383118484101761011c5780849260209460405283398101031261011757516001600160a01b03808216918290036101175733156100fe576000549060018060a01b0319913383821617600055604051913391167f8be0079c531659141344cd1fd0a4f28419497f9722a3daafe3b4186f6b6457e0600080a3600160045582156100bc5750600154161760015560405161171190816101338239f35b62461bcd60e51b815260206004820152601560248201527f496e76616c696420746f6b656e206164647265737300000000000000000000006044820152606490fd5b604051631e4fbdf760e01b815260006004820152602490fd5b600080fd5b634e487b7160e01b600052604160045260246000fdfe608080604052600436101561001357600080fd5b600090813560e01c9081630b5367ad1461124057508063107046bd1461113a5780631e484e70146111165780632763b72a14610c3157806336fbad2614610c135780633ba0b9a914610bf55780634339e612146107645780634857317e14610747578063715018a6146106ed5780638004f9fa1461043f5780638da5cb5b146104185780639be3783d146103ef578063b1610d7e146103d1578063b7b5bfc114610373578063c75a79891461032b578063cbe905891461028a578063db45810e1461026e578063e01557141461020a578063e9e6a349146101ed578063ec18154e146101cf578063f2fde38b146101385763fe71b8ba1461011357600080fd5b346101355780600319360112610135576020604051678ac7230489e800008152f35b80fd5b5034610135576020366003190112610135576004356001600160a01b03818116918290036101ca5761016861147c565b81156101b157600054826bffffffffffffffffffffffff60a01b821617600055167f8be0079c531659141344cd1fd0a4f28419497f9722a3daafe3b4186f6b6457e0600080a380f35b604051631e4fbdf760e01b815260048101849052602490fd5b600080fd5b50346101355780600319360112610135576020600254604051908152f35b503461013557806003193601126101355760206040516101f48152f35b503461013557602036600319011261013557604060a091600435815260056020522060ff60058201541690600b81015490600c810154600a60098301549201549261025860405180966113ec565b6020850152604084015260608301526080820152f35b5034610135578060031936011261013557602060405160018152f35b503461013557602036600319011261013557600435815260056020526040812060ff60058201541690600c600b82015491015460038310156103175760a093508215918261030b575b826102ff575b6102e660405180956113ec565b4260208501526040840152606083015215156080820152f35b915080421115916102d9565b809250421015916102d3565b634e487b7160e01b84526021600452602484fd5b503461013557604036600319011261013557610350610348611466565b6004356114cb565b9061036f604051928392151583526040602084015260408301906113c7565b0390f35b5034610135576020366003190112610135576004359067ffffffffffffffff82116101355760206103be816103ab366004870161140f565b81604051938285809451938492016113a4565b8101600781520301902054604051908152f35b5034610135578060031936011261013557602060405162093a808152f35b50346101355780600319360112610135576001546040516001600160a01b039091168152602090f35b5034610135578060031936011261013557546040516001600160a01b039091168152602090f35b50604036600319011261013557600435610457611466565b600182106106b3576103e88211610679576001600160a01b038181161561064057670de0b6b3a76400009081840291848304148415171561062c57681b1ae4d6e2ef50000084028281046101f41483151715610618576127109004928383038381116106045786906104cb876002546114a8565b6002556104da856003546114a8565b600355836001541690813b15610600576040516320e224bb60e21b8082526001600160a01b03959095166004820152602481019190915291908290604490829084905af180156105f5576105e0575b509085918461056f575b505050604051928352602083015260408201527f3168ca6b1e292883c0668008556fb887f7cce92bcd3c1c57c15a34dcdccd589260603392a280f35b81600154169183541690823b156105d1576040519081526001600160a01b03919091166004820152602481018590529082908290604490829084905af180156105d5576105bd575b80610533565b6105c690611296565b6105d15783386105b7565b8380fd5b6040513d84823e3d90fd5b6105ed9096919296611296565b949038610529565b6040513d89823e3d90fd5b8280fd5b634e487b7160e01b87526011600452602487fd5b634e487b7160e01b86526011600452602486fd5b634e487b7160e01b85526011600452602485fd5b60405162461bcd60e51b8152602060048201526011602482015270125b9d985b1a59081c9958da5c1a595b9d607a1b6044820152606490fd5b60405162461bcd60e51b8152602060048201526012602482015271446f6e6174696f6e20746f6f206c6172676560701b6044820152606490fd5b60405162461bcd60e51b8152602060048201526012602482015271111bdb985d1a5bdb881d1bdbc81cdb585b1b60721b6044820152606490fd5b503461013557806003193601126101355761070661147c565b80546001600160a01b03198116825581906001600160a01b03167f8be0079c531659141344cd1fd0a4f28419497f9722a3daafe3b4186f6b6457e08280a380f35b503461013557806003193601126101355760206040516103e88152f35b5034610135576040366003190112610135576004356024803590811515808303610bf157838552602092600584526040862085151580610be5575b15610bac5760ff6005820154166003811015610b9957610b5557600c8101544211610b1b57600881019133885282865260ff604089205416610ae7576001546040516370a0823160e01b8152336004820152906001600160a01b031687828881845afa918215610a6d578a92610ab8575b5068056bc75e2d631000008210610a78579087600492604051938480926318160ddd60e01b82525afa918215610a6d578a92610a3a575b5061271090818102918183041490151715610a27578115610a14570492604051906060820182811067ffffffffffffffff821117610a0157886108d993926108bd60408e600295825260018752848701938b8552828801958d8752338352522094511515859060ff801983541691151516179055565b51600184015551151591019060ff801983541691151516179055565b156109ec576009016108ec8282546114a8565b90555b60405191825283820152837fcbdf6214089cba887ecbf35a0b6a734589959c9763342c756bb2a80ca2bc9f6e60403393a3828452600582526040842090600c820154421161093b578480f35b6009820154600a83015490610bb861095383836114a8565b1015610960575b50508480f35b11156109e25760056002925b01937ff75c354d0772e6386c514de8e03be6b7fb27fe941335caa779ee1b9f34fe0c1e60408654956109af8251916109a78360ff8b166113ec565b8201876113ec565ba260038210156109d0575060ff169060ff191617905538808080808061095a565b634e487b7160e01b8552602160045284fd5b600560019261096c565b600a016109fa8282546114a8565b90556108ef565b634e487b7160e01b8b526041600452878bfd5b634e487b7160e01b8a526012600452868afd5b634e487b7160e01b8a526011600452868afd5b9091508781813d8311610a66575b610a5281836112dc565b81010312610a6257519038610847565b8980fd5b503d610a48565b6040513d8c823e3d90fd5b60405162461bcd60e51b8152600481018990526019818901527824b739bab33334b1b4b2b73a103b37ba34b733903837bbb2b960391b6044820152606490fd5b9091508781813d8311610ae0575b610ad081836112dc565b81010312610a6257519038610810565b503d610ac6565b60405162461bcd60e51b815260048101879052600d818701526c105b1c9958591e481d9bdd1959609a1b6044820152606490fd5b60405162461bcd60e51b81526004810186905260138186015272159bdd1a5b99c81c195c9a5bd908195b991959606a1b6044820152606490fd5b60405162461bcd60e51b815260048101869052601b818601527f50726f6a656374206e6f7420696e20766f74696e6720706861736500000000006044820152606490fd5b634e487b7160e01b885260216004528488fd5b60405162461bcd60e51b81526004810186905260128186015271125b9d985b1a59081c1c9bda9958dd08125160721b6044820152606490fd5b5060065486111561079f565b8480fd5b50346101355780600319360112610135576020600454604051908152f35b50346101355780600319360112610135576020600654604051908152f35b50346101355760803660031901126101355760043567ffffffffffffffff811161111257610c6390369060040161140f565b9060243567ffffffffffffffff811161111257610c8490369060040161140f565b60443567ffffffffffffffff811161060057610ca490369060040161140f565b926006549260001984146110fe576001840160065560018401815260056020526040812094825167ffffffffffffffff8111610f8357610ce7600e88015461125c565b601f81116110ba575b50806020601f8211600114611052578491611047575b508160011b916000199060031b1c191617600e8701555b835167ffffffffffffffff8111610f8357610d38875461125c565b601f8111611006575b50806020601f8211600114610fa2578491610f97575b508160011b916000199060031b1c19161786555b80519067ffffffffffffffff8211610f83578190610d8c600189015461125c565b601f8111610f33575b50602090601f8311600114610ec9578492610ebe575b50508160011b916000199060031b1c19161760018601555b60028501336bffffffffffffffffffffffff60a01b825416179055606435918260038701556005860160ff199081815416905542600688015542600b88015562093a804201804211610eaa5787600d91600c60209a015584600982015584600a8201550190815416905585610e4160405192838151938492016113a4565b81019060078252868160018801930301902055610e69604051936060855260608501906113c7565b918584015260408301527f50094398b94bd032f2883f60fcf80bc2d2f633c5bcaf147bb1bc23cb6d48ee7033928060018601930390a3600160405191018152f35b634e487b7160e01b84526011600452602484fd5b015190503880610dab565b600189018552602085209250601f198416855b818110610f1b5750908460019594939210610f02575b505050811b016001860155610dc3565b015160001960f88460031b161c19169055388080610ef2565b92936020600181928786015181550195019301610edc565b90915060018801845260208420601f840160051c810160208510610f7c575b90849392915b601f830160051c82018110610f6e575050610d95565b868155859450600101610f58565b5080610f52565b634e487b7160e01b83526041600452602483fd5b905085015138610d57565b91508784526020842084925b601f1983168410610fee576001935082601f19811610610fd5575b5050811b018655610d6b565b87015160001960f88460031b161c191690553880610fc9565b87810151825560209384019360019092019101610fae565b87845260208420601f830160051c810160208410611040575b601f830160051c82018110611035575050610d41565b85815560010161101f565b508061101f565b905084015138610d06565b600e89018552602085209150601f198316855b8181106110a257509083600194939210611089575b5050811b01600e870155610d1d565b86015160001960f88460031b161c19169055388061107a565b9192602060018192868b015181550194019201611065565b600e8801845260208420601f830160051c8101602084106110f7575b601f830160051c820181106110ec575050610cf0565b8581556001016110d6565b50806110d6565b634e487b7160e01b81526011600452602490fd5b5080fd5b5034610135578060031936011261013557602060405168056bc75e2d631000008152f35b5034610135576020366003190112610135576004358152600560205260409020611163816112fe565b61116f600183016112fe565b91600160a01b600190036002820154166003820154916004810154600582015460ff1660068301546009840154600a85015491600b86015493600c87015495600d88015460ff1697600e016111c3906112fe565b996040519c8d9c8d6101a090818152016111dc916113c7565b8d810360208f01526111ed916113c7565b9960408d015260608c015260808b015260a08a0161120a916113ec565b60c089015260e0880152610100870152610120860152610140850152151561016084015282810361018084015261036f916113c7565b9050346111125781600319360112611112576020906003548152f35b90600182811c9216801561128c575b602083101461127657565b634e487b7160e01b600052602260045260246000fd5b91607f169161126b565b67ffffffffffffffff81116112aa57604052565b634e487b7160e01b600052604160045260246000fd5b6040810190811067ffffffffffffffff8211176112aa57604052565b90601f8019910116810190811067ffffffffffffffff8211176112aa57604052565b90604051918260008254926113128461125c565b908184526001948581169081600014611381575060011461133e575b505061133c925003836112dc565b565b9093915060005260209081600020936000915b81831061136957505061133c9350820101388061132e565b85548884018501529485019487945091830191611351565b91505061133c94506020925060ff191682840152151560051b820101388061132e565b60005b8381106113b75750506000910152565b81810151838201526020016113a7565b906020916113e0815180928185528580860191016113a4565b601f01601f1916010190565b9060038210156113f95752565b634e487b7160e01b600052602160045260246000fd5b81601f820112156101ca5780359067ffffffffffffffff82116112aa5760405192611444601f8401601f1916602001856112dc565b828452602083830101116101ca57816000926020809301838601378301015290565b602435906001600160a01b03821682036101ca57565b6000546001600160a01b0316330361149057565b60405163118cdaa760e01b8152336004820152602490fd5b919082018092116114b557565b634e487b7160e01b600052601160045260246000fd5b9190916000818152602091600583526040948583209180159081156116cf575b506116a05760ff60058301541660038110156103175790849161166557600c8301544211611634576001600160a01b0390811680855260089390930182528684205460ff1661160957600154169160248751809481936370a0823160e01b835260048301525afa80156115ff5782906115c9575b68056bc75e2d6310000091501061159557506743616e20766f746560c01b600193519161158b836112c0565b6008835282015290565b7824b739bab33334b1b4b2b73a103b37ba34b733903837bbb2b960391b909351916115bf836112c0565b6019835282015290565b508281813d83116115f8575b6115df81836112dc565b810103126111125768056bc75e2d63100000905161155f565b503d6115d5565b85513d84823e3d90fd5b5050506c105b1c9958591e481d9bdd1959609a1b9093519161162a836112c0565b600d835282015290565b50505072159bdd1a5b99c81c195c9a5bd908195b991959606a1b9093519161165b836112c0565b6013835282015290565b5050507f50726f6a656374206e6f7420696e20766f74696e67207068617365000000000090935191611696836112c0565b601b835282015290565b505071125b9d985b1a59081c1c9bda9958dd08125160721b909351916116c5836112c0565b6012835282015290565b905060065410386114eb56fea2646970667358221220654f7f746c956e720c570a4f180d651ea6a260fa97e5597940c17765653d4d2f64736f6c63430008140033","opcodes":"PUSH1 0x80 CALLVALUE PUSH2 0x117 JUMPI PUSH1 0x1F PUSH2 0x1844 CODESIZE DUP2 SWAP1 SUB SWAP2 DUP3 ADD PUSH1 0x1F NOT AND DUP4 ADD SWAP2 PUSH1 0x1 PUSH1 0x1 PUSH1 0x40 SHL SUB DUP4 GT DUP5 DUP5 LT OR PUSH2 0x11C JUMPI DUP1 DUP5 SWAP3 PUSH1 0x20 SWAP5 PUSH1 0x40 MSTORE DUP4 CODECOPY DUP2 ADD SUB SLT PUSH2 0x117 JUMPI MLOAD PUSH1 0x1 PUSH1 0x1 PUSH1 0xA0 SHL SUB DUP1 DUP3 AND SWAP2 DUP3 SWAP1 SUB PUSH2 0x117 JUMPI CALLER ISZERO PUSH2 0xFE JUMPI PUSH1 0x0 SLOAD SWAP1 PUSH1 0x1 DUP1 PUSH1 0xA0 SHL SUB NOT SWAP2 CALLER DUP4 DUP3 AND OR PUSH1 0x0 SSTORE PUSH1 0x40 MLOAD SWAP2 CALLER SWAP2 AND PUSH32 0x8BE0079C531659141344CD1FD0A4F28419497F9722A3DAAFE3B4186F6B6457E0 PUSH1 0x0 DUP1 LOG3 PUSH1 0x1 PUSH1 0x4 SSTORE DUP3 ISZERO PUSH2 0xBC JUMPI POP PUSH1 0x1 SLOAD AND OR PUSH1 0x1 SSTORE PUSH1 0x40 MLOAD PUSH2 0x1711 SWAP1 DUP2 PUSH2 0x133 DUP3 CODECOPY RETURN JUMPDEST PUSH3 0x461BCD PUSH1 0xE5 SHL DUP2 MSTORE PUSH1 0x20 PUSH1 0x4 DUP3 ADD MSTORE PUSH1 0x15 PUSH1 0x24 DUP3 ADD MSTORE PUSH32 0x496E76616C696420746F6B656E20616464726573730000000000000000000000 PUSH1 0x44 DUP3 ADD MSTORE PUSH1 0x64 SWAP1 REVERT JUMPDEST PUSH1 0x40 MLOAD PUSH4 0x1E4FBDF7 PUSH1 0xE0 SHL DUP2 MSTORE PUSH1 0x0 PUSH1 0x4 DUP3 ADD MSTORE PUSH1 0x24 SWAP1 REVERT JUMPDEST PUSH1 0x0 DUP1 REVERT JUMPDEST PUSH4 0x4E487B71 PUSH1 0xE0 SHL PUSH1 0x0 MSTORE PUSH1 0x41 PUSH1 0x4 MSTORE PUSH1 0x24 PUSH1 0x0 REVERT INVALID PUSH1 0x80 DUP1 PUSH1 0x40 MSTORE PUSH1 0x4 CALLDATASIZE LT ISZERO PUSH2 0x13 JUMPI PUSH1 0x0 DUP1 REVERT JUMPDEST PUSH1 0x0 SWAP1 DUP2 CALLDATALOAD PUSH1 0xE0 SHR SWAP1 DUP2 PUSH4 0xB5367AD EQ PUSH2 0x1240 JUMPI POP DUP1 PUSH4 0x107046BD EQ PUSH2 0x113A JUMPI DUP1 PUSH4 0x1E484E70 EQ PUSH2 0x1116 JUMPI DUP1 PUSH4 0x2763B72A EQ PUSH2 0xC31 JUMPI DUP1 PUSH4 0x36FBAD26 EQ PUSH2 0xC13 JUMPI DUP1 PUSH4 0x3BA0B9A9 EQ PUSH2 0xBF5 JUMPI DUP1 PUSH4 0x4339E612 EQ PUSH2 0x764 JUMPI DUP1 PUSH4 0x4857317E EQ PUSH2 0x747 JUMPI DUP1 PUSH4 0x715018A6 EQ PUSH2 0x6ED JUMPI DUP1 PUSH4 0x8004F9FA EQ PUSH2 0x43F JUMPI DUP1 PUSH4 0x8DA5CB5B EQ PUSH2 0x418 JUMPI DUP1 PUSH4 0x9BE3783D EQ PUSH2 0x3EF JUMPI DUP1 PUSH4 0xB1610D7E EQ PUSH2 0x3D1 JUMPI DUP1 PUSH4 0xB7B5BFC1 EQ PUSH2 0x373 JUMPI DUP1 PUSH4 0xC75A7989 EQ PUSH2 0x32B JUMPI DUP1 PUSH4 0xCBE90589 EQ PUSH2 0x28A JUMPI DUP1 PUSH4 0xDB45810E EQ PUSH2 0x26E JUMPI DUP1 PUSH4 0xE0155714 EQ PUSH2 0x20A JUMPI DUP1 PUSH4 0xE9E6A349 EQ PUSH2 0x1ED JUMPI DUP1 PUSH4 0xEC18154E EQ PUSH2 0x1CF JUMPI DUP1 PUSH4 0xF2FDE38B EQ PUSH2 0x138 JUMPI PUSH4 0xFE71B8BA EQ PUSH2 0x113 JUMPI PUSH1 0x0 DUP1 REVERT JUMPDEST CALLVALUE PUSH2 0x135 JUMPI DUP1 PUSH1 0x3 NOT CALLDATASIZE ADD SLT PUSH2 0x135 JUMPI PUSH1 0x20 PUSH1 0x40 MLOAD PUSH8 0x8AC7230489E80000 DUP2 MSTORE RETURN JUMPDEST DUP1 REVERT JUMPDEST POP CALLVALUE PUSH2 0x135 JUMPI PUSH1 0x20 CALLDATASIZE PUSH1 0x3 NOT ADD SLT PUSH2 0x135 JUMPI PUSH1 0x4 CALLDATALOAD PUSH1 0x1 PUSH1 0x1 PUSH1 0xA0 SHL SUB DUP2 DUP2 AND SWAP2 DUP3 SWAP1 SUB PUSH2 0x1CA JUMPI PUSH2 0x168 PUSH2 0x147C JUMP JUMPDEST DUP2 ISZERO PUSH2 0x1B1 JUMPI PUSH1 0x0 SLOAD DUP3 PUSH12 0xFFFFFFFFFFFFFFFFFFFFFFFF PUSH1 0xA0 SHL DUP3 AND OR PUSH1 0x0 SSTORE AND PUSH32 0x8BE0079C531659141344CD1FD0A4F28419497F9722A3DAAFE3B4186F6B6457E0 PUSH1 0x0 DUP1 LOG3 DUP1 RETURN JUMPDEST PUSH1 0x40 MLOAD PUSH4 0x1E4FBDF7 PUSH1 0xE0 SHL DUP2 MSTORE PUSH1 0x4 DUP2 ADD DUP5 SWAP1 MSTORE PUSH1 0x24 SWAP1 REVERT JUMPDEST PUSH1 0x0 DUP1 REVERT JUMPDEST POP CALLVALUE PUSH2 0x135 JUMPI DUP1 PUSH1 0x3 NOT CALLDATASIZE ADD SLT PUSH2 0x135 JUMPI PUSH1 0x20 PUSH1 0x2 SLOAD PUSH1 0x40 MLOAD SWAP1 DUP2 MSTORE RETURN JUMPDEST POP CALLVALUE PUSH2 0x135 JUMPI DUP1 PUSH1 0x3 NOT CALLDATASIZE ADD SLT PUSH2 0x135 JUMPI PUSH1 0x20 PUSH1 0x40 MLOAD PUSH2 0x1F4 DUP2 MSTORE RETURN JUMPDEST POP CALLVALUE PUSH2 0x135 JUMPI PUSH1 0x20 CALLDATASIZE PUSH1 0x3 NOT ADD SLT PUSH2 0x135 JUMPI PUSH1 0x40 PUSH1 0xA0 SWAP2 PUSH1 0x4 CALLDATALOAD DUP2 MSTORE PUSH1 0x5 PUSH1 0x20 MSTORE KECCAK256 PUSH1 0xFF PUSH1 0x5 DUP3 ADD SLOAD AND SWAP1 PUSH1 0xB DUP2 ADD SLOAD SWAP1 PUSH1 0xC DUP2 ADD SLOAD PUSH1 0xA PUSH1 0x9 DUP4 ADD SLOAD SWAP3 ADD SLOAD SWAP3 PUSH2 0x258 PUSH1 0x40 MLOAD DUP1 SWAP7 PUSH2 0x13EC JUMP JUMPDEST PUSH1 0x20 DUP6 ADD MSTORE PUSH1 0x40 DUP5 ADD MSTORE PUSH1 0x60 DUP4 ADD MSTORE PUSH1 0x80 DUP3 ADD MSTORE RETURN JUMPDEST POP CALLVALUE PUSH2 0x135 JUMPI DUP1 PUSH1 0x3 NOT CALLDATASIZE ADD SLT PUSH2 0x135 JUMPI PUSH1 0x20 PUSH1 0x40 MLOAD PUSH1 0x1 DUP2 MSTORE RETURN JUMPDEST POP CALLVALUE PUSH2 0x135 JUMPI PUSH1 0x20 CALLDATASIZE PUSH1 0x3 NOT ADD SLT PUSH2 0x135 JUMPI PUSH1 0x4 CALLDATALOAD DUP2 MSTORE PUSH1 0x5 PUSH1 0x20 MSTORE PUSH1 0x40 DUP2 KECCAK256 PUSH1 0xFF PUSH1 0x5 DUP3 ADD SLOAD AND SWAP1 PUSH1 0xC PUSH1 0xB DUP3 ADD SLOAD SWAP2 ADD SLOAD PUSH1 0x3 DUP4 LT ISZERO PUSH2 0x317 JUMPI PUSH1 0xA0 SWAP4 POP DUP3 ISZERO SWAP2 DUP3 PUSH2 0x30B JUMPI JUMPDEST DUP3 PUSH2 0x2FF JUMPI JUMPDEST PUSH2 0x2E6 PUSH1 0x40 MLOAD DUP1 SWAP6 PUSH2 0x13EC JUMP JUMPDEST TIMESTAMP PUSH1 0x20 DUP6 ADD MSTORE PUSH1 0x40 DUP5 ADD MSTORE PUSH1 0x60 DUP4 ADD MSTORE ISZERO ISZERO PUSH1 0x80 DUP3 ADD MSTORE RETURN JUMPDEST SWAP2 POP DUP1 TIMESTAMP GT ISZERO SWAP2 PUSH2 0x2D9 JUMP JUMPDEST DUP1 SWAP3 POP TIMESTAMP LT ISZERO SWAP2 PUSH2 0x2D3 JUMP JUMPDEST PUSH4 0x4E487B71 PUSH1 0xE0 SHL DUP5 MSTORE PUSH1 0x21 PUSH1 0x4 MSTORE PUSH1 0x24 DUP5 REVERT JUMPDEST POP CALLVALUE PUSH2 0x135 JUMPI PUSH1 0x40 CALLDATASIZE PUSH1 0x3 NOT ADD SLT PUSH2 0x135 JUMPI PUSH2 0x350 PUSH2 0x348 PUSH2 0x1466 JUMP JUMPDEST PUSH1 0x4 CALLDATALOAD PUSH2 0x14CB JUMP JUMPDEST SWAP1 PUSH2 0x36F PUSH1 0x40 MLOAD SWAP3 DUP4 SWAP3 ISZERO ISZERO DUP4 MSTORE PUSH1 0x40 PUSH1 0x20 DUP5 ADD MSTORE PUSH1 0x40 DUP4 ADD SWAP1 PUSH2 0x13C7 JUMP JUMPDEST SUB SWAP1 RETURN JUMPDEST POP CALLVALUE PUSH2 0x135 JUMPI PUSH1 0x20 CALLDATASIZE PUSH1 0x3 NOT ADD SLT PUSH2 0x135 JUMPI PUSH1 0x4 CALLDATALOAD SWAP1 PUSH8 0xFFFFFFFFFFFFFFFF DUP3 GT PUSH2 0x135 JUMPI PUSH1 0x20 PUSH2 0x3BE DUP2 PUSH2 0x3AB CALLDATASIZE PUSH1 0x4 DUP8 ADD PUSH2 0x140F JUMP JUMPDEST DUP2 PUSH1 0x40 MLOAD SWAP4 DUP3 DUP6 DUP1 SWAP5 MLOAD SWAP4 DUP5 SWAP3 ADD PUSH2 0x13A4 JUMP JUMPDEST DUP2 ADD PUSH1 0x7 DUP2 MSTORE SUB ADD SWAP1 KECCAK256 SLOAD PUSH1 0x40 MLOAD SWAP1 DUP2 MSTORE RETURN JUMPDEST POP CALLVALUE PUSH2 0x135 JUMPI DUP1 PUSH1 0x3 NOT CALLDATASIZE ADD SLT PUSH2 0x135 JUMPI PUSH1 0x20 PUSH1 0x40 MLOAD PUSH3 0x93A80 DUP2 MSTORE RETURN JUMPDEST POP CALLVALUE PUSH2 0x135 JUMPI DUP1 PUSH1 0x3 NOT CALLDATASIZE ADD SLT PUSH2 0x135 JUMPI PUSH1 0x1 SLOAD PUSH1 0x40 MLOAD PUSH1 0x1 PUSH1 0x1 PUSH1 0xA0 SHL SUB SWAP1 SWAP2 AND DUP2 MSTORE PUSH1 0x20 SWAP1 RETURN JUMPDEST POP CALLVALUE PUSH2 0x135 JUMPI DUP1 PUSH1 0x3 NOT CALLDATASIZE ADD SLT PUSH2 0x135 JUMPI SLOAD PUSH1 0x40 MLOAD PUSH1 0x1 PUSH1 0x1 PUSH1 0xA0 SHL SUB SWAP1 SWAP2 AND DUP2 MSTORE PUSH1 0x20 SWAP1 RETURN JUMPDEST POP PUSH1 0x40 CALLDATASIZE PUSH1 0x3 NOT ADD SLT PUSH2 0x135 JUMPI PUSH1 0x4 CALLDATALOAD PUSH2 0x457 PUSH2 0x1466 JUMP JUMPDEST PUSH1 0x1 DUP3 LT PUSH2 0x6B3 JUMPI PUSH2 0x3E8 DUP3 GT PUSH2 0x679 JUMPI PUSH1 0x1 PUSH1 0x1 PUSH1 0xA0 SHL SUB DUP2 DUP2 AND ISZERO PUSH2 0x640 JUMPI PUSH8 0xDE0B6B3A7640000 SWAP1 DUP2 DUP5 MUL SWAP2 DUP5 DUP4 DIV EQ DUP5 ISZERO OR ISZERO PUSH2 0x62C JUMPI PUSH9 0x1B1AE4D6E2EF500000 DUP5 MUL DUP3 DUP2 DIV PUSH2 0x1F4 EQ DUP4 ISZERO OR ISZERO PUSH2 0x618 JUMPI PUSH2 0x2710 SWAP1 DIV SWAP3 DUP4 DUP4 SUB DUP4 DUP2 GT PUSH2 0x604 JUMPI DUP7 SWAP1 PUSH2 0x4CB DUP8 PUSH1 0x2 SLOAD PUSH2 0x14A8 JUMP JUMPDEST PUSH1 0x2 SSTORE PUSH2 0x4DA DUP6 PUSH1 0x3 SLOAD PUSH2 0x14A8 JUMP JUMPDEST PUSH1 0x3 SSTORE DUP4 PUSH1 0x1 SLOAD AND SWAP1 DUP2 EXTCODESIZE ISZERO PUSH2 0x600 JUMPI PUSH1 0x40 MLOAD PUSH4 0x20E224BB PUSH1 0xE2 SHL DUP1 DUP3 MSTORE PUSH1 0x1 PUSH1 0x1 PUSH1 0xA0 SHL SUB SWAP6 SWAP1 SWAP6 AND PUSH1 0x4 DUP3 ADD MSTORE PUSH1 0x24 DUP2 ADD SWAP2 SWAP1 SWAP2 MSTORE SWAP2 SWAP1 DUP3 SWAP1 PUSH1 0x44 SWAP1 DUP3 SWAP1 DUP5 SWAP1 GAS CALL DUP1 ISZERO PUSH2 0x5F5 JUMPI PUSH2 0x5E0 JUMPI JUMPDEST POP SWAP1 DUP6 SWAP2 DUP5 PUSH2 0x56F JUMPI JUMPDEST POP POP POP PUSH1 0x40 MLOAD SWAP3 DUP4 MSTORE PUSH1 0x20 DUP4 ADD MSTORE PUSH1 0x40 DUP3 ADD MSTORE PUSH32 0x3168CA6B1E292883C0668008556FB887F7CCE92BCD3C1C57C15A34DCDCCD5892 PUSH1 0x60 CALLER SWAP3 LOG2 DUP1 RETURN JUMPDEST DUP2 PUSH1 0x1 SLOAD AND SWAP2 DUP4 SLOAD AND SWAP1 DUP3 EXTCODESIZE ISZERO PUSH2 0x5D1 JUMPI PUSH1 0x40 MLOAD SWAP1 DUP2 MSTORE PUSH1 0x1 PUSH1 0x1 PUSH1 0xA0 SHL SUB SWAP2 SWAP1 SWAP2 AND PUSH1 0x4 DUP3 ADD MSTORE PUSH1 0x24 DUP2 ADD DUP6 SWAP1 MSTORE SWAP1 DUP3 SWAP1 DUP3 SWAP1 PUSH1 0x44 SWAP1 DUP3 SWAP1 DUP5 SWAP1 GAS CALL DUP1 ISZERO PUSH2 0x5D5 JUMPI PUSH2 0x5BD JUMPI JUMPDEST DUP1 PUSH2 0x533 JUMP JUMPDEST PUSH2 0x5C6 SWAP1 PUSH2 0x1296 JUMP JUMPDEST PUSH2 0x5D1 JUMPI DUP4 CODESIZE PUSH2 0x5B7 JUMP JUMPDEST DUP4 DUP1 REVERT JUMPDEST PUSH1 0x40 MLOAD RETURNDATASIZE DUP5 DUP3 RETURNDATACOPY RETURNDATASIZE SWAP1 REVERT JUMPDEST PUSH2 0x5ED SWAP1 SWAP7 SWAP2 SWAP3 SWAP7 PUSH2 0x1296 JUMP JUMPDEST SWAP5 SWAP1 CODESIZE PUSH2 0x529 JUMP JUMPDEST PUSH1 0x40 MLOAD RETURNDATASIZE DUP10 DUP3 RETURNDATACOPY RETURNDATASIZE SWAP1 REVERT JUMPDEST DUP3 DUP1 REVERT JUMPDEST PUSH4 0x4E487B71 PUSH1 0xE0 SHL DUP8 MSTORE PUSH1 0x11 PUSH1 0x4 MSTORE PUSH1 0x24 DUP8 REVERT JUMPDEST PUSH4 0x4E487B71 PUSH1 0xE0 SHL DUP7 MSTORE PUSH1 0x11 PUSH1 0x4 MSTORE PUSH1 0x24 DUP7 REVERT JUMPDEST PUSH4 0x4E487B71 PUSH1 0xE0 SHL DUP6 MSTORE PUSH1 0x11 PUSH1 0x4 MSTORE PUSH1 0x24 DUP6 REVERT JUMPDEST PUSH1 0x40 MLOAD PUSH3 0x461BCD PUSH1 0xE5 SHL DUP2 MSTORE PUSH1 0x20 PUSH1 0x4 DUP3 ADD MSTORE PUSH1 0x11 PUSH1 0x24 DUP3 ADD MSTORE PUSH17 0x125B9D985B1A59081C9958DA5C1A595B9D PUSH1 0x7A SHL PUSH1 0x44 DUP3 ADD MSTORE PUSH1 0x64 SWAP1 REVERT JUMPDEST PUSH1 0x40 MLOAD PUSH3 0x461BCD PUSH1 0xE5 SHL DUP2 MSTORE PUSH1 0x20 PUSH1 0x4 DUP3 ADD MSTORE PUSH1 0x12 PUSH1 0x24 DUP3 ADD MSTORE PUSH18 0x446F6E6174696F6E20746F6F206C61726765 PUSH1 0x70 SHL PUSH1 0x44 DUP3 ADD MSTORE PUSH1 0x64 SWAP1 REVERT JUMPDEST PUSH1 0x40 MLOAD PUSH3 0x461BCD PUSH1 0xE5 SHL DUP2 MSTORE PUSH1 0x20 PUSH1 0x4 DUP3 ADD MSTORE PUSH1 0x12 PUSH1 0x24 DUP3 ADD MSTORE PUSH18 0x111BDB985D1A5BDB881D1BDBC81CDB585B1B PUSH1 0x72 SHL PUSH1 0x44 DUP3 ADD MSTORE PUSH1 0x64 SWAP1 REVERT JUMPDEST POP CALLVALUE PUSH2 0x135 JUMPI DUP1 PUSH1 0x3 NOT CALLDATASIZE ADD SLT PUSH2 0x135 JUMPI PUSH2 0x706 PUSH2 0x147C JUMP JUMPDEST DUP1 SLOAD PUSH1 0x1 PUSH1 0x1 PUSH1 0xA0 SHL SUB NOT DUP2 AND DUP3 SSTORE DUP2 SWAP1 PUSH1 0x1 PUSH1 0x1 PUSH1 0xA0 SHL SUB AND PUSH32 0x8BE0079C531659141344CD1FD0A4F28419497F9722A3DAAFE3B4186F6B6457E0 DUP3 DUP1 LOG3 DUP1 RETURN JUMPDEST POP CALLVALUE PUSH2 0x135 JUMPI DUP1 PUSH1 0x3 NOT CALLDATASIZE ADD SLT PUSH2 0x135 JUMPI PUSH1 0x20 PUSH1 0x40 MLOAD PUSH2 0x3E8 DUP2 MSTORE RETURN JUMPDEST POP CALLVALUE PUSH2 0x135 JUMPI PUSH1 0x40 CALLDATASIZE PUSH1 0x3 NOT ADD SLT PUSH2 0x135 JUMPI PUSH1 0x4 CALLDATALOAD PUSH1 0x24 DUP1 CALLDATALOAD SWAP1 DUP2 ISZERO ISZERO DUP1 DUP4 SUB PUSH2 0xBF1 JUMPI DUP4 DUP6 MSTORE PUSH1 0x20 SWAP3 PUSH1 0x5 DUP5 MSTORE PUSH1 0x40 DUP7 KECCAK256 DUP6 ISZERO ISZERO DUP1 PUSH2 0xBE5 JUMPI JUMPDEST ISZERO PUSH2 0xBAC JUMPI PUSH1 0xFF PUSH1 0x5 DUP3 ADD SLOAD AND PUSH1 0x3 DUP2 LT ISZERO PUSH2 0xB99 JUMPI PUSH2 0xB55 JUMPI PUSH1 0xC DUP2 ADD SLOAD TIMESTAMP GT PUSH2 0xB1B JUMPI PUSH1 0x8 DUP2 ADD SWAP2 CALLER DUP9 MSTORE DUP3 DUP7 MSTORE PUSH1 0xFF PUSH1 0x40 DUP10 KECCAK256 SLOAD AND PUSH2 0xAE7 JUMPI PUSH1 0x1 SLOAD PUSH1 0x40 MLOAD PUSH4 0x70A08231 PUSH1 0xE0 SHL DUP2 MSTORE CALLER PUSH1 0x4 DUP3 ADD MSTORE SWAP1 PUSH1 0x1 PUSH1 0x1 PUSH1 0xA0 SHL SUB AND DUP8 DUP3 DUP9 DUP2 DUP5 GAS STATICCALL SWAP2 DUP3 ISZERO PUSH2 0xA6D JUMPI DUP11 SWAP3 PUSH2 0xAB8 JUMPI JUMPDEST POP PUSH9 0x56BC75E2D63100000 DUP3 LT PUSH2 0xA78 JUMPI SWAP1 DUP8 PUSH1 0x4 SWAP3 PUSH1 0x40 MLOAD SWAP4 DUP5 DUP1 SWAP3 PUSH4 0x18160DDD PUSH1 0xE0 SHL DUP3 MSTORE GAS STATICCALL SWAP2 DUP3 ISZERO PUSH2 0xA6D JUMPI DUP11 SWAP3 PUSH2 0xA3A JUMPI JUMPDEST POP PUSH2 0x2710 SWAP1 DUP2 DUP2 MUL SWAP2 DUP2 DUP4 DIV EQ SWAP1 ISZERO OR ISZERO PUSH2 0xA27 JUMPI DUP2 ISZERO PUSH2 0xA14 JUMPI DIV SWAP3 PUSH1 0x40 MLOAD SWAP1 PUSH1 0x60 DUP3 ADD DUP3 DUP2 LT PUSH8 0xFFFFFFFFFFFFFFFF DUP3 GT OR PUSH2 0xA01 JUMPI DUP9 PUSH2 0x8D9 SWAP4 SWAP3 PUSH2 0x8BD PUSH1 0x40 DUP15 PUSH1 0x2 SWAP6 DUP3 MSTORE PUSH1 0x1 DUP8 MSTORE DUP5 DUP8 ADD SWAP4 DUP12 DUP6 MSTORE DUP3 DUP9 ADD SWAP6 DUP14 DUP8 MSTORE CALLER DUP4 MSTORE MSTORE KECCAK256 SWAP5 MLOAD ISZERO ISZERO DUP6 SWAP1 PUSH1 0xFF DUP1 NOT DUP4 SLOAD AND SWAP2 ISZERO ISZERO AND OR SWAP1 SSTORE JUMP JUMPDEST MLOAD PUSH1 0x1 DUP5 ADD SSTORE MLOAD ISZERO ISZERO SWAP2 ADD SWAP1 PUSH1 0xFF DUP1 NOT DUP4 SLOAD AND SWAP2 ISZERO ISZERO AND OR SWAP1 SSTORE JUMP JUMPDEST ISZERO PUSH2 0x9EC JUMPI PUSH1 0x9 ADD PUSH2 0x8EC DUP3 DUP3 SLOAD PUSH2 0x14A8 JUMP JUMPDEST SWAP1 SSTORE JUMPDEST PUSH1 0x40 MLOAD SWAP2 DUP3 MSTORE DUP4 DUP3 ADD MSTORE DUP4 PUSH32 0xCBDF6214089CBA887ECBF35A0B6A734589959C9763342C756BB2A80CA2BC9F6E PUSH1 0x40 CALLER SWAP4 LOG3 DUP3 DUP5 MSTORE PUSH1 0x5 DUP3 MSTORE PUSH1 0x40 DUP5 KECCAK256 SWAP1 PUSH1 0xC DUP3 ADD SLOAD TIMESTAMP GT PUSH2 0x93B JUMPI DUP5 DUP1 RETURN JUMPDEST PUSH1 0x9 DUP3 ADD SLOAD PUSH1 0xA DUP4 ADD SLOAD SWAP1 PUSH2 0xBB8 PUSH2 0x953 DUP4 DUP4 PUSH2 0x14A8 JUMP JUMPDEST LT ISZERO PUSH2 0x960 JUMPI JUMPDEST POP POP DUP5 DUP1 RETURN JUMPDEST GT ISZERO PUSH2 0x9E2 JUMPI PUSH1 0x5 PUSH1 0x2 SWAP3 JUMPDEST ADD SWAP4 PUSH32 0xF75C354D0772E6386C514DE8E03BE6B7FB27FE941335CAA779EE1B9F34FE0C1E PUSH1 0x40 DUP7 SLOAD SWAP6 PUSH2 0x9AF DUP3 MLOAD SWAP2 PUSH2 0x9A7 DUP4 PUSH1 0xFF DUP12 AND PUSH2 0x13EC JUMP JUMPDEST DUP3 ADD DUP8 PUSH2 0x13EC JUMP JUMPDEST LOG2 PUSH1 0x3 DUP3 LT ISZERO PUSH2 0x9D0 JUMPI POP PUSH1 0xFF AND SWAP1 PUSH1 0xFF NOT AND OR SWAP1 SSTORE CODESIZE DUP1 DUP1 DUP1 DUP1 DUP1 PUSH2 0x95A JUMP JUMPDEST PUSH4 0x4E487B71 PUSH1 0xE0 SHL DUP6 MSTORE PUSH1 0x21 PUSH1 0x4 MSTORE DUP5 REVERT JUMPDEST PUSH1 0x5 PUSH1 0x1 SWAP3 PUSH2 0x96C JUMP JUMPDEST PUSH1 0xA ADD PUSH2 0x9FA DUP3 DUP3 SLOAD PUSH2 0x14A8 JUMP JUMPDEST SWAP1 SSTORE PUSH2 0x8EF JUMP JUMPDEST PUSH4 0x4E487B71 PUSH1 0xE0 SHL DUP12 MSTORE PUSH1 0x41 PUSH1 0x4 MSTORE DUP8 DUP12 REVERT JUMPDEST PUSH4 0x4E487B71 PUSH1 0xE0 SHL DUP11 MSTORE PUSH1 0x12 PUSH1 0x4 MSTORE DUP7 DUP11 REVERT JUMPDEST PUSH4 0x4E487B71 PUSH1 0xE0 SHL DUP11 MSTORE PUSH1 0x11 PUSH1 0x4 MSTORE DUP7 DUP11 REVERT JUMPDEST SWAP1 SWAP2 POP DUP8 DUP2 DUP2 RETURNDATASIZE DUP4 GT PUSH2 0xA66 JUMPI JUMPDEST PUSH2 0xA52 DUP2 DUP4 PUSH2 0x12DC JUMP JUMPDEST DUP2 ADD SUB SLT PUSH2 0xA62 JUMPI MLOAD SWAP1 CODESIZE PUSH2 0x847 JUMP JUMPDEST DUP10 DUP1 REVERT JUMPDEST POP RETURNDATASIZE PUSH2 0xA48 JUMP JUMPDEST PUSH1 0x40 MLOAD RETURNDATASIZE DUP13 DUP3 RETURNDATACOPY RETURNDATASIZE SWAP1 REVERT JUMPDEST PUSH1 0x40 MLOAD PUSH3 0x461BCD PUSH1 0xE5 SHL DUP2 MSTORE PUSH1 0x4 DUP2 ADD DUP10 SWAP1 MSTORE PUSH1 0x19 DUP2 DUP10 ADD MSTORE PUSH25 0x24B739BAB33334B1B4B2B73A103B37BA34B733903837BBB2B9 PUSH1 0x39 SHL PUSH1 0x44 DUP3 ADD MSTORE PUSH1 0x64 SWAP1 REVERT JUMPDEST SWAP1 SWAP2 POP DUP8 DUP2 DUP2 RETURNDATASIZE DUP4 GT PUSH2 0xAE0 JUMPI JUMPDEST PUSH2 0xAD0 DUP2 DUP4 PUSH2 0x12DC JUMP JUMPDEST DUP2 ADD SUB SLT PUSH2 0xA62 JUMPI MLOAD SWAP1 CODESIZE PUSH2 0x810 JUMP JUMPDEST POP RETURNDATASIZE PUSH2 0xAC6 JUMP JUMPDEST PUSH1 0x40 MLOAD PUSH3 0x461BCD PUSH1 0xE5 SHL DUP2 MSTORE PUSH1 0x4 DUP2 ADD DUP8 SWAP1 MSTORE PUSH1 0xD DUP2 DUP8 ADD MSTORE PUSH13 0x105B1C9958591E481D9BDD1959 PUSH1 0x9A SHL PUSH1 0x44 DUP3 ADD MSTORE PUSH1 0x64 SWAP1 REVERT JUMPDEST PUSH1 0x40 MLOAD PUSH3 0x461BCD PUSH1 0xE5 SHL DUP2 MSTORE PUSH1 0x4 DUP2 ADD DUP7 SWAP1 MSTORE PUSH1 0x13 DUP2 DUP7 ADD MSTORE PUSH19 0x159BDD1A5B99C81C195C9A5BD908195B991959 PUSH1 0x6A SHL PUSH1 0x44 DUP3 ADD MSTORE PUSH1 0x64 SWAP1 REVERT JUMPDEST PUSH1 0x40 MLOAD PUSH3 0x461BCD PUSH1 0xE5 SHL DUP2 MSTORE PUSH1 0x4 DUP2 ADD DUP7 SWAP1 MSTORE PUSH1 0x1B DUP2 DUP7 ADD MSTORE PUSH32 0x50726F6A656374206E6F7420696E20766F74696E672070686173650000000000 PUSH1 0x44 DUP3 ADD MSTORE PUSH1 0x64 SWAP1 REVERT JUMPDEST PUSH4 0x4E487B71 PUSH1 0xE0 SHL DUP9 MSTORE PUSH1 0x21 PUSH1 0x4 MSTORE DUP5 DUP9 REVERT JUMPDEST PUSH1 0x40 MLOAD PUSH3 0x461BCD PUSH1 0xE5 SHL DUP2 MSTORE PUSH1 0x4 DUP2 ADD DUP7 SWAP1 MSTORE PUSH1 0x12 DUP2 DUP7 ADD MSTORE PUSH18 0x125B9D985B1A59081C1C9BDA9958DD081251 PUSH1 0x72 SHL PUSH1 0x44 DUP3 ADD MSTORE PUSH1 0x64 SWAP1 REVERT JUMPDEST POP PUSH1 0x6 SLOAD DUP7 GT ISZERO PUSH2 0x79F JUMP JUMPDEST DUP5 DUP1 REVERT JUMPDEST POP CALLVALUE PUSH2 0x135 JUMPI DUP1 PUSH1 0x3 NOT CALLDATASIZE ADD SLT PUSH2 0x135 JUMPI PUSH1 0x20 PUSH1 0x4 SLOAD PUSH1 0x40 MLOAD SWAP1 DUP2 MSTORE RETURN JUMPDEST POP CALLVALUE PUSH2 0x135 JUMPI DUP1 PUSH1 0x3 NOT CALLDATASIZE ADD SLT PUSH2 0x135 JUMPI PUSH1 0x20 PUSH1 0x6 SLOAD PUSH1 0x40 MLOAD SWAP1 DUP2 MSTORE RETURN JUMPDEST POP CALLVALUE PUSH2 0x135 JUMPI PUSH1 0x80 CALLDATASIZE PUSH1 0x3 NOT ADD SLT PUSH2 0x135 JUMPI PUSH1 0x4 CALLDATALOAD PUSH8 0xFFFFFFFFFFFFFFFF DUP2 GT PUSH2 0x1112 JUMPI PUSH2 0xC63 SWAP1 CALLDATASIZE SWAP1 PUSH1 0x4 ADD PUSH2 0x140F JUMP JUMPDEST SWAP1 PUSH1 0x24 CALLDATALOAD PUSH8 0xFFFFFFFFFFFFFFFF DUP2 GT PUSH2 0x1112 JUMPI PUSH2 0xC84 SWAP1 CALLDATASIZE SWAP1 PUSH1 0x4 ADD PUSH2 0x140F JUMP JUMPDEST PUSH1 0x44 CALLDATALOAD PUSH8 0xFFFFFFFFFFFFFFFF DUP2 GT PUSH2 0x600 JUMPI PUSH2 0xCA4 SWAP1 CALLDATASIZE SWAP1 PUSH1 0x4 ADD PUSH2 0x140F JUMP JUMPDEST SWAP3 PUSH1 0x6 SLOAD SWAP3 PUSH1 0x0 NOT DUP5 EQ PUSH2 0x10FE JUMPI PUSH1 0x1 DUP5 ADD PUSH1 0x6 SSTORE PUSH1 0x1 DUP5 ADD DUP2 MSTORE PUSH1 0x5 PUSH1 0x20 MSTORE PUSH1 0x40 DUP2 KECCAK256 SWAP5 DUP3 MLOAD PUSH8 0xFFFFFFFFFFFFFFFF DUP2 GT PUSH2 0xF83 JUMPI PUSH2 0xCE7 PUSH1 0xE DUP9 ADD SLOAD PUSH2 0x125C JUMP JUMPDEST PUSH1 0x1F DUP2 GT PUSH2 0x10BA JUMPI JUMPDEST POP DUP1 PUSH1 0x20 PUSH1 0x1F DUP3 GT PUSH1 0x1 EQ PUSH2 0x1052 JUMPI DUP5 SWAP2 PUSH2 0x1047 JUMPI JUMPDEST POP DUP2 PUSH1 0x1 SHL SWAP2 PUSH1 0x0 NOT SWAP1 PUSH1 0x3 SHL SHR NOT AND OR PUSH1 0xE DUP8 ADD SSTORE JUMPDEST DUP4 MLOAD PUSH8 0xFFFFFFFFFFFFFFFF DUP2 GT PUSH2 0xF83 JUMPI PUSH2 0xD38 DUP8 SLOAD PUSH2 0x125C JUMP JUMPDEST PUSH1 0x1F DUP2 GT PUSH2 0x1006 JUMPI JUMPDEST POP DUP1 PUSH1 0x20 PUSH1 0x1F DUP3 GT PUSH1 0x1 EQ PUSH2 0xFA2 JUMPI DUP5 SWAP2 PUSH2 0xF97 JUMPI JUMPDEST POP DUP2 PUSH1 0x1 SHL SWAP2 PUSH1 0x0 NOT SWAP1 PUSH1 0x3 SHL SHR NOT AND OR DUP7 SSTORE JUMPDEST DUP1 MLOAD SWAP1 PUSH8 0xFFFFFFFFFFFFFFFF DUP3 GT PUSH2 0xF83 JUMPI DUP2 SWAP1 PUSH2 0xD8C PUSH1 0x1 DUP10 ADD SLOAD PUSH2 0x125C JUMP JUMPDEST PUSH1 0x1F DUP2 GT PUSH2 0xF33 JUMPI JUMPDEST POP PUSH1 0x20 SWAP1 PUSH1 0x1F DUP4 GT PUSH1 0x1 EQ PUSH2 0xEC9 JUMPI DUP5 SWAP3 PUSH2 0xEBE JUMPI JUMPDEST POP POP DUP2 PUSH1 0x1 SHL SWAP2 PUSH1 0x0 NOT SWAP1 PUSH1 0x3 SHL SHR NOT AND OR PUSH1 0x1 DUP7 ADD SSTORE JUMPDEST PUSH1 0x2 DUP6 ADD CALLER PUSH12 0xFFFFFFFFFFFFFFFFFFFFFFFF PUSH1 0xA0 SHL DUP3 SLOAD AND OR SWAP1 SSTORE PUSH1 0x64 CALLDATALOAD SWAP2 DUP3 PUSH1 0x3 DUP8 ADD SSTORE PUSH1 0x5 DUP7 ADD PUSH1 0xFF NOT SWAP1 DUP2 DUP2 SLOAD AND SWAP1 SSTORE TIMESTAMP PUSH1 0x6 DUP9 ADD SSTORE TIMESTAMP PUSH1 0xB DUP9 ADD SSTORE PUSH3 0x93A80 TIMESTAMP ADD DUP1 TIMESTAMP GT PUSH2 0xEAA JUMPI DUP8 PUSH1 0xD SWAP2 PUSH1 0xC PUSH1 0x20 SWAP11 ADD SSTORE DUP5 PUSH1 0x9 DUP3 ADD SSTORE DUP5 PUSH1 0xA DUP3 ADD SSTORE ADD SWAP1 DUP2 SLOAD AND SWAP1 SSTORE DUP6 PUSH2 0xE41 PUSH1 0x40 MLOAD SWAP3 DUP4 DUP2 MLOAD SWAP4 DUP5 SWAP3 ADD PUSH2 0x13A4 JUMP JUMPDEST DUP2 ADD SWAP1 PUSH1 0x7 DUP3 MSTORE DUP7 DUP2 PUSH1 0x1 DUP9 ADD SWAP4 SUB ADD SWAP1 KECCAK256 SSTORE PUSH2 0xE69 PUSH1 0x40 MLOAD SWAP4 PUSH1 0x60 DUP6 MSTORE PUSH1 0x60 DUP6 ADD SWAP1 PUSH2 0x13C7 JUMP JUMPDEST SWAP2 DUP6 DUP5 ADD MSTORE PUSH1 0x40 DUP4 ADD MSTORE PUSH32 0x50094398B94BD032F2883F60FCF80BC2D2F633C5BCAF147BB1BC23CB6D48EE70 CALLER SWAP3 DUP1 PUSH1 0x1 DUP7 ADD SWAP4 SUB SWAP1 LOG3 PUSH1 0x1 PUSH1 0x40 MLOAD SWAP2 ADD DUP2 MSTORE RETURN JUMPDEST PUSH4 0x4E487B71 PUSH1 0xE0 SHL DUP5 MSTORE PUSH1 0x11 PUSH1 0x4 MSTORE PUSH1 0x24 DUP5 REVERT JUMPDEST ADD MLOAD SWAP1 POP CODESIZE DUP1 PUSH2 0xDAB JUMP JUMPDEST PUSH1 0x1 DUP10 ADD DUP6 MSTORE PUSH1 0x20 DUP6 KECCAK256 SWAP3 POP PUSH1 0x1F NOT DUP5 AND DUP6 JUMPDEST DUP2 DUP2 LT PUSH2 0xF1B JUMPI POP SWAP1 DUP5 PUSH1 0x1 SWAP6 SWAP5 SWAP4 SWAP3 LT PUSH2 0xF02 JUMPI JUMPDEST POP POP POP DUP2 SHL ADD PUSH1 0x1 DUP7 ADD SSTORE PUSH2 0xDC3 JUMP JUMPDEST ADD MLOAD PUSH1 0x0 NOT PUSH1 0xF8 DUP5 PUSH1 0x3 SHL AND SHR NOT AND SWAP1 SSTORE CODESIZE DUP1 DUP1 PUSH2 0xEF2 JUMP JUMPDEST SWAP3 SWAP4 PUSH1 0x20 PUSH1 0x1 DUP2 SWAP3 DUP8 DUP7 ADD MLOAD DUP2 SSTORE ADD SWAP6 ADD SWAP4 ADD PUSH2 0xEDC JUMP JUMPDEST SWAP1 SWAP2 POP PUSH1 0x1 DUP9 ADD DUP5 MSTORE PUSH1 0x20 DUP5 KECCAK256 PUSH1 0x1F DUP5 ADD PUSH1 0x5 SHR DUP2 ADD PUSH1 0x20 DUP6 LT PUSH2 0xF7C JUMPI JUMPDEST SWAP1 DUP5 SWAP4 SWAP3 SWAP2 JUMPDEST PUSH1 0x1F DUP4 ADD PUSH1 0x5 SHR DUP3 ADD DUP2 LT PUSH2 0xF6E JUMPI POP POP PUSH2 0xD95 JUMP JUMPDEST DUP7 DUP2 SSTORE DUP6 SWAP5 POP PUSH1 0x1 ADD PUSH2 0xF58 JUMP JUMPDEST POP DUP1 PUSH2 0xF52 JUMP JUMPDEST PUSH4 0x4E487B71 PUSH1 0xE0 SHL DUP4 MSTORE PUSH1 0x41 PUSH1 0x4 MSTORE PUSH1 0x24 DUP4 REVERT JUMPDEST SWAP1 POP DUP6 ADD MLOAD CODESIZE PUSH2 0xD57 JUMP JUMPDEST SWAP2 POP DUP8 DUP5 MSTORE PUSH1 0x20 DUP5 KECCAK256 DUP5 SWAP3 JUMPDEST PUSH1 0x1F NOT DUP4 AND DUP5 LT PUSH2 0xFEE JUMPI PUSH1 0x1 SWAP4 POP DUP3 PUSH1 0x1F NOT DUP2 AND LT PUSH2 0xFD5 JUMPI JUMPDEST POP POP DUP2 SHL ADD DUP7 SSTORE PUSH2 0xD6B JUMP JUMPDEST DUP8 ADD MLOAD PUSH1 0x0 NOT PUSH1 0xF8 DUP5 PUSH1 0x3 SHL AND SHR NOT AND SWAP1 SSTORE CODESIZE DUP1 PUSH2 0xFC9 JUMP JUMPDEST DUP8 DUP2 ADD MLOAD DUP3 SSTORE PUSH1 0x20 SWAP4 DUP5 ADD SWAP4 PUSH1 0x1 SWAP1 SWAP3 ADD SWAP2 ADD PUSH2 0xFAE JUMP JUMPDEST DUP8 DUP5 MSTORE PUSH1 0x20 DUP5 KECCAK256 PUSH1 0x1F DUP4 ADD PUSH1 0x5 SHR DUP2 ADD PUSH1 0x20 DUP5 LT PUSH2 0x1040 JUMPI JUMPDEST PUSH1 0x1F DUP4 ADD PUSH1 0x5 SHR DUP3 ADD DUP2 LT PUSH2 0x1035 JUMPI POP POP PUSH2 0xD41 JUMP JUMPDEST DUP6 DUP2 SSTORE PUSH1 0x1 ADD PUSH2 0x101F JUMP JUMPDEST POP DUP1 PUSH2 0x101F JUMP JUMPDEST SWAP1 POP DUP5 ADD MLOAD CODESIZE PUSH2 0xD06 JUMP JUMPDEST PUSH1 0xE DUP10 ADD DUP6 MSTORE PUSH1 0x20 DUP6 KECCAK256 SWAP2 POP PUSH1 0x1F NOT DUP4 AND DUP6 JUMPDEST DUP2 DUP2 LT PUSH2 0x10A2 JUMPI POP SWAP1 DUP4 PUSH1 0x1 SWAP5 SWAP4 SWAP3 LT PUSH2 0x1089 JUMPI JUMPDEST POP POP DUP2 SHL ADD PUSH1 0xE DUP8 ADD SSTORE PUSH2 0xD1D JUMP JUMPDEST DUP7 ADD MLOAD PUSH1 0x0 NOT PUSH1 0xF8 DUP5 PUSH1 0x3 SHL AND SHR NOT AND SWAP1 SSTORE CODESIZE DUP1 PUSH2 0x107A JUMP JUMPDEST SWAP2 SWAP3 PUSH1 0x20 PUSH1 0x1 DUP2 SWAP3 DUP7 DUP12 ADD MLOAD DUP2 SSTORE ADD SWAP5 ADD SWAP3 ADD PUSH2 0x1065 JUMP JUMPDEST PUSH1 0xE DUP9 ADD DUP5 MSTORE PUSH1 0x20 DUP5 KECCAK256 PUSH1 0x1F DUP4 ADD PUSH1 0x5 SHR DUP2 ADD PUSH1 0x20 DUP5 LT PUSH2 0x10F7 JUMPI JUMPDEST PUSH1 0x1F DUP4 ADD PUSH1 0x5 SHR DUP3 ADD DUP2 LT PUSH2 0x10EC JUMPI POP POP PUSH2 0xCF0 JUMP JUMPDEST DUP6 DUP2 SSTORE PUSH1 0x1 ADD PUSH2 0x10D6 JUMP JUMPDEST POP DUP1 PUSH2 0x10D6 JUMP JUMPDEST PUSH4 0x4E487B71 PUSH1 0xE0 SHL DUP2 MSTORE PUSH1 0x11 PUSH1 0x4 MSTORE PUSH1 0x24 SWAP1 REVERT JUMPDEST POP DUP1 REVERT JUMPDEST POP CALLVALUE PUSH2 0x135 JUMPI DUP1 PUSH1 0x3 NOT CALLDATASIZE ADD SLT PUSH2 0x135 JUMPI PUSH1 0x20 PUSH1 0x40 MLOAD PUSH9 0x56BC75E2D63100000 DUP2 MSTORE RETURN JUMPDEST POP CALLVALUE PUSH2 0x135 JUMPI PUSH1 0x20 CALLDATASIZE PUSH1 0x3 NOT ADD SLT PUSH2 0x135 JUMPI PUSH1 0x4 CALLDATALOAD DUP2 MSTORE PUSH1 0x5 PUSH1 0x20 MSTORE PUSH1 0x40 SWAP1 KECCAK256 PUSH2 0x1163 DUP2 PUSH2 0x12FE JUMP JUMPDEST PUSH2 0x116F PUSH1 0x1 DUP4 ADD PUSH2 0x12FE JUMP JUMPDEST SWAP2 PUSH1 0x1 PUSH1 0xA0 SHL PUSH1 0x1 SWAP1 SUB PUSH1 0x2 DUP3 ADD SLOAD AND PUSH1 0x3 DUP3 ADD SLOAD SWAP2 PUSH1 0x4 DUP2 ADD SLOAD PUSH1 0x5 DUP3 ADD SLOAD PUSH1 0xFF AND PUSH1 0x6 DUP4 ADD SLOAD PUSH1 0x9 DUP5 ADD SLOAD PUSH1 0xA DUP6 ADD SLOAD SWAP2 PUSH1 0xB DUP7 ADD SLOAD SWAP4 PUSH1 0xC DUP8 ADD SLOAD SWAP6 PUSH1 0xD DUP9 ADD SLOAD PUSH1 0xFF AND SWAP8 PUSH1 0xE ADD PUSH2 0x11C3 SWAP1 PUSH2 0x12FE JUMP JUMPDEST SWAP10 PUSH1 0x40 MLOAD SWAP13 DUP14 SWAP13 DUP14 PUSH2 0x1A0 SWAP1 DUP2 DUP2 MSTORE ADD PUSH2 0x11DC SWAP2 PUSH2 0x13C7 JUMP JUMPDEST DUP14 DUP2 SUB PUSH1 0x20 DUP16 ADD MSTORE PUSH2 0x11ED SWAP2 PUSH2 0x13C7 JUMP JUMPDEST SWAP10 PUSH1 0x40 DUP14 ADD MSTORE PUSH1 0x60 DUP13 ADD MSTORE PUSH1 0x80 DUP12 ADD MSTORE PUSH1 0xA0 DUP11 ADD PUSH2 0x120A SWAP2 PUSH2 0x13EC JUMP JUMPDEST PUSH1 0xC0 DUP10 ADD MSTORE PUSH1 0xE0 DUP9 ADD MSTORE PUSH2 0x100 DUP8 ADD MSTORE PUSH2 0x120 DUP7 ADD MSTORE PUSH2 0x140 DUP6 ADD MSTORE ISZERO ISZERO PUSH2 0x160 DUP5 ADD MSTORE DUP3 DUP2 SUB PUSH2 0x180 DUP5 ADD MSTORE PUSH2 0x36F SWAP2 PUSH2 0x13C7 JUMP JUMPDEST SWAP1 POP CALLVALUE PUSH2 0x1112 JUMPI DUP2 PUSH1 0x3 NOT CALLDATASIZE ADD SLT PUSH2 0x1112 JUMPI PUSH1 0x20 SWAP1 PUSH1 0x3 SLOAD DUP2 MSTORE RETURN JUMPDEST SWAP1 PUSH1 0x1 DUP3 DUP2 SHR SWAP3 AND DUP1 ISZERO PUSH2 0x128C JUMPI JUMPDEST PUSH1 0x20 DUP4 LT EQ PUSH2 0x1276 JUMPI JUMP JUMPDEST PUSH4 0x4E487B71 PUSH1 0xE0 SHL PUSH1 0x0 MSTORE PUSH1 0x22 PUSH1 0x4 MSTORE PUSH1 0x24 PUSH1 0x0 REVERT JUMPDEST SWAP2 PUSH1 0x7F AND SWAP2 PUSH2 0x126B JUMP JUMPDEST PUSH8 0xFFFFFFFFFFFFFFFF DUP2 GT PUSH2 0x12AA JUMPI PUSH1 0x40 MSTORE JUMP JUMPDEST PUSH4 0x4E487B71 PUSH1 0xE0 SHL PUSH1 0x0 MSTORE PUSH1 0x41 PUSH1 0x4 MSTORE PUSH1 0x24 PUSH1 0x0 REVERT JUMPDEST PUSH1 0x40 DUP2 ADD SWAP1 DUP2 LT PUSH8 0xFFFFFFFFFFFFFFFF DUP3 GT OR PUSH2 0x12AA JUMPI PUSH1 0x40 MSTORE JUMP JUMPDEST SWAP1 PUSH1 0x1F DUP1 NOT SWAP2 ADD AND DUP2 ADD SWAP1 DUP2 LT PUSH8 0xFFFFFFFFFFFFFFFF DUP3 GT OR PUSH2 0x12AA JUMPI PUSH1 0x40 MSTORE JUMP JUMPDEST SWAP1 PUSH1 0x40 MLOAD SWAP2 DUP3 PUSH1 0x0 DUP3 SLOAD SWAP3 PUSH2 0x1312 DUP5 PUSH2 0x125C JUMP JUMPDEST SWAP1 DUP2 DUP5 MSTORE PUSH1 0x1 SWAP5 DUP6 DUP2 AND SWAP1 DUP2 PUSH1 0x0 EQ PUSH2 0x1381 JUMPI POP PUSH1 0x1 EQ PUSH2 0x133E JUMPI JUMPDEST POP POP PUSH2 0x133C SWAP3 POP SUB DUP4 PUSH2 0x12DC JUMP JUMPDEST JUMP JUMPDEST SWAP1 SWAP4 SWAP2 POP PUSH1 0x0 MSTORE PUSH1 0x20 SWAP1 DUP2 PUSH1 0x0 KECCAK256 SWAP4 PUSH1 0x0 SWAP2 JUMPDEST DUP2 DUP4 LT PUSH2 0x1369 JUMPI POP POP PUSH2 0x133C SWAP4 POP DUP3 ADD ADD CODESIZE DUP1 PUSH2 0x132E JUMP JUMPDEST DUP6 SLOAD DUP9 DUP5 ADD DUP6 ADD MSTORE SWAP5 DUP6 ADD SWAP5 DUP8 SWAP5 POP SWAP2 DUP4 ADD SWAP2 PUSH2 0x1351 JUMP JUMPDEST SWAP2 POP POP PUSH2 0x133C SWAP5 POP PUSH1 0x20 SWAP3 POP PUSH1 0xFF NOT AND DUP3 DUP5 ADD MSTORE ISZERO ISZERO PUSH1 0x5 SHL DUP3 ADD ADD CODESIZE DUP1 PUSH2 0x132E JUMP JUMPDEST PUSH1 0x0 JUMPDEST DUP4 DUP2 LT PUSH2 0x13B7 JUMPI POP POP PUSH1 0x0 SWAP2 ADD MSTORE JUMP JUMPDEST DUP2 DUP2 ADD MLOAD DUP4 DUP3 ADD MSTORE PUSH1 0x20 ADD PUSH2 0x13A7 JUMP JUMPDEST SWAP1 PUSH1 0x20 SWAP2 PUSH2 0x13E0 DUP2 MLOAD DUP1 SWAP3 DUP2 DUP6 MSTORE DUP6 DUP1 DUP7 ADD SWAP2 ADD PUSH2 0x13A4 JUMP JUMPDEST PUSH1 0x1F ADD PUSH1 0x1F NOT AND ADD ADD SWAP1 JUMP JUMPDEST SWAP1 PUSH1 0x3 DUP3 LT ISZERO PUSH2 0x13F9 JUMPI MSTORE JUMP JUMPDEST PUSH4 0x4E487B71 PUSH1 0xE0 SHL PUSH1 0x0 MSTORE PUSH1 0x21 PUSH1 0x4 MSTORE PUSH1 0x24 PUSH1 0x0 REVERT JUMPDEST DUP2 PUSH1 0x1F DUP3 ADD SLT ISZERO PUSH2 0x1CA JUMPI DUP1 CALLDATALOAD SWAP1 PUSH8 0xFFFFFFFFFFFFFFFF DUP3 GT PUSH2 0x12AA JUMPI PUSH1 0x40 MLOAD SWAP3 PUSH2 0x1444 PUSH1 0x1F DUP5 ADD PUSH1 0x1F NOT AND PUSH1 0x20 ADD DUP6 PUSH2 0x12DC JUMP JUMPDEST DUP3 DUP5 MSTORE PUSH1 0x20 DUP4 DUP4 ADD ADD GT PUSH2 0x1CA JUMPI DUP2 PUSH1 0x0 SWAP3 PUSH1 0x20 DUP1 SWAP4 ADD DUP4 DUP7 ADD CALLDATACOPY DUP4 ADD ADD MSTORE SWAP1 JUMP JUMPDEST PUSH1 0x24 CALLDATALOAD SWAP1 PUSH1 0x1 PUSH1 0x1 PUSH1 0xA0 SHL SUB DUP3 AND DUP3 SUB PUSH2 0x1CA JUMPI JUMP JUMPDEST PUSH1 0x0 SLOAD PUSH1 0x1 PUSH1 0x1 PUSH1 0xA0 SHL SUB AND CALLER SUB PUSH2 0x1490 JUMPI JUMP JUMPDEST PUSH1 0x40 MLOAD PUSH4 0x118CDAA7 PUSH1 0xE0 SHL DUP2 MSTORE CALLER PUSH1 0x4 DUP3 ADD MSTORE PUSH1 0x24 SWAP1 REVERT JUMPDEST SWAP2 SWAP1 DUP3 ADD DUP1 SWAP3 GT PUSH2 0x14B5 JUMPI JUMP JUMPDEST PUSH4 0x4E487B71 PUSH1 0xE0 SHL PUSH1 0x0 MSTORE PUSH1 0x11 PUSH1 0x4 MSTORE PUSH1 0x24 PUSH1 0x0 REVERT JUMPDEST SWAP2 SWAP1 SWAP2 PUSH1 0x0 DUP2 DUP2 MSTORE PUSH1 0x20 SWAP2 PUSH1 0x5 DUP4 MSTORE PUSH1 0x40 SWAP5 DUP6 DUP4 KECCAK256 SWAP2 DUP1 ISZERO SWAP1 DUP2 ISZERO PUSH2 0x16CF JUMPI JUMPDEST POP PUSH2 0x16A0 JUMPI PUSH1 0xFF PUSH1 0x5 DUP4 ADD SLOAD AND PUSH1 0x3 DUP2 LT ISZERO PUSH2 0x317 JUMPI SWAP1 DUP5 SWAP2 PUSH2 0x1665 JUMPI PUSH1 0xC DUP4 ADD SLOAD TIMESTAMP GT PUSH2 0x1634 JUMPI PUSH1 0x1 PUSH1 0x1 PUSH1 0xA0 SHL SUB SWAP1 DUP2 AND DUP1 DUP6 MSTORE PUSH1 0x8 SWAP4 SWAP1 SWAP4 ADD DUP3 MSTORE DUP7 DUP5 KECCAK256 SLOAD PUSH1 0xFF AND PUSH2 0x1609 JUMPI PUSH1 0x1 SLOAD AND SWAP2 PUSH1 0x24 DUP8 MLOAD DUP1 SWAP5 DUP2 SWAP4 PUSH4 0x70A08231 PUSH1 0xE0 SHL DUP4 MSTORE PUSH1 0x4 DUP4 ADD MSTORE GAS STATICCALL DUP1 ISZERO PUSH2 0x15FF JUMPI DUP3 SWAP1 PUSH2 0x15C9 JUMPI JUMPDEST PUSH9 0x56BC75E2D63100000 SWAP2 POP LT PUSH2 0x1595 JUMPI POP PUSH8 0x43616E20766F7465 PUSH1 0xC0 SHL PUSH1 0x1 SWAP4 MLOAD SWAP2 PUSH2 0x158B DUP4 PUSH2 0x12C0 JUMP JUMPDEST PUSH1 0x8 DUP4 MSTORE DUP3 ADD MSTORE SWAP1 JUMP JUMPDEST PUSH25 0x24B739BAB33334B1B4B2B73A103B37BA34B733903837BBB2B9 PUSH1 0x39 SHL SWAP1 SWAP4 MLOAD SWAP2 PUSH2 0x15BF DUP4 PUSH2 0x12C0 JUMP JUMPDEST PUSH1 0x19 DUP4 MSTORE DUP3 ADD MSTORE SWAP1 JUMP JUMPDEST POP DUP3 DUP2 DUP2 RETURNDATASIZE DUP4 GT PUSH2 0x15F8 JUMPI JUMPDEST PUSH2 0x15DF DUP2 DUP4 PUSH2 0x12DC JUMP JUMPDEST DUP2 ADD SUB SLT PUSH2 0x1112 JUMPI PUSH9 0x56BC75E2D63100000 SWAP1 MLOAD PUSH2 0x155F JUMP JUMPDEST POP RETURNDATASIZE PUSH2 0x15D5 JUMP JUMPDEST DUP6 MLOAD RETURNDATASIZE DUP5 DUP3 RETURNDATACOPY RETURNDATASIZE SWAP1 REVERT JUMPDEST POP POP POP PUSH13 0x105B1C9958591E481D9BDD1959 PUSH1 0x9A SHL SWAP1 SWAP4 MLOAD SWAP2 PUSH2 0x162A DUP4 PUSH2 0x12C0 JUMP JUMPDEST PUSH1 0xD DUP4 MSTORE DUP3 ADD MSTORE SWAP1 JUMP JUMPDEST POP POP POP PUSH19 0x159BDD1A5B99C81C195C9A5BD908195B991959 PUSH1 0x6A SHL SWAP1 SWAP4 MLOAD SWAP2 PUSH2 0x165B DUP4 PUSH2 0x12C0 JUMP JUMPDEST PUSH1 0x13 DUP4 MSTORE DUP3 ADD MSTORE SWAP1 JUMP JUMPDEST POP POP POP PUSH32 0x50726F6A656374206E6F7420696E20766F74696E672070686173650000000000 SWAP1 SWAP4 MLOAD SWAP2 PUSH2 0x1696 DUP4 PUSH2 0x12C0 JUMP JUMPDEST PUSH1 0x1B DUP4 MSTORE DUP3 ADD MSTORE SWAP1 JUMP JUMPDEST POP POP PUSH18 0x125B9D985B1A59081C1C9BDA9958DD081251 PUSH1 0x72 SHL SWAP1 SWAP4 MLOAD SWAP2 PUSH2 0x16C5 DUP4 PUSH2 0x12C0 JUMP JUMPDEST PUSH1 0x12 DUP4 MSTORE DUP3 ADD MSTORE SWAP1 JUMP JUMPDEST SWAP1 POP PUSH1 0x6 SLOAD LT CODESIZE PUSH2 0x14EB JUMP INVALID LOG2 PUSH5 0x6970667358 0x22 SLT KECCAK256 PUSH6 0x4F7F746C956E PUSH19 0xC570A4F180D651EA6A260FA97E5597940C177 PUSH6 0x653D4D2F6473 PUSH16 0x6C634300081400330000000000000000 "},"methodIdentifiers":{"DAO_FEE()":"e9e6a349","MAX_DONATION()":"4857317e","MIN_DONATION()":"db45810e","MIN_VOTE_POWER()":"1e484e70","VOTE_COST()":"fe71b8ba","VOTING_PERIOD()":"b1610d7e","checkVoteEligibility(uint256,address)":"c75a7989","debugProjectStatus(uint256)":"cbe90589","donate(uint256,address)":"8004f9fa","exchangeRate()":"3ba0b9a9","getProjectState(uint256)":"e0155714","owner()":"8da5cb5b","projectCount()":"36fbad26","projects(uint256)":"107046bd","proposalIdToProjectId(string)":"b7b5bfc1","renounceOwnership()":"715018a6","submitProject(string,string,string,uint256)":"2763b72a","totalValueLocked()":"ec18154e","totalWLD()":"0b5367ad","transferOwnership(address)":"f2fde38b","voteOnProject(uint256,bool)":"4339e612","wldToken()":"9be3783d"}}}}}