{
  "_format": "hh-sol-artifact-1",
  "contractName": "WildlifeDAOToken",
  "sourceName": "contracts/WildlifeDAOToken.sol",
  "abi": [
    {
      "inputs": [],
      "stateMutability": "nonpayable",
      "type": "constructor"
    },
    {
      "inputs": [
        {
          "internalType": "address",
          "name": "spender",
          "type": "address"
        },
        {
          "internalType": "uint256",
          "name": "allowance",
          "type": "uint256"
        },
        {
          "internalType": "uint256",
          "name": "needed",
          "type": "uint256"
        }
      ],
      "name": "ERC20InsufficientAllowance",
      "type": "error"
    },
    {
      "inputs": [
        {
          "internalType": "address",
          "name": "sender",
          "type": "address"
        },
        {
          "internalType": "uint256",
          "name": "balance",
          "type": "uint256"
        },
        {
          "internalType": "uint256",
          "name": "needed",
          "type": "uint256"
        }
      ],
      "name": "ERC20InsufficientBalance",
      "type": "error"
    },
    {
      "inputs": [
        {
          "internalType": "address",
          "name": "approver",
          "type": "address"
        }
      ],
      "name": "ERC20InvalidApprover",
      "type": "error"
    },
    {
      "inputs": [
        {
          "internalType": "address",
          "name": "receiver",
          "type": "address"
        }
      ],
      "name": "ERC20InvalidReceiver",
      "type": "error"
    },
    {
      "inputs": [
        {
          "internalType": "address",
          "name": "sender",
          "type": "address"
        }
      ],
      "name": "ERC20InvalidSender",
      "type": "error"
    },
    {
      "inputs": [
        {
          "internalType": "address",
          "name": "spender",
          "type": "address"
        }
      ],
      "name": "ERC20InvalidSpender",
      "type": "error"
    },
    {
      "inputs": [
        {
          "internalType": "address",
          "name": "owner",
          "type": "address"
        }
      ],
      "name": "OwnableInvalidOwner",
      "type": "error"
    },
    {
      "inputs": [
        {
          "internalType": "address",
          "name": "account",
          "type": "address"
        }
      ],
      "name": "OwnableUnauthorizedAccount",
      "type": "error"
    },
    {
      "anonymous": false,
      "inputs": [
        {
          "indexed": true,
          "internalType": "address",
          "name": "owner",
          "type": "address"
        },
        {
          "indexed": true,
          "internalType": "address",
          "name": "spender",
          "type": "address"
        },
        {
          "indexed": false,
          "internalType": "uint256",
          "name": "value",
          "type": "uint256"
        }
      ],
      "name": "Approval",
      "type": "event"
    },
    {
      "anonymous": false,
      "inputs": [
        {
          "indexed": true,
          "internalType": "address",
          "name": "previousOwner",
          "type": "address"
        },
        {
          "indexed": true,
          "internalType": "address",
          "name": "newOwner",
          "type": "address"
        }
      ],
      "name": "OwnershipTransferred",
      "type": "event"
    },
    {
      "anonymous": false,
      "inputs": [
        {
          "indexed": true,
          "internalType": "address",
          "name": "recipient",
          "type": "address"
        },
        {
          "indexed": false,
          "internalType": "uint256",
          "name": "amount",
          "type": "uint256"
        },
        {
          "indexed": false,
          "internalType": "string",
          "name": "purpose",
          "type": "string"
        }
      ],
      "name": "TokensMinted",
      "type": "event"
    },
    {
      "anonymous": false,
      "inputs": [
        {
          "indexed": true,
          "internalType": "address",
          "name": "from",
          "type": "address"
        },
        {
          "indexed": true,
          "internalType": "address",
          "name": "to",
          "type": "address"
        },
        {
          "indexed": false,
          "internalType": "uint256",
          "name": "value",
          "type": "uint256"
        }
      ],
      "name": "Transfer",
      "type": "event"
    },
    {
      "inputs": [],
      "name": "MAX_PER_DONATION",
      "outputs": [
        {
          "internalType": "uint256",
          "name": "",
          "type": "uint256"
        }
      ],
      "stateMutability": "view",
      "type": "function"
    },
    {
      "inputs": [],
      "name": "MAX_SUPPLY",
      "outputs": [
        {
          "internalType": "uint256",
          "name": "",
          "type": "uint256"
        }
      ],
      "stateMutability": "view",
      "type": "function"
    },
    {
      "inputs": [
        {
          "internalType": "address",
          "name": "owner",
          "type": "address"
        },
        {
          "internalType": "address",
          "name": "spender",
          "type": "address"
        }
      ],
      "name": "allowance",
      "outputs": [
        {
          "internalType": "uint256",
          "name": "",
          "type": "uint256"
        }
      ],
      "stateMutability": "view",
      "type": "function"
    },
    {
      "inputs": [
        {
          "internalType": "address",
          "name": "spender",
          "type": "address"
        },
        {
          "internalType": "uint256",
          "name": "value",
          "type": "uint256"
        }
      ],
      "name": "approve",
      "outputs": [
        {
          "internalType": "bool",
          "name": "",
          "type": "bool"
        }
      ],
      "stateMutability": "nonpayable",
      "type": "function"
    },
    {
      "inputs": [
        {
          "internalType": "address",
          "name": "account",
          "type": "address"
        }
      ],
      "name": "balanceOf",
      "outputs": [
        {
          "internalType": "uint256",
          "name": "",
          "type": "uint256"
        }
      ],
      "stateMutability": "view",
      "type": "function"
    },
    {
      "inputs": [],
      "name": "daoContract",
      "outputs": [
        {
          "internalType": "address",
          "name": "",
          "type": "address"
        }
      ],
      "stateMutability": "view",
      "type": "function"
    },
    {
      "inputs": [],
      "name": "decimals",
      "outputs": [
        {
          "internalType": "uint8",
          "name": "",
          "type": "uint8"
        }
      ],
      "stateMutability": "view",
      "type": "function"
    },
    {
      "inputs": [
        {
          "internalType": "address",
          "name": "recipient",
          "type": "address"
        },
        {
          "internalType": "uint256",
          "name": "amount",
          "type": "uint256"
        }
      ],
      "name": "mintWLD",
      "outputs": [],
      "stateMutability": "nonpayable",
      "type": "function"
    },
    {
      "inputs": [],
      "name": "name",
      "outputs": [
        {
          "internalType": "string",
          "name": "",
          "type": "string"
        }
      ],
      "stateMutability": "view",
      "type": "function"
    },
    {
      "inputs": [],
      "name": "owner",
      "outputs": [
        {
          "internalType": "address",
          "name": "",
          "type": "address"
        }
      ],
      "stateMutability": "view",
      "type": "function"
    },
    {
      "inputs": [],
      "name": "renounceOwnership",
      "outputs": [],
      "stateMutability": "nonpayable",
      "type": "function"
    },
    {
      "inputs": [
        {
          "internalType": "address",
          "name": "_daoContract",
          "type": "address"
        }
      ],
      "name": "setDAOContract",
      "outputs": [],
      "stateMutability": "nonpayable",
      "type": "function"
    },
    {
      "inputs": [],
      "name": "symbol",
      "outputs": [
        {
          "internalType": "string",
          "name": "",
          "type": "string"
        }
      ],
      "stateMutability": "view",
      "type": "function"
    },
    {
      "inputs": [],
      "name": "totalSupply",
      "outputs": [
        {
          "internalType": "uint256",
          "name": "",
          "type": "uint256"
        }
      ],
      "stateMutability": "view",
      "type": "function"
    },
    {
      "inputs": [
        {
          "internalType": "address",
          "name": "to",
          "type": "address"
        },
        {
          "internalType": "uint256",
          "name": "value",
          "type": "uint256"
        }
      ],
      "name": "transfer",
      "outputs": [
        {
          "internalType": "bool",
          "name": "",
          "type": "bool"
        }
      ],
      "stateMutability": "nonpayable",
      "type": "function"
    },
    {
      "inputs": [
        {
          "internalType": "address",
          "name": "from",
          "type": "address"
        },
        {
          "internalType": "address",
          "name": "to",
          "type": "address"
        },
        {
          "internalType": "uint256",
          "name": "value",
          "type": "uint256"
        }
      ],
      "name": "transferFrom",
      "outputs": [
        {
          "internalType": "bool",
          "name": "",
          "type": "bool"
        }
      ],
      "stateMutability": "nonpayable",
      "type": "function"
    },
    {
      "inputs": [
        {
          "internalType": "address",
          "name": "newOwner",
          "type": "address"
        }
      ],
      "name": "transferOwnership",
      "outputs": [],
      "stateMutability": "nonpayable",
      "type": "function"
    }
  ],
  "bytecode": "0x60806040523480156200001157600080fd5b50336040518060400160405280601181526020017f57696c646c69666544414f20546f6b656e0000000000000000000000000000008152506040518060400160405280600381526020017f574c44000000000000000000000000000000000000000000000000000000000081525081600390816200009091906200079e565b508060049081620000a291906200079e565b505050600073ffffffffffffffffffffffffffffffffffffffff168173ffffffffffffffffffffffffffffffffffffffff16036200011a5760006040517f1e4fbdf7000000000000000000000000000000000000000000000000000000008152600401620001119190620008ca565b60405180910390fd5b6200012b81620001a160201b60201c565b50620001483369152d02c7e14af68000006200026760201b60201c565b3373ffffffffffffffffffffffffffffffffffffffff167f9d89e36eadf856db0ad9ffb5a569e07f95634dddd9501141ecf04820484ad0dc620186a06040516200019391906200098b565b60405180910390a262000a92565b6000600560009054906101000a900473ffffffffffffffffffffffffffffffffffffffff16905081600560006101000a81548173ffffffffffffffffffffffffffffffffffffffff021916908373ffffffffffffffffffffffffffffffffffffffff1602179055508173ffffffffffffffffffffffffffffffffffffffff168173ffffffffffffffffffffffffffffffffffffffff167f8be0079c531659141344cd1fd0a4f28419497f9722a3daafe3b4186f6b6457e060405160405180910390a35050565b600073ffffffffffffffffffffffffffffffffffffffff168273ffffffffffffffffffffffffffffffffffffffff1603620002dc5760006040517fec442f05000000000000000000000000000000000000000000000000000000008152600401620002d39190620008ca565b60405180910390fd5b620002f060008383620002f460201b60201c565b5050565b600073ffffffffffffffffffffffffffffffffffffffff168373ffffffffffffffffffffffffffffffffffffffff16036200034a5780600260008282546200033d9190620009ec565b9250508190555062000420565b60008060008573ffffffffffffffffffffffffffffffffffffffff1673ffffffffffffffffffffffffffffffffffffffff16815260200190815260200160002054905081811015620003d9578381836040517fe450d38c000000000000000000000000000000000000000000000000000000008152600401620003d09392919062000a38565b60405180910390fd5b8181036000808673ffffffffffffffffffffffffffffffffffffffff1673ffffffffffffffffffffffffffffffffffffffff16815260200190815260200160002081905550505b600073ffffffffffffffffffffffffffffffffffffffff168273ffffffffffffffffffffffffffffffffffffffff16036200046b5780600260008282540392505081905550620004b8565b806000808473ffffffffffffffffffffffffffffffffffffffff1673ffffffffffffffffffffffffffffffffffffffff168152602001908152602001600020600082825401925050819055505b8173ffffffffffffffffffffffffffffffffffffffff168373ffffffffffffffffffffffffffffffffffffffff167fddf252ad1be2c89b69c2b068fc378daa952ba7f163c4a11628f55a4df523b3ef8360405162000517919062000a75565b60405180910390a3505050565b600081519050919050565b7f4e487b7100000000000000000000000000000000000000000000000000000000600052604160045260246000fd5b7f4e487b7100000000000000000000000000000000000000000000000000000000600052602260045260246000fd5b60006002820490506001821680620005a657607f821691505b602082108103620005bc57620005bb6200055e565b5b50919050565b60008190508160005260206000209050919050565b60006020601f8301049050919050565b600082821b905092915050565b600060088302620006267fffffffffffffffffffffffffffffffffffffffffffffffffffffffffffffffff82620005e7565b620006328683620005e7565b95508019841693508086168417925050509392505050565b6000819050919050565b6000819050919050565b60006200067f6200067962000673846200064a565b62000654565b6200064a565b9050919050565b6000819050919050565b6200069b836200065e565b620006b3620006aa8262000686565b848454620005f4565b825550505050565b600090565b620006ca620006bb565b620006d781848462000690565b505050565b5b81811015620006ff57620006f3600082620006c0565b600181019050620006dd565b5050565b601f8211156200074e576200071881620005c2565b6200072384620005d7565b8101602085101562000733578190505b6200074b6200074285620005d7565b830182620006dc565b50505b505050565b600082821c905092915050565b6000620007736000198460080262000753565b1980831691505092915050565b60006200078e838362000760565b9150826002028217905092915050565b620007a98262000524565b67ffffffffffffffff811115620007c557620007c46200052f565b5b620007d182546200058d565b620007de82828562000703565b600060209050601f83116001811462000816576000841562000801578287015190505b6200080d858262000780565b8655506200087d565b601f1984166200082686620005c2565b60005b82811015620008505784890151825560018201915060208501945060208101905062000829565b868310156200087057848901516200086c601f89168262000760565b8355505b6001600288020188555050505b505050505050565b600073ffffffffffffffffffffffffffffffffffffffff82169050919050565b6000620008b28262000885565b9050919050565b620008c481620008a5565b82525050565b6000602082019050620008e16000830184620008b9565b92915050565b6000819050919050565b6000620009126200090c6200090684620008e7565b62000654565b6200064a565b9050919050565b6200092481620008f1565b82525050565b600082825260208201905092915050565b7f496e697469616c2044414f205472656173757279000000000000000000000000600082015250565b6000620009736014836200092a565b915062000980826200093b565b602082019050919050565b6000604082019050620009a2600083018462000919565b8181036020830152620009b58162000964565b905092915050565b7f4e487b7100000000000000000000000000000000000000000000000000000000600052601160045260246000fd5b6000620009f9826200064a565b915062000a06836200064a565b925082820190508082111562000a215762000a20620009bd565b5b92915050565b62000a32816200064a565b82525050565b600060608201905062000a4f6000830186620008b9565b62000a5e602083018562000a27565b62000a6d604083018462000a27565b949350505050565b600060208201905062000a8c600083018462000a27565b92915050565b611ae58062000aa26000396000f3fe608060405234801561001057600080fd5b506004361061010b5760003560e01c806370a08231116100a257806395d89b411161007157806395d89b4114610296578063a9059cbb146102b4578063dd62ed3e146102e4578063ebf5cd2a14610314578063f2fde38b146103325761010b565b806370a0823114610222578063715018a614610252578063838892ec1461025c5780638da5cb5b146102785761010b565b8063313ce567116100de578063313ce567146101ac57806332cb6b0c146101ca578063425d512a146101e85780634a7ffcbc146102045761010b565b806306fdde0314610110578063095ea7b31461012e57806318160ddd1461015e57806323b872dd1461017c575b600080fd5b61011861034e565b604051610125919061122b565b60405180910390f35b610148600480360381019061014391906112e6565b6103e0565b6040516101559190611341565b60405180910390f35b610166610403565b604051610173919061136b565b60405180910390f35b61019660048036038101906101919190611386565b61040d565b6040516101a39190611341565b60405180910390f35b6101b461043c565b6040516101c191906113f5565b60405180910390f35b6101d2610445565b6040516101df919061136b565b60405180910390f35b61020260048036038101906101fd9190611410565b610453565b005b61020c61050e565b604051610219919061144c565b60405180910390f35b61023c60048036038101906102379190611410565b610534565b604051610249919061136b565b60405180910390f35b61025a61057c565b005b610276600480360381019061027191906112e6565b610590565b005b610280610834565b60405161028d919061144c565b60405180910390f35b61029e61085e565b6040516102ab919061122b565b60405180910390f35b6102ce60048036038101906102c991906112e6565b6108f0565b6040516102db9190611341565b60405180910390f35b6102fe60048036038101906102f99190611467565b610913565b60405161030b919061136b565b60405180910390f35b61031c61099a565b604051610329919061136b565b60405180910390f35b61034c60048036038101906103479190611410565b6109a7565b005b60606003805461035d906114d6565b80601f0160208091040260200160405190810160405280929190818152602001828054610389906114d6565b80156103d65780601f106103ab576101008083540402835291602001916103d6565b820191906000526020600020905b8154815290600101906020018083116103b957829003601f168201915b5050505050905090565b6000806103eb610a2d565b90506103f8818585610a35565b600191505092915050565b6000600254905090565b600080610418610a2d565b9050610425858285610a47565b610430858585610adc565b60019150509392505050565b60006012905090565b69d3c21bcecceda100000081565b61045b610bd0565b600073ffffffffffffffffffffffffffffffffffffffff168173ffffffffffffffffffffffffffffffffffffffff16036104ca576040517f08c379a00000000000000000000000000000000000000000000000000000000081526004016104c190611553565b60405180910390fd5b80600660006101000a81548173ffffffffffffffffffffffffffffffffffffffff021916908373ffffffffffffffffffffffffffffffffffffffff16021790555050565b600660009054906101000a900473ffffffffffffffffffffffffffffffffffffffff1681565b60008060008373ffffffffffffffffffffffffffffffffffffffff1673ffffffffffffffffffffffffffffffffffffffff168152602001908152602001600020549050919050565b610584610bd0565b61058e6000610c57565b565b600660009054906101000a900473ffffffffffffffffffffffffffffffffffffffff1673ffffffffffffffffffffffffffffffffffffffff163373ffffffffffffffffffffffffffffffffffffffff16148061061e57506105ef610834565b73ffffffffffffffffffffffffffffffffffffffff163373ffffffffffffffffffffffffffffffffffffffff16145b61065d576040517f08c379a0000000000000000000000000000000000000000000000000000000008152600401610654906115bf565b60405180910390fd5b600073ffffffffffffffffffffffffffffffffffffffff168273ffffffffffffffffffffffffffffffffffffffff16036106cc576040517f08c379a00000000000000000000000000000000000000000000000000000000081526004016106c39061162b565b60405180910390fd5b6000811161070f576040517f08c379a0000000000000000000000000000000000000000000000000000000008152600401610706906116bd565b60405180910390fd5b683635c9adc5dea0000081111561075b576040517f08c379a00000000000000000000000000000000000000000000000000000000081526004016107529061174f565b60405180910390fd5b69d3c21bcecceda10000008161076f610403565b610779919061179e565b11156107ba576040517f08c379a00000000000000000000000000000000000000000000000000000000081526004016107b19061181e565b60405180910390fd5b6107e2826107c661043c565b600a6107d29190611971565b836107dd91906119bc565b610d1d565b8173ffffffffffffffffffffffffffffffffffffffff167f9d89e36eadf856db0ad9ffb5a569e07f95634dddd9501141ecf04820484ad0dc826040516108289190611a4a565b60405180910390a25050565b6000600560009054906101000a900473ffffffffffffffffffffffffffffffffffffffff16905090565b60606004805461086d906114d6565b80601f0160208091040260200160405190810160405280929190818152602001828054610899906114d6565b80156108e65780601f106108bb576101008083540402835291602001916108e6565b820191906000526020600020905b8154815290600101906020018083116108c957829003601f168201915b5050505050905090565b6000806108fb610a2d565b9050610908818585610adc565b600191505092915050565b6000600160008473ffffffffffffffffffffffffffffffffffffffff1673ffffffffffffffffffffffffffffffffffffffff16815260200190815260200160002060008373ffffffffffffffffffffffffffffffffffffffff1673ffffffffffffffffffffffffffffffffffffffff16815260200190815260200160002054905092915050565b683635c9adc5dea0000081565b6109af610bd0565b600073ffffffffffffffffffffffffffffffffffffffff168173ffffffffffffffffffffffffffffffffffffffff1603610a215760006040517f1e4fbdf7000000000000000000000000000000000000000000000000000000008152600401610a18919061144c565b60405180910390fd5b610a2a81610c57565b50565b600033905090565b610a428383836001610d9f565b505050565b6000610a538484610913565b90507fffffffffffffffffffffffffffffffffffffffffffffffffffffffffffffffff811015610ad65781811015610ac6578281836040517ffb8f41b2000000000000000000000000000000000000000000000000000000008152600401610abd93929190611a78565b60405180910390fd5b610ad584848484036000610d9f565b5b50505050565b600073ffffffffffffffffffffffffffffffffffffffff168373ffffffffffffffffffffffffffffffffffffffff1603610b4e5760006040517f96c6fd1e000000000000000000000000000000000000000000000000000000008152600401610b45919061144c565b60405180910390fd5b600073ffffffffffffffffffffffffffffffffffffffff168273ffffffffffffffffffffffffffffffffffffffff1603610bc05760006040517fec442f05000000000000000000000000000000000000000000000000000000008152600401610bb7919061144c565b60405180910390fd5b610bcb838383610f76565b505050565b610bd8610a2d565b73ffffffffffffffffffffffffffffffffffffffff16610bf6610834565b73ffffffffffffffffffffffffffffffffffffffff1614610c5557610c19610a2d565b6040517f118cdaa7000000000000000000000000000000000000000000000000000000008152600401610c4c919061144c565b60405180910390fd5b565b6000600560009054906101000a900473ffffffffffffffffffffffffffffffffffffffff16905081600560006101000a81548173ffffffffffffffffffffffffffffffffffffffff021916908373ffffffffffffffffffffffffffffffffffffffff1602179055508173ffffffffffffffffffffffffffffffffffffffff168173ffffffffffffffffffffffffffffffffffffffff167f8be0079c531659141344cd1fd0a4f28419497f9722a3daafe3b4186f6b6457e060405160405180910390a35050565b600073ffffffffffffffffffffffffffffffffffffffff168273ffffffffffffffffffffffffffffffffffffffff1603610d8f5760006040517fec442f05000000000000000000000000000000000000000000000000000000008152600401610d86919061144c565b60405180910390fd5b610d9b60008383610f76565b5050565b600073ffffffffffffffffffffffffffffffffffffffff168473ffffffffffffffffffffffffffffffffffffffff1603610e115760006040517fe602df05000000000000000000000000000000000000000000000000000000008152600401610e08919061144c565b60405180910390fd5b600073ffffffffffffffffffffffffffffffffffffffff168373ffffffffffffffffffffffffffffffffffffffff1603610e835760006040517f94280d62000000000000000000000000000000000000000000000000000000008152600401610e7a919061144c565b60405180910390fd5b81600160008673ffffffffffffffffffffffffffffffffffffffff1673ffffffffffffffffffffffffffffffffffffffff16815260200190815260200160002060008573ffffffffffffffffffffffffffffffffffffffff1673ffffffffffffffffffffffffffffffffffffffff168152602001908152602001600020819055508015610f70578273ffffffffffffffffffffffffffffffffffffffff168473ffffffffffffffffffffffffffffffffffffffff167f8c5be1e5ebec7d5bd14f71427d1e84f3dd0314c0f7b2291e5b200ac8c7c3b92584604051610f67919061136b565b60405180910390a35b50505050565b600073ffffffffffffffffffffffffffffffffffffffff168373ffffffffffffffffffffffffffffffffffffffff1603610fc8578060026000828254610fbc919061179e565b9250508190555061109b565b60008060008573ffffffffffffffffffffffffffffffffffffffff1673ffffffffffffffffffffffffffffffffffffffff16815260200190815260200160002054905081811015611054578381836040517fe450d38c00000000000000000000000000000000000000000000000000000000815260040161104b93929190611a78565b60405180910390fd5b8181036000808673ffffffffffffffffffffffffffffffffffffffff1673ffffffffffffffffffffffffffffffffffffffff16815260200190815260200160002081905550505b600073ffffffffffffffffffffffffffffffffffffffff168273ffffffffffffffffffffffffffffffffffffffff16036110e45780600260008282540392505081905550611131565b806000808473ffffffffffffffffffffffffffffffffffffffff1673ffffffffffffffffffffffffffffffffffffffff168152602001908152602001600020600082825401925050819055505b8173ffffffffffffffffffffffffffffffffffffffff168373ffffffffffffffffffffffffffffffffffffffff167fddf252ad1be2c89b69c2b068fc378daa952ba7f163c4a11628f55a4df523b3ef8360405161118e919061136b565b60405180910390a3505050565b600081519050919050565b600082825260208201905092915050565b60005b838110156111d55780820151818401526020810190506111ba565b60008484015250505050565b6000601f19601f8301169050919050565b60006111fd8261119b565b61120781856111a6565b93506112178185602086016111b7565b611220816111e1565b840191505092915050565b6000602082019050818103600083015261124581846111f2565b905092915050565b600080fd5b600073ffffffffffffffffffffffffffffffffffffffff82169050919050565b600061127d82611252565b9050919050565b61128d81611272565b811461129857600080fd5b50565b6000813590506112aa81611284565b92915050565b6000819050919050565b6112c3816112b0565b81146112ce57600080fd5b50565b6000813590506112e0816112ba565b92915050565b600080604083850312156112fd576112fc61124d565b5b600061130b8582860161129b565b925050602061131c858286016112d1565b9150509250929050565b60008115159050919050565b61133b81611326565b82525050565b60006020820190506113566000830184611332565b92915050565b611365816112b0565b82525050565b6000602082019050611380600083018461135c565b92915050565b60008060006060848603121561139f5761139e61124d565b5b60006113ad8682870161129b565b93505060206113be8682870161129b565b92505060406113cf868287016112d1565b9150509250925092565b600060ff82169050919050565b6113ef816113d9565b82525050565b600060208201905061140a60008301846113e6565b92915050565b6000602082840312156114265761142561124d565b5b60006114348482850161129b565b91505092915050565b61144681611272565b82525050565b6000602082019050611461600083018461143d565b92915050565b6000806040838503121561147e5761147d61124d565b5b600061148c8582860161129b565b925050602061149d8582860161129b565b9150509250929050565b7f4e487b7100000000000000000000000000000000000000000000000000000000600052602260045260246000fd5b600060028204905060018216806114ee57607f821691505b602082108103611501576115006114a7565b5b50919050565b7f496e76616c69642044414f206164647265737300000000000000000000000000600082015250565b600061153d6013836111a6565b915061154882611507565b602082019050919050565b6000602082019050818103600083015261156c81611530565b9050919050565b7f4e6f7420617574686f72697a656420746f206d696e7400000000000000000000600082015250565b60006115a96016836111a6565b91506115b482611573565b602082019050919050565b600060208201905081810360008301526115d88161159c565b9050919050565b7f496e76616c696420726563697069656e74206164647265737300000000000000600082015250565b60006116156019836111a6565b9150611620826115df565b602082019050919050565b6000602082019050818103600083015261164481611608565b9050919050565b7f4d696e7420616d6f756e74206d7573742062652067726561746572207468616e60008201527f207a65726f000000000000000000000000000000000000000000000000000000602082015250565b60006116a76025836111a6565b91506116b28261164b565b604082019050919050565b600060208201905081810360008301526116d68161169a565b9050919050565b7f45786365656473206d6178696d756d20746f6b656e732070657220646f6e617460008201527f696f6e0000000000000000000000000000000000000000000000000000000000602082015250565b60006117396023836111a6565b9150611744826116dd565b604082019050919050565b600060208201905081810360008301526117688161172c565b9050919050565b7f4e487b7100000000000000000000000000000000000000000000000000000000600052601160045260246000fd5b60006117a9826112b0565b91506117b4836112b0565b92508282019050808211156117cc576117cb61176f565b5b92915050565b7f45786365656473206d617820737570706c790000000000000000000000000000600082015250565b60006118086012836111a6565b9150611813826117d2565b602082019050919050565b60006020820190508181036000830152611837816117fb565b9050919050565b60008160011c9050919050565b6000808291508390505b6001851115611895578086048111156118715761187061176f565b5b60018516156118805780820291505b808102905061188e8561183e565b9450611855565b94509492505050565b6000826118ae576001905061196a565b816118bc576000905061196a565b81600181146118d257600281146118dc5761190b565b600191505061196a565b60ff8411156118ee576118ed61176f565b5b8360020a9150848211156119055761190461176f565b5b5061196a565b5060208310610133831016604e8410600b84101617156119405782820a90508381111561193b5761193a61176f565b5b61196a565b61194d848484600161184b565b925090508184048111156119645761196361176f565b5b81810290505b9392505050565b600061197c826112b0565b9150611987836113d9565b92506119b47fffffffffffffffffffffffffffffffffffffffffffffffffffffffffffffffff848461189e565b905092915050565b60006119c7826112b0565b91506119d2836112b0565b92508282026119e0816112b0565b915082820484148315176119f7576119f661176f565b5b5092915050565b7f446f6e6174696f6e000000000000000000000000000000000000000000000000600082015250565b6000611a346008836111a6565b9150611a3f826119fe565b602082019050919050565b6000604082019050611a5f600083018461135c565b8181036020830152611a7081611a27565b905092915050565b6000606082019050611a8d600083018661143d565b611a9a602083018561135c565b611aa7604083018461135c565b94935050505056fea26469706673582212203c12a9e62db58ba5e889ef7aff4b67bcfe55f0cd76698b3810f6e783003e9d7b64736f6c63430008140033",
  "linkReferences": {},
  "deployedLinkReferences": {}
}