{
  "_format": "hh-sol-artifact-1",
  "contractName": "WildlifeDAO",
  "sourceName": "contracts/WildlifeDAO.sol",
  "abi": [
    {
      "inputs": [
        {
          "internalType": "address",
          "name": "_wldToken",
          "type": "address"
        }
      ],
      "stateMutability": "nonpayable",
      "type": "constructor"
    },
    {
      "inputs": [
        {
          "internalType": "address",
          "name": "owner",
          "type": "address"
        }
      ],
      "name": "OwnableInvalidOwner",
      "type": "error"
    },
    {
      "inputs": [
        {
          "internalType": "address",
          "name": "account",
          "type": "address"
        }
      ],
      "name": "OwnableUnauthorizedAccount",
      "type": "error"
    },
    {
      "anonymous": false,
      "inputs": [
        {
          "indexed": true,
          "internalType": "address",
          "name": "donor",
          "type": "address"
        },
        {
          "indexed": false,
          "internalType": "uint256",
          "name": "usdAmount",
          "type": "uint256"
        },
        {
          "indexed": false,
          "internalType": "uint256",
          "name": "wldMinted",
          "type": "uint256"
        }
      ],
      "name": "DonationReceived",
      "type": "event"
    },
    {
      "anonymous": false,
      "inputs": [
        {
          "indexed": true,
          "internalType": "address",
          "name": "previousOwner",
          "type": "address"
        },
        {
          "indexed": true,
          "internalType": "address",
          "name": "newOwner",
          "type": "address"
        }
      ],
      "name": "OwnershipTransferred",
      "type": "event"
    },
    {
      "inputs": [
        {
          "internalType": "uint256",
          "name": "_usdAmount",
          "type": "uint256"
        },
        {
          "internalType": "address",
          "name": "_recipient",
          "type": "address"
        }
      ],
      "name": "donate",
      "outputs": [],
      "stateMutability": "payable",
      "type": "function"
    },
    {
      "inputs": [],
      "name": "exchangeRate",
      "outputs": [
        {
          "internalType": "uint256",
          "name": "",
          "type": "uint256"
        }
      ],
      "stateMutability": "view",
      "type": "function"
    },
    {
      "inputs": [],
      "name": "owner",
      "outputs": [
        {
          "internalType": "address",
          "name": "",
          "type": "address"
        }
      ],
      "stateMutability": "view",
      "type": "function"
    },
    {
      "inputs": [],
      "name": "renounceOwnership",
      "outputs": [],
      "stateMutability": "nonpayable",
      "type": "function"
    },
    {
      "inputs": [],
      "name": "totalValueLocked",
      "outputs": [
        {
          "internalType": "uint256",
          "name": "",
          "type": "uint256"
        }
      ],
      "stateMutability": "view",
      "type": "function"
    },
    {
      "inputs": [],
      "name": "totalWLD",
      "outputs": [
        {
          "internalType": "uint256",
          "name": "",
          "type": "uint256"
        }
      ],
      "stateMutability": "view",
      "type": "function"
    },
    {
      "inputs": [
        {
          "internalType": "address",
          "name": "newOwner",
          "type": "address"
        }
      ],
      "name": "transferOwnership",
      "outputs": [],
      "stateMutability": "nonpayable",
      "type": "function"
    },
    {
      "inputs": [],
      "name": "wldToken",
      "outputs": [
        {
          "internalType": "contract WildlifeDAOToken",
          "name": "",
          "type": "address"
        }
      ],
      "stateMutability": "view",
      "type": "function"
    }
  ],
  "bytecode": "0x608060405260646004553480156200001657600080fd5b5060405162000d8a38038062000d8a83398181016040528101906200003c9190620002ac565b33600073ffffffffffffffffffffffffffffffffffffffff168173ffffffffffffffffffffffffffffffffffffffff1603620000b25760006040517f1e4fbdf7000000000000000000000000000000000000000000000000000000008152600401620000a99190620002ef565b60405180910390fd5b620000c3816200017e60201b60201c565b50600073ffffffffffffffffffffffffffffffffffffffff168173ffffffffffffffffffffffffffffffffffffffff160362000136576040517f08c379a00000000000000000000000000000000000000000000000000000000081526004016200012d906200036d565b60405180910390fd5b80600160006101000a81548173ffffffffffffffffffffffffffffffffffffffff021916908373ffffffffffffffffffffffffffffffffffffffff160217905550506200038f565b60008060009054906101000a900473ffffffffffffffffffffffffffffffffffffffff169050816000806101000a81548173ffffffffffffffffffffffffffffffffffffffff021916908373ffffffffffffffffffffffffffffffffffffffff1602179055508173ffffffffffffffffffffffffffffffffffffffff168173ffffffffffffffffffffffffffffffffffffffff167f8be0079c531659141344cd1fd0a4f28419497f9722a3daafe3b4186f6b6457e060405160405180910390a35050565b600080fd5b600073ffffffffffffffffffffffffffffffffffffffff82169050919050565b6000620002748262000247565b9050919050565b620002868162000267565b81146200029257600080fd5b50565b600081519050620002a6816200027b565b92915050565b600060208284031215620002c557620002c462000242565b5b6000620002d58482850162000295565b91505092915050565b620002e98162000267565b82525050565b6000602082019050620003066000830184620002de565b92915050565b600082825260208201905092915050565b7f496e76616c696420746f6b656e20616464726573730000000000000000000000600082015250565b6000620003556015836200030c565b915062000362826200031d565b602082019050919050565b60006020820190508181036000830152620003888162000346565b9050919050565b6109eb806200039f6000396000f3fe60806040526004361061007b5760003560e01c80638da5cb5b1161004e5780638da5cb5b146101095780639be3783d14610134578063ec18154e1461015f578063f2fde38b1461018a5761007b565b80630b5367ad146100805780633ba0b9a9146100ab578063715018a6146100d65780638004f9fa146100ed575b600080fd5b34801561008c57600080fd5b506100956101b3565b6040516100a291906105f4565b60405180910390f35b3480156100b757600080fd5b506100c06101b9565b6040516100cd91906105f4565b60405180910390f35b3480156100e257600080fd5b506100eb6101bf565b005b6101076004803603810190610102919061069e565b6101d3565b005b34801561011557600080fd5b5061011e6103ad565b60405161012b91906106ed565b60405180910390f35b34801561014057600080fd5b506101496103d6565b6040516101569190610767565b60405180910390f35b34801561016b57600080fd5b506101746103fc565b60405161018191906105f4565b60405180910390f35b34801561019657600080fd5b506101b160048036038101906101ac9190610782565b610402565b005b60035481565b60045481565b6101c7610488565b6101d1600061050f565b565b60008211610216576040517f08c379a000000000000000000000000000000000000000000000000000000000815260040161020d90610832565b60405180910390fd5b600073ffffffffffffffffffffffffffffffffffffffff168173ffffffffffffffffffffffffffffffffffffffff1603610285576040517f08c379a000000000000000000000000000000000000000000000000000000000815260040161027c9061089e565b60405180910390fd5b60006004548361029591906108ed565b905082600260008282546102a9919061092f565b9250508190555080600360008282546102c2919061092f565b92505081905550600160009054906101000a900473ffffffffffffffffffffffffffffffffffffffff1673ffffffffffffffffffffffffffffffffffffffff1663838892ec83836040518363ffffffff1660e01b8152600401610326929190610963565b600060405180830381600087803b15801561034057600080fd5b505af1158015610354573d6000803e3d6000fd5b505050508173ffffffffffffffffffffffffffffffffffffffff167f4b0304ab2f313234b1cea012339c8f8c3bf2c8bb357d81a579cfdb35d2e3d03084836040516103a092919061098c565b60405180910390a2505050565b60008060009054906101000a900473ffffffffffffffffffffffffffffffffffffffff16905090565b600160009054906101000a900473ffffffffffffffffffffffffffffffffffffffff1681565b60025481565b61040a610488565b600073ffffffffffffffffffffffffffffffffffffffff168173ffffffffffffffffffffffffffffffffffffffff160361047c5760006040517f1e4fbdf700000000000000000000000000000000000000000000000000000000815260040161047391906106ed565b60405180910390fd5b6104858161050f565b50565b6104906105d3565b73ffffffffffffffffffffffffffffffffffffffff166104ae6103ad565b73ffffffffffffffffffffffffffffffffffffffff161461050d576104d16105d3565b6040517f118cdaa700000000000000000000000000000000000000000000000000000000815260040161050491906106ed565b60405180910390fd5b565b60008060009054906101000a900473ffffffffffffffffffffffffffffffffffffffff169050816000806101000a81548173ffffffffffffffffffffffffffffffffffffffff021916908373ffffffffffffffffffffffffffffffffffffffff1602179055508173ffffffffffffffffffffffffffffffffffffffff168173ffffffffffffffffffffffffffffffffffffffff167f8be0079c531659141344cd1fd0a4f28419497f9722a3daafe3b4186f6b6457e060405160405180910390a35050565b600033905090565b6000819050919050565b6105ee816105db565b82525050565b600060208201905061060960008301846105e5565b92915050565b600080fd5b61061d816105db565b811461062857600080fd5b50565b60008135905061063a81610614565b92915050565b600073ffffffffffffffffffffffffffffffffffffffff82169050919050565b600061066b82610640565b9050919050565b61067b81610660565b811461068657600080fd5b50565b60008135905061069881610672565b92915050565b600080604083850312156106b5576106b461060f565b5b60006106c38582860161062b565b92505060206106d485828601610689565b9150509250929050565b6106e781610660565b82525050565b600060208201905061070260008301846106de565b92915050565b6000819050919050565b600061072d61072861072384610640565b610708565b610640565b9050919050565b600061073f82610712565b9050919050565b600061075182610734565b9050919050565b61076181610746565b82525050565b600060208201905061077c6000830184610758565b92915050565b6000602082840312156107985761079761060f565b5b60006107a684828501610689565b91505092915050565b600082825260208201905092915050565b7f446f6e6174696f6e206d7573742062652067726561746572207468616e207a6560008201527f726f000000000000000000000000000000000000000000000000000000000000602082015250565b600061081c6022836107af565b9150610827826107c0565b604082019050919050565b6000602082019050818103600083015261084b8161080f565b9050919050565b7f496e76616c696420726563697069656e74206164647265737300000000000000600082015250565b60006108886019836107af565b915061089382610852565b602082019050919050565b600060208201905081810360008301526108b78161087b565b9050919050565b7f4e487b7100000000000000000000000000000000000000000000000000000000600052601160045260246000fd5b60006108f8826105db565b9150610903836105db565b9250828202610911816105db565b91508282048414831517610928576109276108be565b5b5092915050565b600061093a826105db565b9150610945836105db565b925082820190508082111561095d5761095c6108be565b5b92915050565b600060408201905061097860008301856106de565b61098560208301846105e5565b9392505050565b60006040820190506109a160008301856105e5565b6109ae60208301846105e5565b939250505056fea2646970667358221220de611d72a472ac3938b5af4116859e6b030e928c2d06761e17969b72e15f4e4764736f6c63430008140033",
  "linkReferences": {},
  "deployedLinkReferences": {}
}